{
  "_format": "hh-sol-artifact-1",
  "contractName": "Git",
  "sourceName": "contracts/core/Git.sol",
  "abi": [
    {
      "inputs": [],
      "stateMutability": "payable",
      "type": "constructor"
    },
    {
      "anonymous": false,
      "inputs": [
        {
          "indexed": false,
          "internalType": "uint256",
          "name": "bountyId",
          "type": "uint256"
        },
        {
          "indexed": true,
          "internalType": "address",
          "name": "contributor",
          "type": "address"
        },
        {
          "indexed": false,
          "internalType": "uint256",
          "name": "amount",
          "type": "uint256"
        }
      ],
      "name": "BountyGiven",
      "type": "event"
    },
    {
      "anonymous": false,
      "inputs": [
        {
          "indexed": true,
          "internalType": "address",
          "name": "contributor",
          "type": "address"
        },
        {
          "indexed": true,
          "internalType": "uint256",
          "name": "contributeID",
          "type": "uint256"
        },
        {
          "components": [
            {
              "internalType": "string",
              "name": "cid",
              "type": "string"
            },
            {
              "internalType": "bytes20",
              "name": "sha",
              "type": "bytes20"
            }
          ],
          "indexed": false,
          "internalType": "struct Git.Bundle",
          "name": "bundle",
          "type": "tuple"
        }
      ],
      "name": "contribute",
      "type": "event"
    },
    {
      "anonymous": false,
      "inputs": [
        {
          "indexed": true,
          "internalType": "uint256",
          "name": "bountyId",
          "type": "uint256"
        },
        {
          "indexed": true,
          "internalType": "address",
          "name": "bountyOwner",
          "type": "address"
        },
        {
          "indexed": false,
          "internalType": "uint256",
          "name": "bountyAmount",
          "type": "uint256"
        },
        {
          "indexed": false,
          "internalType": "string",
          "name": "title",
          "type": "string"
        },
        {
          "indexed": false,
          "internalType": "string",
          "name": "description",
          "type": "string"
        }
      ],
      "name": "createBountyEvent",
      "type": "event"
    },
    {
      "anonymous": false,
      "inputs": [
        {
          "indexed": true,
          "internalType": "address",
          "name": "contributor",
          "type": "address"
        },
        {
          "components": [
            {
              "internalType": "string",
              "name": "cid",
              "type": "string"
            },
            {
              "internalType": "bytes20",
              "name": "sha",
              "type": "bytes20"
            }
          ],
          "indexed": true,
          "internalType": "struct Git.Bundle",
          "name": "bundle",
          "type": "tuple"
        }
      ],
      "name": "merged",
      "type": "event"
    },
    {
      "anonymous": false,
      "inputs": [
        {
          "indexed": true,
          "internalType": "bytes20",
          "name": "sha",
          "type": "bytes20"
        },
        {
          "components": [
            {
              "internalType": "bytes20",
              "name": "thisHash",
              "type": "bytes20"
            },
            {
              "internalType": "bytes",
              "name": "wordCount",
              "type": "bytes"
            },
            {
              "internalType": "bytes20",
              "name": "tree",
              "type": "bytes20"
            },
            {
              "internalType": "bytes20[]",
              "name": "parents",
              "type": "bytes20[]"
            },
            {
              "internalType": "bytes",
              "name": "message",
              "type": "bytes"
            }
          ],
          "indexed": false,
          "internalType": "struct Git.Commit",
          "name": "commit",
          "type": "tuple"
        },
        {
          "indexed": false,
          "internalType": "bytes",
          "name": "wc",
          "type": "bytes"
        },
        {
          "indexed": false,
          "internalType": "bytes",
          "name": "t",
          "type": "bytes"
        },
        {
          "indexed": false,
          "internalType": "bytes",
          "name": "parent",
          "type": "bytes"
        },
        {
          "indexed": false,
          "internalType": "bytes",
          "name": "message",
          "type": "bytes"
        },
        {
          "indexed": false,
          "internalType": "bytes",
          "name": "data",
          "type": "bytes"
        },
        {
          "indexed": false,
          "internalType": "string",
          "name": "msg",
          "type": "string"
        }
      ],
      "name": "test",
      "type": "event"
    },
    {
      "inputs": [
        {
          "internalType": "uint256",
          "name": "",
          "type": "uint256"
        }
      ],
      "name": "bountyAmount",
      "outputs": [
        {
          "internalType": "uint256",
          "name": "",
          "type": "uint256"
        }
      ],
      "stateMutability": "view",
      "type": "function"
    },
    {
      "inputs": [
        {
          "internalType": "uint256",
          "name": "",
          "type": "uint256"
        }
      ],
      "name": "bountyContent",
      "outputs": [
        {
          "internalType": "string",
          "name": "title",
          "type": "string"
        },
        {
          "internalType": "string",
          "name": "description",
          "type": "string"
        },
        {
          "internalType": "uint256",
          "name": "openStatus",
          "type": "uint256"
        }
      ],
      "stateMutability": "view",
      "type": "function"
    },
    {
      "inputs": [],
      "name": "bountyCount",
      "outputs": [
        {
          "internalType": "uint256",
          "name": "",
          "type": "uint256"
        }
      ],
      "stateMutability": "view",
      "type": "function"
    },
    {
      "inputs": [
        {
          "internalType": "uint256",
          "name": "",
          "type": "uint256"
        }
      ],
      "name": "bountyOwner",
      "outputs": [
        {
          "internalType": "address",
          "name": "",
          "type": "address"
        }
      ],
      "stateMutability": "view",
      "type": "function"
    },
    {
      "inputs": [],
      "name": "bountyTotalAmount",
      "outputs": [
        {
          "internalType": "uint256",
          "name": "",
          "type": "uint256"
        }
      ],
      "stateMutability": "view",
      "type": "function"
    },
    {
      "inputs": [
        {
          "internalType": "bytes20",
          "name": "_bytes",
          "type": "bytes20"
        }
      ],
      "name": "bytes20ToHexStr",
      "outputs": [
        {
          "internalType": "bytes",
          "name": "",
          "type": "bytes"
        }
      ],
      "stateMutability": "pure",
      "type": "function"
    },
    {
      "inputs": [
        {
          "internalType": "bytes20",
          "name": "",
          "type": "bytes20"
        }
      ],
      "name": "cid",
      "outputs": [
        {
          "internalType": "string",
          "name": "",
          "type": "string"
        }
      ],
      "stateMutability": "view",
      "type": "function"
    },
    {
      "inputs": [
        {
          "internalType": "uint256",
          "name": "bountyId",
          "type": "uint256"
        }
      ],
      "name": "closeBounty",
      "outputs": [],
      "stateMutability": "nonpayable",
      "type": "function"
    },
    {
      "inputs": [
        {
          "internalType": "address",
          "name": "",
          "type": "address"
        }
      ],
      "name": "contributeCount",
      "outputs": [
        {
          "internalType": "uint256",
          "name": "",
          "type": "uint256"
        }
      ],
      "stateMutability": "view",
      "type": "function"
    },
    {
      "inputs": [
        {
          "internalType": "address",
          "name": "",
          "type": "address"
        },
        {
          "internalType": "uint256",
          "name": "",
          "type": "uint256"
        }
      ],
      "name": "contributor",
      "outputs": [
        {
          "internalType": "string",
          "name": "cid",
          "type": "string"
        },
        {
          "internalType": "bytes20",
          "name": "sha",
          "type": "bytes20"
        }
      ],
      "stateMutability": "view",
      "type": "function"
    },
    {
      "inputs": [
        {
          "internalType": "address",
          "name": "",
          "type": "address"
        },
        {
          "internalType": "uint256",
          "name": "",
          "type": "uint256"
        }
      ],
      "name": "contributorRequest",
      "outputs": [
        {
          "internalType": "address",
          "name": "contributor",
          "type": "address"
        },
        {
          "internalType": "uint256",
          "name": "contributeId",
          "type": "uint256"
        },
        {
          "internalType": "uint256",
          "name": "linkBounty",
          "type": "uint256"
        },
        {
          "internalType": "bytes20",
          "name": "commitHash",
          "type": "bytes20"
        }
      ],
      "stateMutability": "view",
      "type": "function"
    },
    {
      "inputs": [
        {
          "internalType": "string",
          "name": "title",
          "type": "string"
        },
        {
          "internalType": "string",
          "name": "description",
          "type": "string"
        }
      ],
      "name": "createBounty",
      "outputs": [],
      "stateMutability": "payable",
      "type": "function"
    },
    {
      "inputs": [],
      "name": "factory",
      "outputs": [
        {
          "internalType": "address",
          "name": "",
          "type": "address"
        }
      ],
      "stateMutability": "view",
      "type": "function"
    },
    {
      "inputs": [
        {
          "internalType": "uint256",
          "name": "bountyId",
          "type": "uint256"
        }
      ],
      "name": "getBounty",
      "outputs": [
        {
          "components": [
            {
              "internalType": "string",
              "name": "title",
              "type": "string"
            },
            {
              "internalType": "string",
              "name": "description",
              "type": "string"
            },
            {
              "internalType": "uint256",
              "name": "openStatus",
              "type": "uint256"
            }
          ],
          "internalType": "struct Bounty.BountyContent",
          "name": "",
          "type": "tuple"
        },
        {
          "internalType": "uint256",
          "name": "",
          "type": "uint256"
        }
      ],
      "stateMutability": "view",
      "type": "function"
    },
    {
      "inputs": [],
      "name": "getLatestPack",
      "outputs": [
        {
          "internalType": "bytes20",
          "name": "",
          "type": "bytes20"
        }
      ],
      "stateMutability": "view",
      "type": "function"
    },
    {
      "inputs": [],
      "name": "getRepoContent",
      "outputs": [
        {
          "components": [
            {
              "internalType": "address",
              "name": "codeOwner",
              "type": "address"
            },
            {
              "internalType": "bytes20",
              "name": "latestCommit",
              "type": "bytes20"
            },
            {
              "internalType": "string",
              "name": "name",
              "type": "string"
            },
            {
              "internalType": "string",
              "name": "description",
              "type": "string"
            },
            {
              "internalType": "string",
              "name": "defaultBranch",
              "type": "string"
            }
          ],
          "internalType": "struct Git.Repo",
          "name": "",
          "type": "tuple"
        }
      ],
      "stateMutability": "view",
      "type": "function"
    },
    {
      "inputs": [
        {
          "internalType": "address",
          "name": "_codeOwner",
          "type": "address"
        },
        {
          "internalType": "bytes20",
          "name": "_commitHash",
          "type": "bytes20"
        },
        {
          "internalType": "string",
          "name": "_name",
          "type": "string"
        },
        {
          "internalType": "string",
          "name": "_cid",
          "type": "string"
        },
        {
          "internalType": "string",
          "name": "_defaultBranch",
          "type": "string"
        }
      ],
      "name": "initialize",
      "outputs": [],
      "stateMutability": "nonpayable",
      "type": "function"
    },
    {
      "inputs": [
        {
          "internalType": "bytes20",
          "name": "",
          "type": "bytes20"
        }
      ],
      "name": "mainCommitExist",
      "outputs": [
        {
          "internalType": "bool",
          "name": "",
          "type": "bool"
        }
      ],
      "stateMutability": "view",
      "type": "function"
    },
    {
      "inputs": [
        {
          "internalType": "address",
          "name": "",
          "type": "address"
        }
      ],
      "name": "members",
      "outputs": [
        {
          "internalType": "bool",
          "name": "",
          "type": "bool"
        }
      ],
      "stateMutability": "view",
      "type": "function"
    },
    {
      "inputs": [
        {
          "components": [
            {
              "internalType": "bytes20",
              "name": "thisHash",
              "type": "bytes20"
            },
            {
              "internalType": "bytes",
              "name": "wordCount",
              "type": "bytes"
            },
            {
              "internalType": "bytes20",
              "name": "tree",
              "type": "bytes20"
            },
            {
              "internalType": "bytes20[]",
              "name": "parents",
              "type": "bytes20[]"
            },
            {
              "internalType": "bytes",
              "name": "message",
              "type": "bytes"
            }
          ],
          "internalType": "struct Git.Commit",
          "name": "commit",
          "type": "tuple"
        },
        {
          "internalType": "address",
          "name": "_contributor",
          "type": "address"
        },
        {
          "internalType": "uint256",
          "name": "contributeId",
          "type": "uint256"
        },
        {
          "internalType": "string",
          "name": "_cid",
          "type": "string"
        }
      ],
      "name": "merge",
      "outputs": [],
      "stateMutability": "nonpayable",
      "type": "function"
    },
    {
      "inputs": [
        {
          "components": [
            {
              "internalType": "bytes20",
              "name": "thisHash",
              "type": "bytes20"
            },
            {
              "internalType": "bytes",
              "name": "wordCount",
              "type": "bytes"
            },
            {
              "internalType": "bytes20",
              "name": "tree",
              "type": "bytes20"
            },
            {
              "internalType": "bytes20[]",
              "name": "parents",
              "type": "bytes20[]"
            },
            {
              "internalType": "bytes",
              "name": "message",
              "type": "bytes"
            }
          ],
          "internalType": "struct Git.Commit[]",
          "name": "commits",
          "type": "tuple[]"
        },
        {
          "internalType": "string",
          "name": "_cid",
          "type": "string"
        }
      ],
      "name": "push",
      "outputs": [],
      "stateMutability": "nonpayable",
      "type": "function"
    },
    {
      "inputs": [],
      "name": "repo",
      "outputs": [
        {
          "internalType": "address",
          "name": "codeOwner",
          "type": "address"
        },
        {
          "internalType": "bytes20",
          "name": "latestCommit",
          "type": "bytes20"
        },
        {
          "internalType": "string",
          "name": "name",
          "type": "string"
        },
        {
          "internalType": "string",
          "name": "description",
          "type": "string"
        },
        {
          "internalType": "string",
          "name": "defaultBranch",
          "type": "string"
        }
      ],
      "stateMutability": "view",
      "type": "function"
    },
    {
      "inputs": [],
      "name": "requestCount",
      "outputs": [
        {
          "internalType": "uint256",
          "name": "",
          "type": "uint256"
        }
      ],
      "stateMutability": "view",
      "type": "function"
    },
    {
      "inputs": [
        {
          "internalType": "uint256",
          "name": "",
          "type": "uint256"
        }
      ],
      "name": "requests",
      "outputs": [
        {
          "internalType": "address",
          "name": "contributor",
          "type": "address"
        },
        {
          "internalType": "uint256",
          "name": "contributeId",
          "type": "uint256"
        },
        {
          "internalType": "uint256",
          "name": "linkBounty",
          "type": "uint256"
        },
        {
          "internalType": "bytes20",
          "name": "commitHash",
          "type": "bytes20"
        }
      ],
      "stateMutability": "view",
      "type": "function"
    },
    {
      "inputs": [
        {
          "internalType": "uint256",
          "name": "contributeId",
          "type": "uint256"
        },
        {
          "internalType": "uint256",
          "name": "bountyId",
          "type": "uint256"
        }
      ],
      "name": "rewardRequest",
      "outputs": [],
      "stateMutability": "nonpayable",
      "type": "function"
    },
    {
      "inputs": [
        {
          "internalType": "string",
          "name": "_description",
          "type": "string"
        }
      ],
      "name": "setDescription",
      "outputs": [],
      "stateMutability": "nonpayable",
      "type": "function"
    },
    {
      "inputs": [
        {
          "internalType": "uint256",
          "name": "num",
          "type": "uint256"
        }
      ],
      "name": "setRepoThreshold",
      "outputs": [],
      "stateMutability": "nonpayable",
      "type": "function"
    },
    {
      "inputs": [],
      "name": "threshould",
      "outputs": [
        {
          "internalType": "uint256",
          "name": "",
          "type": "uint256"
        }
      ],
      "stateMutability": "view",
      "type": "function"
    },
    {
      "inputs": [
        {
          "internalType": "uint256",
          "name": "id",
          "type": "uint256"
        }
      ],
      "name": "vote",
      "outputs": [],
      "stateMutability": "nonpayable",
      "type": "function"
    },
    {
      "inputs": [
        {
          "internalType": "uint256",
          "name": "",
          "type": "uint256"
        }
      ],
      "name": "votes",
      "outputs": [
        {
          "internalType": "uint256",
          "name": "",
          "type": "uint256"
        }
      ],
      "stateMutability": "view",
      "type": "function"
    }
  ],
  "bytecode": "0x608060405260008055600060015560026007556000600e5533600860006101000a81548173ffffffffffffffffffffffffffffffffffffffff021916908373ffffffffffffffffffffffffffffffffffffffff160217905550614e1e806100676000396000f3fe6080604052600436106101cd5760003560e01c80638b250740116100f7578063c6db721e11610095578063ee8c4bbf11610064578063ee8c4bbf146106cf578063f550ce861461070d578063f58e35ff1461074d578063f8ef09661461078a576101cd565b8063c6db721e146105ff578063c87dcb831461063e578063d946dfe014610669578063ddbfddb2146106a6576101cd565b8063b579d368116100d1578063b579d36814610545578063b775053214610582578063b988997f146105ab578063c45a0155146105d4576101cd565b80638b250740146104b457806390c3f38f146104df578063a5fa10f214610508576101cd565b8063499f1d3a1161016f5780636d2008a51161013e5780636d2008a5146103f257806371343caa1461040e57806380c836991461043757806381d12c5814610474576101cd565b8063499f1d3a1461033257806356ff31221461035b5780635badbe4c1461038a5780635df81330146103b5576101cd565b806309e63d25116101ab57806309e63d251461026357806327dbe5eb146102a15780633e362c96146102de5780634202a24f14610309576101cd565b80630121b93f146101d257806305d8f4b5146101fb57806308ae4b0c14610226575b600080fd5b3480156101de57600080fd5b506101f960048036038101906101f491906130b2565b6107b5565b005b34801561020757600080fd5b5061021061086f565b60405161021d91906130ee565b60405180910390f35b34801561023257600080fd5b5061024d60048036038101906102489190613167565b610875565b60405161025a91906131af565b60405180910390f35b34801561026f57600080fd5b5061028a600480360381019061028591906131ca565b610895565b6040516102989291906132d5565b60405180910390f35b3480156102ad57600080fd5b506102c860048036038101906102c391906130b2565b61095b565b6040516102d591906130ee565b60405180910390f35b3480156102ea57600080fd5b506102f3610973565b60405161030091906130ee565b60405180910390f35b34801561031557600080fd5b50610330600480360381019061032b91906130b2565b610979565b005b34801561033e57600080fd5b5061035960048036038101906103549190613305565b610a16565b005b34801561036757600080fd5b50610370610dde565b604051610381959493929190613354565b60405180910390f35b34801561039657600080fd5b5061039f610fc7565b6040516103ac91906130ee565b60405180910390f35b3480156103c157600080fd5b506103dc60048036038101906103d791906130b2565b610fcd565b6040516103e991906130ee565b60405180910390f35b61040c600480360381019061040791906134f1565b610fe5565b005b34801561041a57600080fd5b50610435600480360381019061043091906137e8565b61119a565b005b34801561044357600080fd5b5061045e60048036038101906104599190613887565b6115b8565b60405161046b9190613909565b60405180910390f35b34801561048057600080fd5b5061049b600480360381019061049691906130b2565b6117d7565b6040516104ab949392919061392b565b60405180910390f35b3480156104c057600080fd5b506104c9611834565b6040516104d691906130ee565b60405180910390f35b3480156104eb57600080fd5b5061050660048036038101906105019190613970565b61183a565b005b34801561051457600080fd5b5061052f600480360381019061052a9190613887565b6118e3565b60405161053c91906139b9565b60405180910390f35b34801561055157600080fd5b5061056c60048036038101906105679190613167565b611983565b60405161057991906130ee565b60405180910390f35b34801561058e57600080fd5b506105a960048036038101906105a491906139db565b61199b565b005b3480156105b757600080fd5b506105d260048036038101906105cd91906130b2565b611b56565b005b3480156105e057600080fd5b506105e9611c6f565b6040516105f69190613aaa565b60405180910390f35b34801561060b57600080fd5b50610626600480360381019061062191906130b2565b611c95565b60405161063593929190613ac5565b60405180910390f35b34801561064a57600080fd5b50610653611dcf565b6040516106609190613b0a565b60405180910390f35b34801561067557600080fd5b50610690600480360381019061068b91906130b2565b611de9565b60405161069d9190613aaa565b60405180910390f35b3480156106b257600080fd5b506106cd60048036038101906106c89190613c06565b611e1c565b005b3480156106db57600080fd5b506106f660048036038101906106f191906130b2565b612175565b604051610704929190613d2e565b60405180910390f35b34801561071957600080fd5b50610734600480360381019061072f91906131ca565b6122eb565b604051610744949392919061392b565b60405180910390f35b34801561075957600080fd5b50610774600480360381019061076f9190613887565b612355565b60405161078191906131af565b60405180910390f35b34801561079657600080fd5b5061079f612375565b6040516107ac9190613e00565b60405180910390f35b600560003373ffffffffffffffffffffffffffffffffffffffff1673ffffffffffffffffffffffffffffffffffffffff16815260200190815260200160002060009054906101000a900460ff16610841576040517f08c379a000000000000000000000000000000000000000000000000000000000815260040161083890613e6e565b60405180910390fd5b60016006600083815260200190815260200160002060008282546108659190613ebd565b9250508190555050565b60075481565b60056020528060005260406000206000915054906101000a900460ff1681565b6012602052816000526040600020602052806000526040600020600091509150508060000180546108c590613f20565b80601f01602080910402602001604051908101604052809291908181526020018280546108f190613f20565b801561093e5780601f106109135761010080835404028352916020019161093e565b820191906000526020600020905b81548152906001019060200180831161092157829003601f168201915b5050505050908060010160009054906101000a900460601b905082565b60036020528060005260406000206000915090505481565b60005481565b600960000160009054906101000a900473ffffffffffffffffffffffffffffffffffffffff1673ffffffffffffffffffffffffffffffffffffffff163373ffffffffffffffffffffffffffffffffffffffff1614610a0c576040517f08c379a0000000000000000000000000000000000000000000000000000000008152600401610a0390613f9d565b60405180910390fd5b8060078190555050565b6001600460008381526020019081526020016000206002015414610a6f576040517f08c379a0000000000000000000000000000000000000000000000000000000008152600401610a6690614009565b60405180910390fd5b600960010160009054906101000a900460601b6bffffffffffffffffffffffff1916601260003373ffffffffffffffffffffffffffffffffffffffff1673ffffffffffffffffffffffffffffffffffffffff16815260200190815260200160002060006001601160003373ffffffffffffffffffffffffffffffffffffffff1673ffffffffffffffffffffffffffffffffffffffff16815260200190815260200160002054610b1e9190614029565b815260200190815260200160002060010160009054906101000a900460601b6bffffffffffffffffffffffff191614610b8c576040517f08c379a0000000000000000000000000000000000000000000000000000000008152600401610b83906140cf565b60405180910390fd5b600060405180608001604052803373ffffffffffffffffffffffffffffffffffffffff168152602001848152602001838152602001601260003373ffffffffffffffffffffffffffffffffffffffff1673ffffffffffffffffffffffffffffffffffffffff168152602001908152602001600020600086815260200190815260200160002060010160009054906101000a900460601b6bffffffffffffffffffffffff1916815250905080601360003373ffffffffffffffffffffffffffffffffffffffff1673ffffffffffffffffffffffffffffffffffffffff168152602001908152602001600020600085815260200190815260200160002060008201518160000160006101000a81548173ffffffffffffffffffffffffffffffffffffffff021916908373ffffffffffffffffffffffffffffffffffffffff160217905550602082015181600101556040820151816002015560608201518160030160006101000a81548173ffffffffffffffffffffffffffffffffffffffff021916908360601c021790555090505080600f6000600e54815260200190815260200160002060008201518160000160006101000a81548173ffffffffffffffffffffffffffffffffffffffff021916908373ffffffffffffffffffffffffffffffffffffffff160217905550602082015181600101556040820151816002015560608201518160030160006101000a81548173ffffffffffffffffffffffffffffffffffffffff021916908360601c0217905550905050600e6000815480929190610dd4906140ef565b9190505550505050565b60098060000160009054906101000a900473ffffffffffffffffffffffffffffffffffffffff16908060010160009054906101000a900460601b90806002018054610e2890613f20565b80601f0160208091040260200160405190810160405280929190818152602001828054610e5490613f20565b8015610ea15780601f10610e7657610100808354040283529160200191610ea1565b820191906000526020600020905b815481529060010190602001808311610e8457829003601f168201915b505050505090806003018054610eb690613f20565b80601f0160208091040260200160405190810160405280929190818152602001828054610ee290613f20565b8015610f2f5780601f10610f0457610100808354040283529160200191610f2f565b820191906000526020600020905b815481529060010190602001808311610f1257829003601f168201915b505050505090806004018054610f4490613f20565b80601f0160208091040260200160405190810160405280929190818152602001828054610f7090613f20565b8015610fbd5780601f10610f9257610100808354040283529160200191610fbd565b820191906000526020600020905b815481529060010190602001808311610fa057829003601f168201915b5050505050905085565b600e5481565b60066020528060005260406000206000915090505481565b60003403611028576040517f08c379a000000000000000000000000000000000000000000000000000000000815260040161101f906141a9565b60405180910390fd5b33600260008054815260200190815260200160002060006101000a81548173ffffffffffffffffffffffffffffffffffffffff021916908373ffffffffffffffffffffffffffffffffffffffff1602179055503460036000805481526020019081526020016000208190555060405180606001604052808381526020018281526020016001815250600460008054815260200190815260200160002060008201518160000190816110d99190614375565b5060208201518160010190816110ef9190614375565b506040820151816002015590505060008081548092919061110f906140ef565b91905055506003600080548152602001908152602001600020546001600082825461113a9190613ebd565b925050819055503373ffffffffffffffffffffffffffffffffffffffff166000547fea57c46a6e57ddb9af4c62ad771ca42aacde886527f79e093eb4991bae0b7fa634858560405161118e93929190614447565b60405180910390a35050565b81600960000160009054906101000a900473ffffffffffffffffffffffffffffffffffffffff1673ffffffffffffffffffffffffffffffffffffffff163373ffffffffffffffffffffffffffffffffffffffff16148061120e57506007546006600083815260200190815260200160002054115b61124d576040517f08c379a0000000000000000000000000000000000000000000000000000000008152600401611244906144d8565b60405180910390fd5b611256856125d0565b6bffffffffffffffffffffffff191685600001516bffffffffffffffffffffffff1916146112b9576040517f08c379a00000000000000000000000000000000000000000000000000000000081526004016112b090614544565b60405180910390fd5b600960010160009054906101000a900460601b6bffffffffffffffffffffffff191685606001516000815181106112f3576112f2614564565b5b60200260200101516bffffffffffffffffffffffff19161461134a576040517f08c379a0000000000000000000000000000000000000000000000000000000008152600401611341906145df565b60405180910390fd5b601260008573ffffffffffffffffffffffffffffffffffffffff1673ffffffffffffffffffffffffffffffffffffffff168152602001908152602001600020600084815260200190815260200160002060010160009054906101000a900460601b6bffffffffffffffffffffffff191685606001516001815181106113d2576113d1614564565b5b60200260200101516bffffffffffffffffffffffff191614611429576040517f08c379a000000000000000000000000000000000000000000000000000000000815260040161142090614671565b60405180910390fd5b8460000151600960010160006101000a81548173ffffffffffffffffffffffffffffffffffffffff021916908360601c021790555060016014600087600001516bffffffffffffffffffffffff19166bffffffffffffffffffffffff1916815260200190815260200160002060006101000a81548160ff021916908315150217905550816010600087600001516bffffffffffffffffffffffff19166bffffffffffffffffffffffff1916815260200190815260200160002090816114ee9190614375565b506000601360008673ffffffffffffffffffffffffffffffffffffffff1673ffffffffffffffffffffffffffffffffffffffff168152602001908152602001600020600085815260200190815260200160002060020154146115a8576115a7601360008673ffffffffffffffffffffffffffffffffffffffff1673ffffffffffffffffffffffffffffffffffffffff1681526020019081526020016000206000858152602001908152602001600020600201548561287c565b5b6115b184612a89565b5050505050565b606060006040518060400160405280601081526020017f303132333435363738396162636465660000000000000000000000000000000081525090506000602867ffffffffffffffff811115611611576116106133c6565b5b6040519080825280601f01601f1916602001820160405280156116435781602001600182028036833780820191505090505b50905060005b60148110156117ad5782600486836014811061166857611667614564565b5b1a60f81b7effffffffffffffffffffffffffffffffffffffffffffffffffffffffffffff1916901c60f81c60ff16815181106116a7576116a6614564565b5b602001015160f81c60f81b826002836116c09190614691565b815181106116d1576116d0614564565b5b60200101907effffffffffffffffffffffffffffffffffffffffffffffffffffffffffffff1916908160001a90535082600f60f81b86836014811061171957611718614564565b5b1a60f81b1660f81c60ff168151811061173557611734614564565b5b602001015160f81c60f81b8260028361174e9190614691565b600161175a9190613ebd565b8151811061176b5761176a614564565b5b60200101907effffffffffffffffffffffffffffffffffffffffffffffffffffffffffffff1916908160001a90535080806117a5906140ef565b915050611649565b50806040516020016117bf919061470f565b60405160208183030381529060405292505050919050565b600f6020528060005260406000206000915090508060000160009054906101000a900473ffffffffffffffffffffffffffffffffffffffff16908060010154908060020154908060030160009054906101000a900460601b905084565b60015481565b600960000160009054906101000a900473ffffffffffffffffffffffffffffffffffffffff1673ffffffffffffffffffffffffffffffffffffffff163373ffffffffffffffffffffffffffffffffffffffff16146118cd576040517f08c379a00000000000000000000000000000000000000000000000000000000081526004016118c490614772565b60405180910390fd5b80600960030190816118df9190614375565b5050565b6010602052806000526040600020600091509050805461190290613f20565b80601f016020809104026020016040519081016040528092919081815260200182805461192e90613f20565b801561197b5780601f106119505761010080835404028352916020019161197b565b820191906000526020600020905b81548152906001019060200180831161195e57829003601f168201915b505050505081565b60116020528060005260406000206000915090505481565b600860009054906101000a900473ffffffffffffffffffffffffffffffffffffffff1673ffffffffffffffffffffffffffffffffffffffff163373ffffffffffffffffffffffffffffffffffffffff1614611a2b576040517f08c379a0000000000000000000000000000000000000000000000000000000008152600401611a2290614772565b60405180910390fd5b84600960000160006101000a81548173ffffffffffffffffffffffffffffffffffffffff021916908373ffffffffffffffffffffffffffffffffffffffff16021790555083600960010160006101000a81548173ffffffffffffffffffffffffffffffffffffffff021916908360601c02179055508260096002019081611ab29190614375565b508060096004019081611ac59190614375565b508160106000866bffffffffffffffffffffffff19166bffffffffffffffffffffffff191681526020019081526020016000209081611b049190614375565b50600160146000866bffffffffffffffffffffffff19166bffffffffffffffffffffffff1916815260200190815260200160002060006101000a81548160ff0219169083151502179055505050505050565b6002600082815260200190815260200160002060009054906101000a900473ffffffffffffffffffffffffffffffffffffffff1673ffffffffffffffffffffffffffffffffffffffff163373ffffffffffffffffffffffffffffffffffffffff1614611bf7576040517f08c379a0000000000000000000000000000000000000000000000000000000008152600401611bee90614804565b60405180910390fd5b6001600460008381526020019081526020016000206002015414611c50576040517f08c379a0000000000000000000000000000000000000000000000000000000008152600401611c4790614870565b60405180910390fd5b6000600460008381526020019081526020016000206002018190555050565b600860009054906101000a900473ffffffffffffffffffffffffffffffffffffffff1681565b6004602052806000526040600020600091509050806000018054611cb890613f20565b80601f0160208091040260200160405190810160405280929190818152602001828054611ce490613f20565b8015611d315780601f10611d0657610100808354040283529160200191611d31565b820191906000526020600020905b815481529060010190602001808311611d1457829003601f168201915b505050505090806001018054611d4690613f20565b80601f0160208091040260200160405190810160405280929190818152602001828054611d7290613f20565b8015611dbf5780601f10611d9457610100808354040283529160200191611dbf565b820191906000526020600020905b815481529060010190602001808311611da257829003601f168201915b5050505050908060020154905083565b6000600960010160009054906101000a900460601b905090565b60026020528060005260406000206000915054906101000a900473ffffffffffffffffffffffffffffffffffffffff1681565b600115156014600084600081518110611e3857611e37614564565b5b602002602001015160600151600081518110611e5757611e56614564565b5b60200260200101516bffffffffffffffffffffffff19166bffffffffffffffffffffffff1916815260200190815260200160002060009054906101000a900460ff16151514611edb576040517f08c379a0000000000000000000000000000000000000000000000000000000008152600401611ed2906148dc565b60405180910390fd5b60005b8251811015611f9a57611f0a838281518110611efd57611efc614564565b5b60200260200101516125d0565b6bffffffffffffffffffffffff1916838281518110611f2c57611f2b614564565b5b6020026020010151600001516bffffffffffffffffffffffff191614611f87576040517f08c379a0000000000000000000000000000000000000000000000000000000008152600401611f7e9061496e565b60405180910390fd5b8080611f92906140ef565b915050611ede565b50600060405180604001604052808381526020018460018651611fbd9190614029565b81518110611fce57611fcd614564565b5b6020026020010151600001516bffffffffffffffffffffffff191681525090506000601160003373ffffffffffffffffffffffffffffffffffffffff1673ffffffffffffffffffffffffffffffffffffffff16815260200190815260200160002054905081601260003373ffffffffffffffffffffffffffffffffffffffff1673ffffffffffffffffffffffffffffffffffffffff168152602001908152602001600020600083815260200190815260200160002060008201518160000190816120989190614375565b5060208201518160010160006101000a81548173ffffffffffffffffffffffffffffffffffffffff021916908360601c02179055509050506001816120dd9190613ebd565b601160003373ffffffffffffffffffffffffffffffffffffffff1673ffffffffffffffffffffffffffffffffffffffff16815260200190815260200160002081905550803373ffffffffffffffffffffffffffffffffffffffff167fcaf6ec1639cb299da0e0bb70cc2a7ecd67b5df8d91fd3ff455723ab950c8179e8460405161216791906149cb565b60405180910390a350505050565b61217d612ff3565b6000600460008481526020019081526020016000206003600085815260200190815260200160002054816040518060600160405290816000820180546121c290613f20565b80601f01602080910402602001604051908101604052809291908181526020018280546121ee90613f20565b801561223b5780601f106122105761010080835404028352916020019161223b565b820191906000526020600020905b81548152906001019060200180831161221e57829003601f168201915b5050505050815260200160018201805461225490613f20565b80601f016020809104026020016040519081016040528092919081815260200182805461228090613f20565b80156122cd5780601f106122a2576101008083540402835291602001916122cd565b820191906000526020600020905b8154815290600101906020018083116122b057829003601f168201915b50505050508152602001600282015481525050915091509150915091565b6013602052816000526040600020602052806000526040600020600091509150508060000160009054906101000a900473ffffffffffffffffffffffffffffffffffffffff16908060010154908060020154908060030160009054906101000a900460601b905084565b60146020528060005260406000206000915054906101000a900460ff1681565b61237d613014565b60096040518060a00160405290816000820160009054906101000a900473ffffffffffffffffffffffffffffffffffffffff1673ffffffffffffffffffffffffffffffffffffffff1673ffffffffffffffffffffffffffffffffffffffff1681526020016001820160009054906101000a900460601b6bffffffffffffffffffffffff19166bffffffffffffffffffffffff1916815260200160028201805461242590613f20565b80601f016020809104026020016040519081016040528092919081815260200182805461245190613f20565b801561249e5780601f106124735761010080835404028352916020019161249e565b820191906000526020600020905b81548152906001019060200180831161248157829003601f168201915b505050505081526020016003820180546124b790613f20565b80601f01602080910402602001604051908101604052809291908181526020018280546124e390613f20565b80156125305780601f1061250557610100808354040283529160200191612530565b820191906000526020600020905b81548152906001019060200180831161251357829003601f168201915b5050505050815260200160048201805461254990613f20565b80601f016020809104026020016040519081016040528092919081815260200182805461257590613f20565b80156125c25780601f10612597576101008083540402835291602001916125c2565b820191906000526020600020905b8154815290600101906020018083116125a557829003601f168201915b505050505081525050905090565b6000806040518060400160405280600781526020017f636f6d6d69742000000000000000000000000000000000000000000000000000815250836020015160405160200161261e919061470f565b60405160208183030381529060405260405160200161263e9291906149ed565b604051602081830303815290604052905060006040518060400160405280600581526020017f747265652000000000000000000000000000000000000000000000000000000081525061269485604001516115b8565b6040518060400160405280600181526020017f0a000000000000000000000000000000000000000000000000000000000000008152506040516020016126dc93929190614a11565b6040516020818303038152906040529050600060405180602001604052806000815250905060005b8560600151518110156127dc57816040518060400160405280600781526020017f706172656e74200000000000000000000000000000000000000000000000000081525061276f8860600151848151811061276257612761614564565b5b60200260200101516115b8565b6040518060400160405280600181526020017f0a000000000000000000000000000000000000000000000000000000000000008152506040516020016127b89493929190614a42565b604051602081830303815290604052915080806127d4906140ef565b915050612704565b50600083838388608001516040516020016127fa9493929190614a42565b604051602081830303815290604052905061281481612ae4565b6bffffffffffffffffffffffff19167f9c608e5eff4308e47106ab495c748192feb1171b3f68b9e1ae3ede2c66c79fb6878686868b608001518760405161286096959493929190614c49565b60405180910390a261287181612ae4565b945050505050919050565b60016004600084815260200190815260200160002060020154146128d5576040517f08c379a00000000000000000000000000000000000000000000000000000000081526004016128cc90614870565b60405180910390fd5b600073ffffffffffffffffffffffffffffffffffffffff168173ffffffffffffffffffffffffffffffffffffffff1603612944576040517f08c379a000000000000000000000000000000000000000000000000000000000815260040161293b90614d33565b60405180910390fd5b6000600360008481526020019081526020016000205490506000811161299f576040517f08c379a000000000000000000000000000000000000000000000000000000000815260040161299690614d9f565b60405180910390fd5b60006004600085815260200190815260200160002060020181905550600060036000858152602001908152602001600020819055508173ffffffffffffffffffffffffffffffffffffffff166108fc829081150290604051600060405180830381858888f19350505050158015612a1a573d6000803e3d6000fd5b508060016000828254612a2d9190614029565b925050819055508173ffffffffffffffffffffffffffffffffffffffff167f6f2a92c4e9230e27c5995450a0ecb9db9ae19e5616d79cd7836ad822daee99fd8483604051612a7c929190614dbf565b60405180910390a2505050565b6001600560008373ffffffffffffffffffffffffffffffffffffffff1673ffffffffffffffffffffffffffffffffffffffff16815260200190815260200160002060006101000a81548160ff02191690831515021790555050565b60006040518251602084019350604067ffffffffffffffc060018301160160098282031060018103612b17576040820191505b50776745230100efcdab890098badcfe001032547600c3d2e1f0612b6f565b600083831015612b685782820151905082840393506020841015612b67576001846020036101000a03198082169150505b5b9392505050565b60005b82811015612f7357612b85848289612b36565b8552612b95846020830189612b36565b602086015260408185031060018103612bb15760808286038701535b5060408303811460018103612bd0576008850260208701511760208701525b5060405b6080811015612c5c5760408103860151603882038701511860208203870151600c830388015118187c010000000100000001000000010000000100000001000000010000000163800000008204167ffffffffefffffffefffffffefffffffefffffffefffffffefffffffefffffffe6002830216179050808288015250600c81019050612bd4565b5060805b610140811015612ce957608081038601516070820387015118604082038701516018830388015118187c030000000300000003000000030000000300000003000000030000000363400000008204167ffffffffcfffffffcfffffffcfffffffcfffffffcfffffffcfffffffcfffffffc6004830216179050808288015250601881019050612c60565b508160008060005b6050811015612f45576014810460008114612d235760018114612d6d5760028114612daa5760038114612e0d57612e46565b6501000000000085046a01000000000000000000008604189350836f01000000000000000000000000000000860416935083650100000000008604189350635a8279999250612e46565b6a010000000000000000000085046f01000000000000000000000000000000860418935083650100000000008604189350636ed9eba19250612e46565b6a010000000000000000000085046f01000000000000000000000000000000860417935083650100000000008604169350836a010000000000000000000086046f01000000000000000000000000000000870416179350638f1bbcdc9250612e46565b6a010000000000000000000085046f0100000000000000000000000000000086041893508365010000000000860418935063ca62c1d692505b50601f770800000000000000000000000000000000000000000000008504168063ffffffe073080000000000000000000000000000000000000087041617905080840190508063ffffffff86160190508083019050807c0100000000000000000000000000000000000000000000000000000000600484028c0151040190507401000000000000000000000000000000000000000081026501000000000086041794506a0100000000000000000000633fffffff6a040000000000000000000087041663c00000006604000000000000880416170277ffffffff00ffffffff000000000000ffffffff00ffffffff861617945050600181019050612cf1565b5077ffffffff00ffffffff00ffffffff00ffffffff00ffffffff838601169450505050604081019050612b72565b506c0100000000000000000000000063ffffffff821667ffffffff000000006101008404166bffffffff0000000000000000620100008504166fffffffff000000000000000000000000630100000086041673ffffffff000000000000000000000000000000006401000000008704161717171702945050505050919050565b60405180606001604052806060815260200160608152602001600081525090565b6040518060a00160405280600073ffffffffffffffffffffffffffffffffffffffff16815260200160006bffffffffffffffffffffffff191681526020016060815260200160608152602001606081525090565b6000604051905090565b600080fd5b600080fd5b6000819050919050565b61308f8161307c565b811461309a57600080fd5b50565b6000813590506130ac81613086565b92915050565b6000602082840312156130c8576130c7613072565b5b60006130d68482850161309d565b91505092915050565b6130e88161307c565b82525050565b600060208201905061310360008301846130df565b92915050565b600073ffffffffffffffffffffffffffffffffffffffff82169050919050565b600061313482613109565b9050919050565b61314481613129565b811461314f57600080fd5b50565b6000813590506131618161313b565b92915050565b60006020828403121561317d5761317c613072565b5b600061318b84828501613152565b91505092915050565b60008115159050919050565b6131a981613194565b82525050565b60006020820190506131c460008301846131a0565b92915050565b600080604083850312156131e1576131e0613072565b5b60006131ef85828601613152565b92505060206132008582860161309d565b9150509250929050565b600081519050919050565b600082825260208201905092915050565b60005b83811015613244578082015181840152602081019050613229565b60008484015250505050565b6000601f19601f8301169050919050565b600061326c8261320a565b6132768185613215565b9350613286818560208601613226565b61328f81613250565b840191505092915050565b60007fffffffffffffffffffffffffffffffffffffffff00000000000000000000000082169050919050565b6132cf8161329a565b82525050565b600060408201905081810360008301526132ef8185613261565b90506132fe60208301846132c6565b9392505050565b6000806040838503121561331c5761331b613072565b5b600061332a8582860161309d565b925050602061333b8582860161309d565b9150509250929050565b61334e81613129565b82525050565b600060a0820190506133696000830188613345565b61337660208301876132c6565b81810360408301526133888186613261565b9050818103606083015261339c8185613261565b905081810360808301526133b08184613261565b90509695505050505050565b600080fd5b600080fd5b7f4e487b7100000000000000000000000000000000000000000000000000000000600052604160045260246000fd5b6133fe82613250565b810181811067ffffffffffffffff8211171561341d5761341c6133c6565b5b80604052505050565b6000613430613068565b905061343c82826133f5565b919050565b600067ffffffffffffffff82111561345c5761345b6133c6565b5b61346582613250565b9050602081019050919050565b82818337600083830152505050565b600061349461348f84613441565b613426565b9050828152602081018484840111156134b0576134af6133c1565b5b6134bb848285613472565b509392505050565b600082601f8301126134d8576134d76133bc565b5b81356134e8848260208601613481565b91505092915050565b6000806040838503121561350857613507613072565b5b600083013567ffffffffffffffff81111561352657613525613077565b5b613532858286016134c3565b925050602083013567ffffffffffffffff81111561355357613552613077565b5b61355f858286016134c3565b9150509250929050565b600080fd5b600080fd5b61357c8161329a565b811461358757600080fd5b50565b60008135905061359981613573565b92915050565b600067ffffffffffffffff8211156135ba576135b96133c6565b5b6135c382613250565b9050602081019050919050565b60006135e36135de8461359f565b613426565b9050828152602081018484840111156135ff576135fe6133c1565b5b61360a848285613472565b509392505050565b600082601f830112613627576136266133bc565b5b81356136378482602086016135d0565b91505092915050565b600067ffffffffffffffff82111561365b5761365a6133c6565b5b602082029050602081019050919050565b600080fd5b600061368461367f84613640565b613426565b905080838252602082019050602084028301858111156136a7576136a661366c565b5b835b818110156136d057806136bc888261358a565b8452602084019350506020810190506136a9565b5050509392505050565b600082601f8301126136ef576136ee6133bc565b5b81356136ff848260208601613671565b91505092915050565b600060a0828403121561371e5761371d613569565b5b61372860a0613426565b905060006137388482850161358a565b600083015250602082013567ffffffffffffffff81111561375c5761375b61356e565b5b61376884828501613612565b602083015250604061377c8482850161358a565b604083015250606082013567ffffffffffffffff8111156137a05761379f61356e565b5b6137ac848285016136da565b606083015250608082013567ffffffffffffffff8111156137d0576137cf61356e565b5b6137dc84828501613612565b60808301525092915050565b6000806000806080858703121561380257613801613072565b5b600085013567ffffffffffffffff8111156138205761381f613077565b5b61382c87828801613708565b945050602061383d87828801613152565b935050604061384e8782880161309d565b925050606085013567ffffffffffffffff81111561386f5761386e613077565b5b61387b878288016134c3565b91505092959194509250565b60006020828403121561389d5761389c613072565b5b60006138ab8482850161358a565b91505092915050565b600081519050919050565b600082825260208201905092915050565b60006138db826138b4565b6138e581856138bf565b93506138f5818560208601613226565b6138fe81613250565b840191505092915050565b6000602082019050818103600083015261392381846138d0565b905092915050565b60006080820190506139406000830187613345565b61394d60208301866130df565b61395a60408301856130df565b61396760608301846132c6565b95945050505050565b60006020828403121561398657613985613072565b5b600082013567ffffffffffffffff8111156139a4576139a3613077565b5b6139b0848285016134c3565b91505092915050565b600060208201905081810360008301526139d38184613261565b905092915050565b600080600080600060a086880312156139f7576139f6613072565b5b6000613a0588828901613152565b9550506020613a168882890161358a565b945050604086013567ffffffffffffffff811115613a3757613a36613077565b5b613a43888289016134c3565b935050606086013567ffffffffffffffff811115613a6457613a63613077565b5b613a70888289016134c3565b925050608086013567ffffffffffffffff811115613a9157613a90613077565b5b613a9d888289016134c3565b9150509295509295909350565b6000602082019050613abf6000830184613345565b92915050565b60006060820190508181036000830152613adf8186613261565b90508181036020830152613af38185613261565b9050613b0260408301846130df565b949350505050565b6000602082019050613b1f60008301846132c6565b92915050565b600067ffffffffffffffff821115613b4057613b3f6133c6565b5b602082029050602081019050919050565b6000613b64613b5f84613b25565b613426565b90508083825260208201905060208402830185811115613b8757613b8661366c565b5b835b81811015613bce57803567ffffffffffffffff811115613bac57613bab6133bc565b5b808601613bb98982613708565b85526020850194505050602081019050613b89565b5050509392505050565b600082601f830112613bed57613bec6133bc565b5b8135613bfd848260208601613b51565b91505092915050565b60008060408385031215613c1d57613c1c613072565b5b600083013567ffffffffffffffff811115613c3b57613c3a613077565b5b613c4785828601613bd8565b925050602083013567ffffffffffffffff811115613c6857613c67613077565b5b613c74858286016134c3565b9150509250929050565b600082825260208201905092915050565b6000613c9a8261320a565b613ca48185613c7e565b9350613cb4818560208601613226565b613cbd81613250565b840191505092915050565b613cd18161307c565b82525050565b60006060830160008301518482036000860152613cf48282613c8f565b91505060208301518482036020860152613d0e8282613c8f565b9150506040830151613d236040860182613cc8565b508091505092915050565b60006040820190508181036000830152613d488185613cd7565b9050613d5760208301846130df565b9392505050565b613d6781613129565b82525050565b613d768161329a565b82525050565b600060a083016000830151613d946000860182613d5e565b506020830151613da76020860182613d6d565b5060408301518482036040860152613dbf8282613c8f565b91505060608301518482036060860152613dd98282613c8f565b91505060808301518482036080860152613df38282613c8f565b9150508091505092915050565b60006020820190508181036000830152613e1a8184613d7c565b905092915050565b7f4e6f742061206d656d6265720000000000000000000000000000000000000000600082015250565b6000613e58600c83613215565b9150613e6382613e22565b602082019050919050565b60006020820190508181036000830152613e8781613e4b565b9050919050565b7f4e487b7100000000000000000000000000000000000000000000000000000000600052601160045260246000fd5b6000613ec88261307c565b9150613ed38361307c565b9250828201905080821115613eeb57613eea613e8e565b5b92915050565b7f4e487b7100000000000000000000000000000000000000000000000000000000600052602260045260246000fd5b60006002820490506001821680613f3857607f821691505b602082108103613f4b57613f4a613ef1565b5b50919050565b7f466f7262696464656e0000000000000000000000000000000000000000000000600082015250565b6000613f87600983613215565b9150613f9282613f51565b602082019050919050565b60006020820190508181036000830152613fb681613f7a565b9050919050565b7f626f756e747920697320636c6f736564206f72206e6f74206578697374000000600082015250565b6000613ff3601d83613215565b9150613ffe82613fbd565b602082019050919050565b6000602082019050818103600083015261402281613fe6565b9050919050565b60006140348261307c565b915061403f8361307c565b925082820390508181111561405757614056613e8e565b5b92915050565b7f6e65656420746f20636f6e7472696275746520746f2074686973207265706f2060008201527f6272616e63680000000000000000000000000000000000000000000000000000602082015250565b60006140b9602683613215565b91506140c48261405d565b604082019050919050565b600060208201905081810360008301526140e8816140ac565b9050919050565b60006140fa8261307c565b91507fffffffffffffffffffffffffffffffffffffffffffffffffffffffffffffffff820361412c5761412b613e8e565b5b600182019050919050565b7f426f756e747920616d6f756e74206d757374206265206772656174657220746860008201527f616e203000000000000000000000000000000000000000000000000000000000602082015250565b6000614193602483613215565b915061419e82614137565b604082019050919050565b600060208201905081810360008301526141c281614186565b9050919050565b60008190508160005260206000209050919050565b60006020601f8301049050919050565b600082821b905092915050565b60006008830261422b7fffffffffffffffffffffffffffffffffffffffffffffffffffffffffffffffff826141ee565b61423586836141ee565b95508019841693508086168417925050509392505050565b6000819050919050565b600061427261426d6142688461307c565b61424d565b61307c565b9050919050565b6000819050919050565b61428c83614257565b6142a061429882614279565b8484546141fb565b825550505050565b600090565b6142b56142a8565b6142c0818484614283565b505050565b5b818110156142e4576142d96000826142ad565b6001810190506142c6565b5050565b601f821115614329576142fa816141c9565b614303846141de565b81016020851015614312578190505b61432661431e856141de565b8301826142c5565b50505b505050565b600082821c905092915050565b600061434c6000198460080261432e565b1980831691505092915050565b6000614365838361433b565b9150826002028217905092915050565b61437e8261320a565b67ffffffffffffffff811115614397576143966133c6565b5b6143a18254613f20565b6143ac8282856142e8565b600060209050601f8311600181146143df57600084156143cd578287015190505b6143d78582614359565b86555061443f565b601f1984166143ed866141c9565b60005b82811015614415578489015182556001820191506020850194506020810190506143f0565b86831015614432578489015161442e601f89168261433b565b8355505b6001600288020188555050505b505050505050565b600060608201905061445c60008301866130df565b818103602083015261446e8185613261565b905081810360408301526144828184613261565b9050949350505050565b7f6f6e6c7920697373756572206f7220636f6465206f776e657200000000000000600082015250565b60006144c2601983613215565b91506144cd8261448c565b602082019050919050565b600060208201905081810360008301526144f1816144b5565b9050919050565b7f6e65656420746f20706172656e7420746f2074686973206272616e6368000000600082015250565b600061452e601d83613215565b9150614539826144f8565b602082019050919050565b6000602082019050818103600083015261455d81614521565b9050919050565b7f4e487b7100000000000000000000000000000000000000000000000000000000600052603260045260246000fd5b7f6e656564206d6572676520746f206d61696e206272616e636800000000000000600082015250565b60006145c9601983613215565b91506145d482614593565b602082019050919050565b600060208201905081810360008301526145f8816145bc565b9050919050565b7f636f6e7475626572206973206e6f742073616d6520746f20636f6d6d6974207060008201527f6172656e74000000000000000000000000000000000000000000000000000000602082015250565b600061465b602583613215565b9150614666826145ff565b604082019050919050565b6000602082019050818103600083015261468a8161464e565b9050919050565b600061469c8261307c565b91506146a78361307c565b92508282026146b58161307c565b915082820484148315176146cc576146cb613e8e565b5b5092915050565b600081905092915050565b60006146e9826138b4565b6146f381856146d3565b9350614703818560208601613226565b80840191505092915050565b600061471b82846146de565b915081905092915050565b7f666f7262696464656e0000000000000000000000000000000000000000000000600082015250565b600061475c600983613215565b915061476782614726565b602082019050919050565b6000602082019050818103600083015261478b8161474f565b9050919050565b7f4f6e6c7920626f756e7479206f776e65722063616e20636c6f736520626f756e60008201527f7479000000000000000000000000000000000000000000000000000000000000602082015250565b60006147ee602283613215565b91506147f982614792565b604082019050919050565b6000602082019050818103600083015261481d816147e1565b9050919050565b7f426f756e747920697320636c6f73656400000000000000000000000000000000600082015250565b600061485a601083613215565b915061486582614824565b602082019050919050565b600060208201905081810360008301526148898161484d565b9050919050565b7f706172656e7420636f6d6d6974206e6f74206578697374000000000000000000600082015250565b60006148c6601783613215565b91506148d182614890565b602082019050919050565b600060208201905081810360008301526148f5816148b9565b9050919050565b7f6e65656420746f20706172656e7420746f2074686973207265706f206272616e60008201527f6368000000000000000000000000000000000000000000000000000000000000602082015250565b6000614958602283613215565b9150614963826148fc565b604082019050919050565b600060208201905081810360008301526149878161494b565b9050919050565b600060408301600083015184820360008601526149ab8282613c8f565b91505060208301516149c06020860182613d6d565b508091505092915050565b600060208201905081810360008301526149e5818461498e565b905092915050565b60006149f982856146de565b9150614a0582846146de565b91508190509392505050565b6000614a1d82866146de565b9150614a2982856146de565b9150614a3582846146de565b9150819050949350505050565b6000614a4e82876146de565b9150614a5a82866146de565b9150614a6682856146de565b9150614a7282846146de565b915081905095945050505050565b600082825260208201905092915050565b6000614a9c826138b4565b614aa68185614a80565b9350614ab6818560208601613226565b614abf81613250565b840191505092915050565b600081519050919050565b600082825260208201905092915050565b6000819050602082019050919050565b6000614b028383613d6d565b60208301905092915050565b6000602082019050919050565b6000614b2682614aca565b614b308185614ad5565b9350614b3b83614ae6565b8060005b83811015614b6c578151614b538882614af6565b9750614b5e83614b0e565b925050600181019050614b3f565b5085935050505092915050565b600060a083016000830151614b916000860182613d6d565b5060208301518482036020860152614ba98282614a91565b9150506040830151614bbe6040860182613d6d565b5060608301518482036060860152614bd68282614b1b565b91505060808301518482036080860152614bf08282614a91565b9150508091505092915050565b7f7465737420636f6d6d6974000000000000000000000000000000000000000000600082015250565b6000614c33600b83613215565b9150614c3e82614bfd565b602082019050919050565b600060e0820190508181036000830152614c638189614b79565b90508181036020830152614c7781886138d0565b90508181036040830152614c8b81876138d0565b90508181036060830152614c9f81866138d0565b90508181036080830152614cb381856138d0565b905081810360a0830152614cc781846138d0565b905081810360c0830152614cda81614c26565b9050979650505050505050565b7f636f6e7472696275746f7220697320746865207a65726f206164647265737300600082015250565b6000614d1d601f83613215565b9150614d2882614ce7565b602082019050919050565b60006020820190508181036000830152614d4c81614d10565b9050919050565b7f426f756e747920616d6f756e74206973207a65726f0000000000000000000000600082015250565b6000614d89601583613215565b9150614d9482614d53565b602082019050919050565b60006020820190508181036000830152614db881614d7c565b9050919050565b6000604082019050614dd460008301856130df565b614de160208301846130df565b939250505056fea2646970667358221220d41bcc45af4a69dc4949dc8b1503fecac79d77d6e71dd4331a39acbf984b88db64736f6c63430008120033",
  "linkReferences": {},
  "deployedLinkReferences": {}
}