{
  "_format": "hh-sol-artifact-1",
  "contractName": "Git",
  "sourceName": "contracts/core/Git.sol",
  "abi": [
    {
      "inputs": [],
      "stateMutability": "payable",
      "type": "constructor"
    },
    {
      "anonymous": false,
      "inputs": [
        {
          "indexed": false,
          "internalType": "uint256",
          "name": "bountyId",
          "type": "uint256"
        },
        {
          "indexed": true,
          "internalType": "address",
          "name": "contributor",
          "type": "address"
        },
        {
          "indexed": false,
          "internalType": "uint256",
          "name": "amount",
          "type": "uint256"
        }
      ],
      "name": "BountyGiven",
      "type": "event"
    },
    {
      "anonymous": false,
      "inputs": [
        {
          "indexed": true,
          "internalType": "address",
          "name": "contributor",
          "type": "address"
        },
        {
          "indexed": true,
          "internalType": "uint256",
          "name": "contributeID",
          "type": "uint256"
        },
        {
          "components": [
            {
              "internalType": "string",
              "name": "cid",
              "type": "string"
            },
            {
              "internalType": "bytes20",
              "name": "sha",
              "type": "bytes20"
            }
          ],
          "indexed": false,
          "internalType": "struct Git.Bundle",
          "name": "bundle",
          "type": "tuple"
        }
      ],
      "name": "contribute",
      "type": "event"
    },
    {
      "anonymous": false,
      "inputs": [
        {
          "indexed": true,
          "internalType": "uint256",
          "name": "bountyId",
          "type": "uint256"
        },
        {
          "indexed": true,
          "internalType": "address",
          "name": "bountyOwner",
          "type": "address"
        },
        {
          "indexed": false,
          "internalType": "uint256",
          "name": "bountyAmount",
          "type": "uint256"
        },
        {
          "indexed": false,
          "internalType": "string",
          "name": "title",
          "type": "string"
        },
        {
          "indexed": false,
          "internalType": "string",
          "name": "description",
          "type": "string"
        }
      ],
      "name": "createBountyEvent",
      "type": "event"
    },
    {
      "anonymous": false,
      "inputs": [
        {
          "indexed": true,
          "internalType": "address",
          "name": "contributor",
          "type": "address"
        },
        {
          "components": [
            {
              "internalType": "string",
              "name": "cid",
              "type": "string"
            },
            {
              "internalType": "bytes20",
              "name": "sha",
              "type": "bytes20"
            }
          ],
          "indexed": true,
          "internalType": "struct Git.Bundle",
          "name": "bundle",
          "type": "tuple"
        }
      ],
      "name": "merged",
      "type": "event"
    },
    {
      "anonymous": false,
      "inputs": [
        {
          "indexed": true,
          "internalType": "bytes20",
          "name": "sha",
          "type": "bytes20"
        },
        {
          "components": [
            {
              "internalType": "bytes20",
              "name": "thisHash",
              "type": "bytes20"
            },
            {
              "internalType": "bytes",
              "name": "wordCount",
              "type": "bytes"
            },
            {
              "internalType": "bytes20",
              "name": "tree",
              "type": "bytes20"
            },
            {
              "internalType": "bytes20[]",
              "name": "parents",
              "type": "bytes20[]"
            },
            {
              "internalType": "bytes",
              "name": "message",
              "type": "bytes"
            }
          ],
          "indexed": false,
          "internalType": "struct Git.Commit",
          "name": "commit",
          "type": "tuple"
        },
        {
          "indexed": false,
          "internalType": "bytes",
          "name": "wc",
          "type": "bytes"
        },
        {
          "indexed": false,
          "internalType": "bytes",
          "name": "t",
          "type": "bytes"
        },
        {
          "indexed": false,
          "internalType": "bytes",
          "name": "parent",
          "type": "bytes"
        },
        {
          "indexed": false,
          "internalType": "bytes",
          "name": "message",
          "type": "bytes"
        },
        {
          "indexed": false,
          "internalType": "bytes",
          "name": "data",
          "type": "bytes"
        },
        {
          "indexed": false,
          "internalType": "string",
          "name": "msg",
          "type": "string"
        }
      ],
      "name": "test",
      "type": "event"
    },
    {
      "inputs": [
        {
          "internalType": "uint256",
          "name": "",
          "type": "uint256"
        }
      ],
      "name": "bountyAmount",
      "outputs": [
        {
          "internalType": "uint256",
          "name": "",
          "type": "uint256"
        }
      ],
      "stateMutability": "view",
      "type": "function"
    },
    {
      "inputs": [
        {
          "internalType": "uint256",
          "name": "",
          "type": "uint256"
        }
      ],
      "name": "bountyContent",
      "outputs": [
        {
          "internalType": "string",
          "name": "title",
          "type": "string"
        },
        {
          "internalType": "string",
          "name": "description",
          "type": "string"
        },
        {
          "internalType": "uint256",
          "name": "openStatus",
          "type": "uint256"
        }
      ],
      "stateMutability": "view",
      "type": "function"
    },
    {
      "inputs": [],
      "name": "bountyCount",
      "outputs": [
        {
          "internalType": "uint256",
          "name": "",
          "type": "uint256"
        }
      ],
      "stateMutability": "view",
      "type": "function"
    },
    {
      "inputs": [
        {
          "internalType": "uint256",
          "name": "",
          "type": "uint256"
        }
      ],
      "name": "bountyOwner",
      "outputs": [
        {
          "internalType": "address",
          "name": "",
          "type": "address"
        }
      ],
      "stateMutability": "view",
      "type": "function"
    },
    {
      "inputs": [],
      "name": "bountyTotalAmount",
      "outputs": [
        {
          "internalType": "uint256",
          "name": "",
          "type": "uint256"
        }
      ],
      "stateMutability": "view",
      "type": "function"
    },
    {
      "inputs": [
        {
          "internalType": "bytes20",
          "name": "_bytes",
          "type": "bytes20"
        }
      ],
      "name": "bytes20ToHexStr",
      "outputs": [
        {
          "internalType": "bytes",
          "name": "",
          "type": "bytes"
        }
      ],
      "stateMutability": "pure",
      "type": "function"
    },
    {
      "inputs": [
        {
          "internalType": "bytes20",
          "name": "",
          "type": "bytes20"
        }
      ],
      "name": "cid",
      "outputs": [
        {
          "internalType": "string",
          "name": "",
          "type": "string"
        }
      ],
      "stateMutability": "view",
      "type": "function"
    },
    {
      "inputs": [
        {
          "internalType": "uint256",
          "name": "bountyId",
          "type": "uint256"
        }
      ],
      "name": "closeBounty",
      "outputs": [],
      "stateMutability": "nonpayable",
      "type": "function"
    },
    {
      "inputs": [
        {
          "internalType": "address",
          "name": "",
          "type": "address"
        }
      ],
      "name": "contributeCount",
      "outputs": [
        {
          "internalType": "uint256",
          "name": "",
          "type": "uint256"
        }
      ],
      "stateMutability": "view",
      "type": "function"
    },
    {
      "inputs": [
        {
          "internalType": "address",
          "name": "",
          "type": "address"
        },
        {
          "internalType": "uint256",
          "name": "",
          "type": "uint256"
        }
      ],
      "name": "contributor",
      "outputs": [
        {
          "internalType": "string",
          "name": "cid",
          "type": "string"
        },
        {
          "internalType": "bytes20",
          "name": "sha",
          "type": "bytes20"
        }
      ],
      "stateMutability": "view",
      "type": "function"
    },
    {
      "inputs": [
        {
          "internalType": "address",
          "name": "",
          "type": "address"
        },
        {
          "internalType": "uint256",
          "name": "",
          "type": "uint256"
        }
      ],
      "name": "contributorRequest",
      "outputs": [
        {
          "internalType": "address",
          "name": "contributor",
          "type": "address"
        },
        {
          "internalType": "uint256",
          "name": "contributeId",
          "type": "uint256"
        },
        {
          "internalType": "uint256",
          "name": "linkBounty",
          "type": "uint256"
        },
        {
          "internalType": "bytes20",
          "name": "commitHash",
          "type": "bytes20"
        }
      ],
      "stateMutability": "view",
      "type": "function"
    },
    {
      "inputs": [
        {
          "internalType": "string",
          "name": "title",
          "type": "string"
        },
        {
          "internalType": "string",
          "name": "description",
          "type": "string"
        }
      ],
      "name": "createBounty",
      "outputs": [],
      "stateMutability": "payable",
      "type": "function"
    },
    {
      "inputs": [],
      "name": "factory",
      "outputs": [
        {
          "internalType": "address",
          "name": "",
          "type": "address"
        }
      ],
      "stateMutability": "view",
      "type": "function"
    },
    {
      "inputs": [
        {
          "internalType": "uint256",
          "name": "bountyId",
          "type": "uint256"
        }
      ],
      "name": "getBounty",
      "outputs": [
        {
          "components": [
            {
              "internalType": "string",
              "name": "title",
              "type": "string"
            },
            {
              "internalType": "string",
              "name": "description",
              "type": "string"
            },
            {
              "internalType": "uint256",
              "name": "openStatus",
              "type": "uint256"
            }
          ],
          "internalType": "struct Bounty.BountyContent",
          "name": "",
          "type": "tuple"
        },
        {
          "internalType": "uint256",
          "name": "",
          "type": "uint256"
        }
      ],
      "stateMutability": "view",
      "type": "function"
    },
    {
      "inputs": [],
      "name": "getLatestPack",
      "outputs": [
        {
          "internalType": "bytes20",
          "name": "",
          "type": "bytes20"
        }
      ],
      "stateMutability": "view",
      "type": "function"
    },
    {
      "inputs": [],
      "name": "getRepoContent",
      "outputs": [
        {
          "components": [
            {
              "internalType": "address",
              "name": "codeOwner",
              "type": "address"
            },
            {
              "internalType": "bytes20",
              "name": "latestCommit",
              "type": "bytes20"
            },
            {
              "internalType": "string",
              "name": "name",
              "type": "string"
            },
            {
              "internalType": "string",
              "name": "description",
              "type": "string"
            },
            {
              "internalType": "string",
              "name": "defaultBranch",
              "type": "string"
            }
          ],
          "internalType": "struct Git.Repo",
          "name": "",
          "type": "tuple"
        }
      ],
      "stateMutability": "view",
      "type": "function"
    },
    {
      "inputs": [
        {
          "internalType": "address",
          "name": "_codeOwner",
          "type": "address"
        },
        {
          "internalType": "bytes20",
          "name": "_commitHash",
          "type": "bytes20"
        },
        {
          "internalType": "string",
          "name": "_name",
          "type": "string"
        },
        {
          "internalType": "string",
          "name": "_cid",
          "type": "string"
        },
        {
          "internalType": "string",
          "name": "_defaultBranch",
          "type": "string"
        }
      ],
      "name": "initialize",
      "outputs": [],
      "stateMutability": "nonpayable",
      "type": "function"
    },
    {
      "inputs": [
        {
          "internalType": "bytes20",
          "name": "",
          "type": "bytes20"
        }
      ],
      "name": "mainCommitExist",
      "outputs": [
        {
          "internalType": "bool",
          "name": "",
          "type": "bool"
        }
      ],
      "stateMutability": "view",
      "type": "function"
    },
    {
      "inputs": [
        {
          "internalType": "address",
          "name": "",
          "type": "address"
        }
      ],
      "name": "members",
      "outputs": [
        {
          "internalType": "bool",
          "name": "",
          "type": "bool"
        }
      ],
      "stateMutability": "view",
      "type": "function"
    },
    {
      "inputs": [
        {
          "components": [
            {
              "internalType": "bytes20",
              "name": "thisHash",
              "type": "bytes20"
            },
            {
              "internalType": "bytes",
              "name": "wordCount",
              "type": "bytes"
            },
            {
              "internalType": "bytes20",
              "name": "tree",
              "type": "bytes20"
            },
            {
              "internalType": "bytes20[]",
              "name": "parents",
              "type": "bytes20[]"
            },
            {
              "internalType": "bytes",
              "name": "message",
              "type": "bytes"
            }
          ],
          "internalType": "struct Git.Commit",
          "name": "commit",
          "type": "tuple"
        },
        {
          "internalType": "address",
          "name": "_contributor",
          "type": "address"
        },
        {
          "internalType": "uint256",
          "name": "contributeId",
          "type": "uint256"
        },
        {
          "internalType": "string",
          "name": "_cid",
          "type": "string"
        }
      ],
      "name": "merge",
      "outputs": [],
      "stateMutability": "nonpayable",
      "type": "function"
    },
    {
      "inputs": [
        {
          "components": [
            {
              "internalType": "bytes20",
              "name": "thisHash",
              "type": "bytes20"
            },
            {
              "internalType": "bytes",
              "name": "wordCount",
              "type": "bytes"
            },
            {
              "internalType": "bytes20",
              "name": "tree",
              "type": "bytes20"
            },
            {
              "internalType": "bytes20[]",
              "name": "parents",
              "type": "bytes20[]"
            },
            {
              "internalType": "bytes",
              "name": "message",
              "type": "bytes"
            }
          ],
          "internalType": "struct Git.Commit[]",
          "name": "commits",
          "type": "tuple[]"
        },
        {
          "internalType": "string",
          "name": "_cid",
          "type": "string"
        }
      ],
      "name": "push",
      "outputs": [],
      "stateMutability": "nonpayable",
      "type": "function"
    },
    {
      "inputs": [],
      "name": "relaeseCount",
      "outputs": [
        {
          "internalType": "uint256",
          "name": "",
          "type": "uint256"
        }
      ],
      "stateMutability": "view",
      "type": "function"
    },
    {
      "inputs": [
        {
          "internalType": "string",
          "name": "name",
          "type": "string"
        },
        {
          "internalType": "string",
          "name": "_cid",
          "type": "string"
        },
        {
          "internalType": "bytes20",
          "name": "commit",
          "type": "bytes20"
        }
      ],
      "name": "release",
      "outputs": [],
      "stateMutability": "nonpayable",
      "type": "function"
    },
    {
      "inputs": [
        {
          "internalType": "uint256",
          "name": "",
          "type": "uint256"
        }
      ],
      "name": "releases",
      "outputs": [
        {
          "internalType": "bytes20",
          "name": "commit",
          "type": "bytes20"
        },
        {
          "internalType": "string",
          "name": "name",
          "type": "string"
        },
        {
          "internalType": "string",
          "name": "cid",
          "type": "string"
        }
      ],
      "stateMutability": "view",
      "type": "function"
    },
    {
      "inputs": [],
      "name": "repo",
      "outputs": [
        {
          "internalType": "address",
          "name": "codeOwner",
          "type": "address"
        },
        {
          "internalType": "bytes20",
          "name": "latestCommit",
          "type": "bytes20"
        },
        {
          "internalType": "string",
          "name": "name",
          "type": "string"
        },
        {
          "internalType": "string",
          "name": "description",
          "type": "string"
        },
        {
          "internalType": "string",
          "name": "defaultBranch",
          "type": "string"
        }
      ],
      "stateMutability": "view",
      "type": "function"
    },
    {
      "inputs": [],
      "name": "requestCount",
      "outputs": [
        {
          "internalType": "uint256",
          "name": "",
          "type": "uint256"
        }
      ],
      "stateMutability": "view",
      "type": "function"
    },
    {
      "inputs": [
        {
          "internalType": "uint256",
          "name": "",
          "type": "uint256"
        }
      ],
      "name": "requests",
      "outputs": [
        {
          "internalType": "address",
          "name": "contributor",
          "type": "address"
        },
        {
          "internalType": "uint256",
          "name": "contributeId",
          "type": "uint256"
        },
        {
          "internalType": "uint256",
          "name": "linkBounty",
          "type": "uint256"
        },
        {
          "internalType": "bytes20",
          "name": "commitHash",
          "type": "bytes20"
        }
      ],
      "stateMutability": "view",
      "type": "function"
    },
    {
      "inputs": [
        {
          "internalType": "uint256",
          "name": "contributeId",
          "type": "uint256"
        },
        {
          "internalType": "uint256",
          "name": "bountyId",
          "type": "uint256"
        }
      ],
      "name": "rewardRequest",
      "outputs": [],
      "stateMutability": "nonpayable",
      "type": "function"
    },
    {
      "inputs": [
        {
          "internalType": "string",
          "name": "_description",
          "type": "string"
        }
      ],
      "name": "setDescription",
      "outputs": [],
      "stateMutability": "nonpayable",
      "type": "function"
    },
    {
      "inputs": [
        {
          "internalType": "uint256",
          "name": "num",
          "type": "uint256"
        }
      ],
      "name": "setRepoThreshold",
      "outputs": [],
      "stateMutability": "nonpayable",
      "type": "function"
    },
    {
      "inputs": [],
      "name": "threshould",
      "outputs": [
        {
          "internalType": "uint256",
          "name": "",
          "type": "uint256"
        }
      ],
      "stateMutability": "view",
      "type": "function"
    },
    {
      "inputs": [
        {
          "internalType": "uint256",
          "name": "id",
          "type": "uint256"
        }
      ],
      "name": "vote",
      "outputs": [],
      "stateMutability": "nonpayable",
      "type": "function"
    },
    {
      "inputs": [
        {
          "internalType": "uint256",
          "name": "",
          "type": "uint256"
        }
      ],
      "name": "votes",
      "outputs": [
        {
          "internalType": "uint256",
          "name": "",
          "type": "uint256"
        }
      ],
      "stateMutability": "view",
      "type": "function"
    }
  ],
  "bytecode": "0x608060405260008055600060015560026007556000600e5533600860006101000a81548173ffffffffffffffffffffffffffffffffffffffff021916908373ffffffffffffffffffffffffffffffffffffffff160217905550615092806100676000396000f3fe6080604052600436106101ee5760003560e01c806390c3f38f1161010d578063c6db721e116100a0578063ddbfddb21161006f578063ddbfddb21461075a578063ee8c4bbf14610783578063f550ce86146107c1578063f58e35ff14610801578063f8ef09661461083e576101ee565b8063c6db721e1461068a578063c87dcb83146106c9578063d1e074b8146106f4578063d946dfe01461071d576101ee565b8063b7750532116100dc578063b7750532146105e2578063b988997f1461060b578063b9e2ad5014610634578063c45a01551461065f576101ee565b806390c3f38f14610500578063a5fa10f214610529578063b579d36814610566578063b6a9f40f146105a3576101ee565b806356ff31221161018557806371343caa1161015457806371343caa1461042f57806380c836991461045857806381d12c58146104955780638b250740146104d5576101ee565b806356ff31221461037c5780635badbe4c146103ab5780635df81330146103d65780636d2008a514610413576101ee565b806327dbe5eb116101c157806327dbe5eb146102c25780633e362c96146102ff5780634202a24f1461032a578063499f1d3a14610353576101ee565b80630121b93f146101f357806305d8f4b51461021c57806308ae4b0c1461024757806309e63d2514610284575b600080fd5b3480156101ff57600080fd5b5061021a600480360381019061021591906132e8565b610869565b005b34801561022857600080fd5b50610231610923565b60405161023e9190613324565b60405180910390f35b34801561025357600080fd5b5061026e6004803603810190610269919061339d565b610929565b60405161027b91906133e5565b60405180910390f35b34801561029057600080fd5b506102ab60048036038101906102a69190613400565b610949565b6040516102b992919061350b565b60405180910390f35b3480156102ce57600080fd5b506102e960048036038101906102e491906132e8565b610a0f565b6040516102f69190613324565b60405180910390f35b34801561030b57600080fd5b50610314610a27565b6040516103219190613324565b60405180910390f35b34801561033657600080fd5b50610351600480360381019061034c91906132e8565b610a2d565b005b34801561035f57600080fd5b5061037a6004803603810190610375919061353b565b610aca565b005b34801561038857600080fd5b50610391610d75565b6040516103a295949392919061358a565b60405180910390f35b3480156103b757600080fd5b506103c0610f5e565b6040516103cd9190613324565b60405180910390f35b3480156103e257600080fd5b506103fd60048036038101906103f891906132e8565b610f64565b60405161040a9190613324565b60405180910390f35b61042d60048036038101906104289190613727565b610f7c565b005b34801561043b57600080fd5b5061045660048036038101906104519190613a1e565b611131565b005b34801561046457600080fd5b5061047f600480360381019061047a9190613abd565b61154f565b60405161048c9190613b3f565b60405180910390f35b3480156104a157600080fd5b506104bc60048036038101906104b791906132e8565b61176e565b6040516104cc9493929190613b61565b60405180910390f35b3480156104e157600080fd5b506104ea6117cb565b6040516104f79190613324565b60405180910390f35b34801561050c57600080fd5b5061052760048036038101906105229190613ba6565b6117d1565b005b34801561053557600080fd5b50610550600480360381019061054b9190613abd565b61187a565b60405161055d9190613bef565b60405180910390f35b34801561057257600080fd5b5061058d6004803603810190610588919061339d565b61191a565b60405161059a9190613324565b60405180910390f35b3480156105af57600080fd5b506105ca60048036038101906105c591906132e8565b611932565b6040516105d993929190613c11565b60405180910390f35b3480156105ee57600080fd5b5061060960048036038101906106049190613c56565b611a79565b005b34801561061757600080fd5b50610632600480360381019061062d91906132e8565b611c34565b005b34801561064057600080fd5b50610649611d4d565b6040516106569190613324565b60405180910390f35b34801561066b57600080fd5b50610674611d53565b6040516106819190613d25565b60405180910390f35b34801561069657600080fd5b506106b160048036038101906106ac91906132e8565b611d79565b6040516106c093929190613d40565b60405180910390f35b3480156106d557600080fd5b506106de611eb3565b6040516106eb9190613d85565b60405180910390f35b34801561070057600080fd5b5061071b60048036038101906107169190613da0565b611ecd565b005b34801561072957600080fd5b50610744600480360381019061073f91906132e8565b61201f565b6040516107519190613d25565b60405180910390f35b34801561076657600080fd5b50610781600480360381019061077c9190613f0c565b612052565b005b34801561078f57600080fd5b506107aa60048036038101906107a591906132e8565b6123ab565b6040516107b8929190614034565b60405180910390f35b3480156107cd57600080fd5b506107e860048036038101906107e39190613400565b612521565b6040516107f89493929190613b61565b60405180910390f35b34801561080d57600080fd5b5061082860048036038101906108239190613abd565b61258b565b60405161083591906133e5565b60405180910390f35b34801561084a57600080fd5b506108536125ab565b6040516108609190614106565b60405180910390f35b600560003373ffffffffffffffffffffffffffffffffffffffff1673ffffffffffffffffffffffffffffffffffffffff16815260200190815260200160002060009054906101000a900460ff166108f5576040517f08c379a00000000000000000000000000000000000000000000000000000000081526004016108ec90614174565b60405180910390fd5b600160066000838152602001908152602001600020600082825461091991906141c3565b9250508190555050565b60075481565b60056020528060005260406000206000915054906101000a900460ff1681565b60126020528160005260406000206020528060005260406000206000915091505080600001805461097990614226565b80601f01602080910402602001604051908101604052809291908181526020018280546109a590614226565b80156109f25780601f106109c7576101008083540402835291602001916109f2565b820191906000526020600020905b8154815290600101906020018083116109d557829003601f168201915b5050505050908060010160009054906101000a900460601b905082565b60036020528060005260406000206000915090505481565b60005481565b600960000160009054906101000a900473ffffffffffffffffffffffffffffffffffffffff1673ffffffffffffffffffffffffffffffffffffffff163373ffffffffffffffffffffffffffffffffffffffff1614610ac0576040517f08c379a0000000000000000000000000000000000000000000000000000000008152600401610ab7906142a3565b60405180910390fd5b8060078190555050565b6001600460008381526020019081526020016000206002015414610b23576040517f08c379a0000000000000000000000000000000000000000000000000000000008152600401610b1a9061430f565b60405180910390fd5b600060405180608001604052803373ffffffffffffffffffffffffffffffffffffffff168152602001848152602001838152602001601260003373ffffffffffffffffffffffffffffffffffffffff1673ffffffffffffffffffffffffffffffffffffffff168152602001908152602001600020600086815260200190815260200160002060010160009054906101000a900460601b6bffffffffffffffffffffffff1916815250905080601360003373ffffffffffffffffffffffffffffffffffffffff1673ffffffffffffffffffffffffffffffffffffffff168152602001908152602001600020600085815260200190815260200160002060008201518160000160006101000a81548173ffffffffffffffffffffffffffffffffffffffff021916908373ffffffffffffffffffffffffffffffffffffffff160217905550602082015181600101556040820151816002015560608201518160030160006101000a81548173ffffffffffffffffffffffffffffffffffffffff021916908360601c021790555090505080600f6000600e54815260200190815260200160002060008201518160000160006101000a81548173ffffffffffffffffffffffffffffffffffffffff021916908373ffffffffffffffffffffffffffffffffffffffff160217905550602082015181600101556040820151816002015560608201518160030160006101000a81548173ffffffffffffffffffffffffffffffffffffffff021916908360601c0217905550905050600e6000815480929190610d6b9061432f565b9190505550505050565b60098060000160009054906101000a900473ffffffffffffffffffffffffffffffffffffffff16908060010160009054906101000a900460601b90806002018054610dbf90614226565b80601f0160208091040260200160405190810160405280929190818152602001828054610deb90614226565b8015610e385780601f10610e0d57610100808354040283529160200191610e38565b820191906000526020600020905b815481529060010190602001808311610e1b57829003601f168201915b505050505090806003018054610e4d90614226565b80601f0160208091040260200160405190810160405280929190818152602001828054610e7990614226565b8015610ec65780601f10610e9b57610100808354040283529160200191610ec6565b820191906000526020600020905b815481529060010190602001808311610ea957829003601f168201915b505050505090806004018054610edb90614226565b80601f0160208091040260200160405190810160405280929190818152602001828054610f0790614226565b8015610f545780601f10610f2957610100808354040283529160200191610f54565b820191906000526020600020905b815481529060010190602001808311610f3757829003601f168201915b5050505050905085565b600e5481565b60066020528060005260406000206000915090505481565b60003403610fbf576040517f08c379a0000000000000000000000000000000000000000000000000000000008152600401610fb6906143e9565b60405180910390fd5b33600260008054815260200190815260200160002060006101000a81548173ffffffffffffffffffffffffffffffffffffffff021916908373ffffffffffffffffffffffffffffffffffffffff16021790555034600360008054815260200190815260200160002081905550604051806060016040528083815260200182815260200160018152506004600080548152602001908152602001600020600082015181600001908161107091906145b5565b50602082015181600101908161108691906145b5565b50604082015181600201559050506000808154809291906110a69061432f565b9190505550600360008054815260200190815260200160002054600160008282546110d191906141c3565b925050819055503373ffffffffffffffffffffffffffffffffffffffff166000547fea57c46a6e57ddb9af4c62ad771ca42aacde886527f79e093eb4991bae0b7fa634858560405161112593929190614687565b60405180910390a35050565b81600960000160009054906101000a900473ffffffffffffffffffffffffffffffffffffffff1673ffffffffffffffffffffffffffffffffffffffff163373ffffffffffffffffffffffffffffffffffffffff1614806111a557506007546006600083815260200190815260200160002054115b6111e4576040517f08c379a00000000000000000000000000000000000000000000000000000000081526004016111db90614718565b60405180910390fd5b6111ed85612806565b6bffffffffffffffffffffffff191685600001516bffffffffffffffffffffffff191614611250576040517f08c379a000000000000000000000000000000000000000000000000000000000815260040161124790614784565b60405180910390fd5b600960010160009054906101000a900460601b6bffffffffffffffffffffffff1916856060015160008151811061128a576112896147a4565b5b60200260200101516bffffffffffffffffffffffff1916146112e1576040517f08c379a00000000000000000000000000000000000000000000000000000000081526004016112d89061481f565b60405180910390fd5b601260008573ffffffffffffffffffffffffffffffffffffffff1673ffffffffffffffffffffffffffffffffffffffff168152602001908152602001600020600084815260200190815260200160002060010160009054906101000a900460601b6bffffffffffffffffffffffff19168560600151600181518110611369576113686147a4565b5b60200260200101516bffffffffffffffffffffffff1916146113c0576040517f08c379a00000000000000000000000000000000000000000000000000000000081526004016113b7906148b1565b60405180910390fd5b8460000151600960010160006101000a81548173ffffffffffffffffffffffffffffffffffffffff021916908360601c021790555060016014600087600001516bffffffffffffffffffffffff19166bffffffffffffffffffffffff1916815260200190815260200160002060006101000a81548160ff021916908315150217905550816010600087600001516bffffffffffffffffffffffff19166bffffffffffffffffffffffff19168152602001908152602001600020908161148591906145b5565b506000601360008673ffffffffffffffffffffffffffffffffffffffff1673ffffffffffffffffffffffffffffffffffffffff1681526020019081526020016000206000858152602001908152602001600020600201541461153f5761153e601360008673ffffffffffffffffffffffffffffffffffffffff1673ffffffffffffffffffffffffffffffffffffffff16815260200190815260200160002060008581526020019081526020016000206002015485612ab2565b5b61154884612cbf565b5050505050565b606060006040518060400160405280601081526020017f303132333435363738396162636465660000000000000000000000000000000081525090506000602867ffffffffffffffff8111156115a8576115a76135fc565b5b6040519080825280601f01601f1916602001820160405280156115da5781602001600182028036833780820191505090505b50905060005b6014811015611744578260048683601481106115ff576115fe6147a4565b5b1a60f81b7effffffffffffffffffffffffffffffffffffffffffffffffffffffffffffff1916901c60f81c60ff168151811061163e5761163d6147a4565b5b602001015160f81c60f81b8260028361165791906148d1565b81518110611668576116676147a4565b5b60200101907effffffffffffffffffffffffffffffffffffffffffffffffffffffffffffff1916908160001a90535082600f60f81b8683601481106116b0576116af6147a4565b5b1a60f81b1660f81c60ff16815181106116cc576116cb6147a4565b5b602001015160f81c60f81b826002836116e591906148d1565b60016116f191906141c3565b81518110611702576117016147a4565b5b60200101907effffffffffffffffffffffffffffffffffffffffffffffffffffffffffffff1916908160001a905350808061173c9061432f565b9150506115e0565b5080604051602001611756919061494f565b60405160208183030381529060405292505050919050565b600f6020528060005260406000206000915090508060000160009054906101000a900473ffffffffffffffffffffffffffffffffffffffff16908060010154908060020154908060030160009054906101000a900460601b905084565b60015481565b600960000160009054906101000a900473ffffffffffffffffffffffffffffffffffffffff1673ffffffffffffffffffffffffffffffffffffffff163373ffffffffffffffffffffffffffffffffffffffff1614611864576040517f08c379a000000000000000000000000000000000000000000000000000000000815260040161185b906149b2565b60405180910390fd5b806009600301908161187691906145b5565b5050565b6010602052806000526040600020600091509050805461189990614226565b80601f01602080910402602001604051908101604052809291908181526020018280546118c590614226565b80156119125780601f106118e757610100808354040283529160200191611912565b820191906000526020600020905b8154815290600101906020018083116118f557829003601f168201915b505050505081565b60116020528060005260406000206000915090505481565b60156020528060005260406000206000915090508060000160009054906101000a900460601b9080600101805461196890614226565b80601f016020809104026020016040519081016040528092919081815260200182805461199490614226565b80156119e15780601f106119b6576101008083540402835291602001916119e1565b820191906000526020600020905b8154815290600101906020018083116119c457829003601f168201915b5050505050908060020180546119f690614226565b80601f0160208091040260200160405190810160405280929190818152602001828054611a2290614226565b8015611a6f5780601f10611a4457610100808354040283529160200191611a6f565b820191906000526020600020905b815481529060010190602001808311611a5257829003601f168201915b5050505050905083565b600860009054906101000a900473ffffffffffffffffffffffffffffffffffffffff1673ffffffffffffffffffffffffffffffffffffffff163373ffffffffffffffffffffffffffffffffffffffff1614611b09576040517f08c379a0000000000000000000000000000000000000000000000000000000008152600401611b00906149b2565b60405180910390fd5b84600960000160006101000a81548173ffffffffffffffffffffffffffffffffffffffff021916908373ffffffffffffffffffffffffffffffffffffffff16021790555083600960010160006101000a81548173ffffffffffffffffffffffffffffffffffffffff021916908360601c02179055508260096002019081611b9091906145b5565b508060096004019081611ba391906145b5565b508160106000866bffffffffffffffffffffffff19166bffffffffffffffffffffffff191681526020019081526020016000209081611be291906145b5565b50600160146000866bffffffffffffffffffffffff19166bffffffffffffffffffffffff1916815260200190815260200160002060006101000a81548160ff0219169083151502179055505050505050565b6002600082815260200190815260200160002060009054906101000a900473ffffffffffffffffffffffffffffffffffffffff1673ffffffffffffffffffffffffffffffffffffffff163373ffffffffffffffffffffffffffffffffffffffff1614611cd5576040517f08c379a0000000000000000000000000000000000000000000000000000000008152600401611ccc90614a44565b60405180910390fd5b6001600460008381526020019081526020016000206002015414611d2e576040517f08c379a0000000000000000000000000000000000000000000000000000000008152600401611d2590614ab0565b60405180910390fd5b6000600460008381526020019081526020016000206002018190555050565b60165481565b600860009054906101000a900473ffffffffffffffffffffffffffffffffffffffff1681565b6004602052806000526040600020600091509050806000018054611d9c90614226565b80601f0160208091040260200160405190810160405280929190818152602001828054611dc890614226565b8015611e155780601f10611dea57610100808354040283529160200191611e15565b820191906000526020600020905b815481529060010190602001808311611df857829003601f168201915b505050505090806001018054611e2a90614226565b80601f0160208091040260200160405190810160405280929190818152602001828054611e5690614226565b8015611ea35780601f10611e7857610100808354040283529160200191611ea3565b820191906000526020600020905b815481529060010190602001808311611e8657829003601f168201915b5050505050908060020154905083565b6000600960010160009054906101000a900460601b905090565b600960000160009054906101000a900473ffffffffffffffffffffffffffffffffffffffff1673ffffffffffffffffffffffffffffffffffffffff163373ffffffffffffffffffffffffffffffffffffffff1614611f60576040517f08c379a0000000000000000000000000000000000000000000000000000000008152600401611f57906149b2565b60405180910390fd5b6040518060600160405280826bffffffffffffffffffffffff191681526020018481526020018381525060156000601654815260200190815260200160002060008201518160000160006101000a81548173ffffffffffffffffffffffffffffffffffffffff021916908360601c02179055506020820151816001019081611fe891906145b5565b506040820151816002019081611ffe91906145b5565b50905050601660008154809291906120159061432f565b9190505550505050565b60026020528060005260406000206000915054906101000a900473ffffffffffffffffffffffffffffffffffffffff1681565b60011515601460008460008151811061206e5761206d6147a4565b5b60200260200101516060015160008151811061208d5761208c6147a4565b5b60200260200101516bffffffffffffffffffffffff19166bffffffffffffffffffffffff1916815260200190815260200160002060009054906101000a900460ff16151514612111576040517f08c379a000000000000000000000000000000000000000000000000000000000815260040161210890614b1c565b60405180910390fd5b60005b82518110156121d057612140838281518110612133576121326147a4565b5b6020026020010151612806565b6bffffffffffffffffffffffff1916838281518110612162576121616147a4565b5b6020026020010151600001516bffffffffffffffffffffffff1916146121bd576040517f08c379a00000000000000000000000000000000000000000000000000000000081526004016121b490614bae565b60405180910390fd5b80806121c89061432f565b915050612114565b506000604051806040016040528083815260200184600186516121f39190614bce565b81518110612204576122036147a4565b5b6020026020010151600001516bffffffffffffffffffffffff191681525090506000601160003373ffffffffffffffffffffffffffffffffffffffff1673ffffffffffffffffffffffffffffffffffffffff16815260200190815260200160002054905081601260003373ffffffffffffffffffffffffffffffffffffffff1673ffffffffffffffffffffffffffffffffffffffff168152602001908152602001600020600083815260200190815260200160002060008201518160000190816122ce91906145b5565b5060208201518160010160006101000a81548173ffffffffffffffffffffffffffffffffffffffff021916908360601c021790555090505060018161231391906141c3565b601160003373ffffffffffffffffffffffffffffffffffffffff1673ffffffffffffffffffffffffffffffffffffffff16815260200190815260200160002081905550803373ffffffffffffffffffffffffffffffffffffffff167fcaf6ec1639cb299da0e0bb70cc2a7ecd67b5df8d91fd3ff455723ab950c8179e8460405161239d9190614c3f565b60405180910390a350505050565b6123b3613229565b6000600460008481526020019081526020016000206003600085815260200190815260200160002054816040518060600160405290816000820180546123f890614226565b80601f016020809104026020016040519081016040528092919081815260200182805461242490614226565b80156124715780601f1061244657610100808354040283529160200191612471565b820191906000526020600020905b81548152906001019060200180831161245457829003601f168201915b5050505050815260200160018201805461248a90614226565b80601f01602080910402602001604051908101604052809291908181526020018280546124b690614226565b80156125035780601f106124d857610100808354040283529160200191612503565b820191906000526020600020905b8154815290600101906020018083116124e657829003601f168201915b50505050508152602001600282015481525050915091509150915091565b6013602052816000526040600020602052806000526040600020600091509150508060000160009054906101000a900473ffffffffffffffffffffffffffffffffffffffff16908060010154908060020154908060030160009054906101000a900460601b905084565b60146020528060005260406000206000915054906101000a900460ff1681565b6125b361324a565b60096040518060a00160405290816000820160009054906101000a900473ffffffffffffffffffffffffffffffffffffffff1673ffffffffffffffffffffffffffffffffffffffff1673ffffffffffffffffffffffffffffffffffffffff1681526020016001820160009054906101000a900460601b6bffffffffffffffffffffffff19166bffffffffffffffffffffffff1916815260200160028201805461265b90614226565b80601f016020809104026020016040519081016040528092919081815260200182805461268790614226565b80156126d45780601f106126a9576101008083540402835291602001916126d4565b820191906000526020600020905b8154815290600101906020018083116126b757829003601f168201915b505050505081526020016003820180546126ed90614226565b80601f016020809104026020016040519081016040528092919081815260200182805461271990614226565b80156127665780601f1061273b57610100808354040283529160200191612766565b820191906000526020600020905b81548152906001019060200180831161274957829003601f168201915b5050505050815260200160048201805461277f90614226565b80601f01602080910402602001604051908101604052809291908181526020018280546127ab90614226565b80156127f85780601f106127cd576101008083540402835291602001916127f8565b820191906000526020600020905b8154815290600101906020018083116127db57829003601f168201915b505050505081525050905090565b6000806040518060400160405280600781526020017f636f6d6d697420000000000000000000000000000000000000000000000000008152508360200151604051602001612854919061494f565b604051602081830303815290604052604051602001612874929190614c61565b604051602081830303815290604052905060006040518060400160405280600581526020017f74726565200000000000000000000000000000000000000000000000000000008152506128ca856040015161154f565b6040518060400160405280600181526020017f0a0000000000000000000000000000000000000000000000000000000000000081525060405160200161291293929190614c85565b6040516020818303038152906040529050600060405180602001604052806000815250905060005b856060015151811015612a1257816040518060400160405280600781526020017f706172656e7420000000000000000000000000000000000000000000000000008152506129a588606001518481518110612998576129976147a4565b5b602002602001015161154f565b6040518060400160405280600181526020017f0a000000000000000000000000000000000000000000000000000000000000008152506040516020016129ee9493929190614cb6565b60405160208183030381529060405291508080612a0a9061432f565b91505061293a565b5060008383838860800151604051602001612a309493929190614cb6565b6040516020818303038152906040529050612a4a81612d1a565b6bffffffffffffffffffffffff19167f9c608e5eff4308e47106ab495c748192feb1171b3f68b9e1ae3ede2c66c79fb6878686868b6080015187604051612a9696959493929190614ebd565b60405180910390a2612aa781612d1a565b945050505050919050565b6001600460008481526020019081526020016000206002015414612b0b576040517f08c379a0000000000000000000000000000000000000000000000000000000008152600401612b0290614ab0565b60405180910390fd5b600073ffffffffffffffffffffffffffffffffffffffff168173ffffffffffffffffffffffffffffffffffffffff1603612b7a576040517f08c379a0000000000000000000000000000000000000000000000000000000008152600401612b7190614fa7565b60405180910390fd5b60006003600084815260200190815260200160002054905060008111612bd5576040517f08c379a0000000000000000000000000000000000000000000000000000000008152600401612bcc90615013565b60405180910390fd5b60006004600085815260200190815260200160002060020181905550600060036000858152602001908152602001600020819055508173ffffffffffffffffffffffffffffffffffffffff166108fc829081150290604051600060405180830381858888f19350505050158015612c50573d6000803e3d6000fd5b508060016000828254612c639190614bce565b925050819055508173ffffffffffffffffffffffffffffffffffffffff167f6f2a92c4e9230e27c5995450a0ecb9db9ae19e5616d79cd7836ad822daee99fd8483604051612cb2929190615033565b60405180910390a2505050565b6001600560008373ffffffffffffffffffffffffffffffffffffffff1673ffffffffffffffffffffffffffffffffffffffff16815260200190815260200160002060006101000a81548160ff02191690831515021790555050565b60006040518251602084019350604067ffffffffffffffc060018301160160098282031060018103612d4d576040820191505b50776745230100efcdab890098badcfe001032547600c3d2e1f0612da5565b600083831015612d9e5782820151905082840393506020841015612d9d576001846020036101000a03198082169150505b5b9392505050565b60005b828110156131a957612dbb848289612d6c565b8552612dcb846020830189612d6c565b602086015260408185031060018103612de75760808286038701535b5060408303811460018103612e06576008850260208701511760208701525b5060405b6080811015612e925760408103860151603882038701511860208203870151600c830388015118187c010000000100000001000000010000000100000001000000010000000163800000008204167ffffffffefffffffefffffffefffffffefffffffefffffffefffffffefffffffe6002830216179050808288015250600c81019050612e0a565b5060805b610140811015612f1f57608081038601516070820387015118604082038701516018830388015118187c030000000300000003000000030000000300000003000000030000000363400000008204167ffffffffcfffffffcfffffffcfffffffcfffffffcfffffffcfffffffcfffffffc6004830216179050808288015250601881019050612e96565b508160008060005b605081101561317b576014810460008114612f595760018114612fa35760028114612fe057600381146130435761307c565b6501000000000085046a01000000000000000000008604189350836f01000000000000000000000000000000860416935083650100000000008604189350635a827999925061307c565b6a010000000000000000000085046f01000000000000000000000000000000860418935083650100000000008604189350636ed9eba1925061307c565b6a010000000000000000000085046f01000000000000000000000000000000860417935083650100000000008604169350836a010000000000000000000086046f01000000000000000000000000000000870416179350638f1bbcdc925061307c565b6a010000000000000000000085046f0100000000000000000000000000000086041893508365010000000000860418935063ca62c1d692505b50601f770800000000000000000000000000000000000000000000008504168063ffffffe073080000000000000000000000000000000000000087041617905080840190508063ffffffff86160190508083019050807c0100000000000000000000000000000000000000000000000000000000600484028c0151040190507401000000000000000000000000000000000000000081026501000000000086041794506a0100000000000000000000633fffffff6a040000000000000000000087041663c00000006604000000000000880416170277ffffffff00ffffffff000000000000ffffffff00ffffffff861617945050600181019050612f27565b5077ffffffff00ffffffff00ffffffff00ffffffff00ffffffff838601169450505050604081019050612da8565b506c0100000000000000000000000063ffffffff821667ffffffff000000006101008404166bffffffff0000000000000000620100008504166fffffffff000000000000000000000000630100000086041673ffffffff000000000000000000000000000000006401000000008704161717171702945050505050919050565b60405180606001604052806060815260200160608152602001600081525090565b6040518060a00160405280600073ffffffffffffffffffffffffffffffffffffffff16815260200160006bffffffffffffffffffffffff191681526020016060815260200160608152602001606081525090565b6000604051905090565b600080fd5b600080fd5b6000819050919050565b6132c5816132b2565b81146132d057600080fd5b50565b6000813590506132e2816132bc565b92915050565b6000602082840312156132fe576132fd6132a8565b5b600061330c848285016132d3565b91505092915050565b61331e816132b2565b82525050565b60006020820190506133396000830184613315565b92915050565b600073ffffffffffffffffffffffffffffffffffffffff82169050919050565b600061336a8261333f565b9050919050565b61337a8161335f565b811461338557600080fd5b50565b60008135905061339781613371565b92915050565b6000602082840312156133b3576133b26132a8565b5b60006133c184828501613388565b91505092915050565b60008115159050919050565b6133df816133ca565b82525050565b60006020820190506133fa60008301846133d6565b92915050565b60008060408385031215613417576134166132a8565b5b600061342585828601613388565b9250506020613436858286016132d3565b9150509250929050565b600081519050919050565b600082825260208201905092915050565b60005b8381101561347a57808201518184015260208101905061345f565b60008484015250505050565b6000601f19601f8301169050919050565b60006134a282613440565b6134ac818561344b565b93506134bc81856020860161345c565b6134c581613486565b840191505092915050565b60007fffffffffffffffffffffffffffffffffffffffff00000000000000000000000082169050919050565b613505816134d0565b82525050565b600060408201905081810360008301526135258185613497565b905061353460208301846134fc565b9392505050565b60008060408385031215613552576135516132a8565b5b6000613560858286016132d3565b9250506020613571858286016132d3565b9150509250929050565b6135848161335f565b82525050565b600060a08201905061359f600083018861357b565b6135ac60208301876134fc565b81810360408301526135be8186613497565b905081810360608301526135d28185613497565b905081810360808301526135e68184613497565b90509695505050505050565b600080fd5b600080fd5b7f4e487b7100000000000000000000000000000000000000000000000000000000600052604160045260246000fd5b61363482613486565b810181811067ffffffffffffffff82111715613653576136526135fc565b5b80604052505050565b600061366661329e565b9050613672828261362b565b919050565b600067ffffffffffffffff821115613692576136916135fc565b5b61369b82613486565b9050602081019050919050565b82818337600083830152505050565b60006136ca6136c584613677565b61365c565b9050828152602081018484840111156136e6576136e56135f7565b5b6136f18482856136a8565b509392505050565b600082601f83011261370e5761370d6135f2565b5b813561371e8482602086016136b7565b91505092915050565b6000806040838503121561373e5761373d6132a8565b5b600083013567ffffffffffffffff81111561375c5761375b6132ad565b5b613768858286016136f9565b925050602083013567ffffffffffffffff811115613789576137886132ad565b5b613795858286016136f9565b9150509250929050565b600080fd5b600080fd5b6137b2816134d0565b81146137bd57600080fd5b50565b6000813590506137cf816137a9565b92915050565b600067ffffffffffffffff8211156137f0576137ef6135fc565b5b6137f982613486565b9050602081019050919050565b6000613819613814846137d5565b61365c565b905082815260208101848484011115613835576138346135f7565b5b6138408482856136a8565b509392505050565b600082601f83011261385d5761385c6135f2565b5b813561386d848260208601613806565b91505092915050565b600067ffffffffffffffff821115613891576138906135fc565b5b602082029050602081019050919050565b600080fd5b60006138ba6138b584613876565b61365c565b905080838252602082019050602084028301858111156138dd576138dc6138a2565b5b835b8181101561390657806138f288826137c0565b8452602084019350506020810190506138df565b5050509392505050565b600082601f830112613925576139246135f2565b5b81356139358482602086016138a7565b91505092915050565b600060a082840312156139545761395361379f565b5b61395e60a061365c565b9050600061396e848285016137c0565b600083015250602082013567ffffffffffffffff811115613992576139916137a4565b5b61399e84828501613848565b60208301525060406139b2848285016137c0565b604083015250606082013567ffffffffffffffff8111156139d6576139d56137a4565b5b6139e284828501613910565b606083015250608082013567ffffffffffffffff811115613a0657613a056137a4565b5b613a1284828501613848565b60808301525092915050565b60008060008060808587031215613a3857613a376132a8565b5b600085013567ffffffffffffffff811115613a5657613a556132ad565b5b613a628782880161393e565b9450506020613a7387828801613388565b9350506040613a84878288016132d3565b925050606085013567ffffffffffffffff811115613aa557613aa46132ad565b5b613ab1878288016136f9565b91505092959194509250565b600060208284031215613ad357613ad26132a8565b5b6000613ae1848285016137c0565b91505092915050565b600081519050919050565b600082825260208201905092915050565b6000613b1182613aea565b613b1b8185613af5565b9350613b2b81856020860161345c565b613b3481613486565b840191505092915050565b60006020820190508181036000830152613b598184613b06565b905092915050565b6000608082019050613b76600083018761357b565b613b836020830186613315565b613b906040830185613315565b613b9d60608301846134fc565b95945050505050565b600060208284031215613bbc57613bbb6132a8565b5b600082013567ffffffffffffffff811115613bda57613bd96132ad565b5b613be6848285016136f9565b91505092915050565b60006020820190508181036000830152613c098184613497565b905092915050565b6000606082019050613c2660008301866134fc565b8181036020830152613c388185613497565b90508181036040830152613c4c8184613497565b9050949350505050565b600080600080600060a08688031215613c7257613c716132a8565b5b6000613c8088828901613388565b9550506020613c91888289016137c0565b945050604086013567ffffffffffffffff811115613cb257613cb16132ad565b5b613cbe888289016136f9565b935050606086013567ffffffffffffffff811115613cdf57613cde6132ad565b5b613ceb888289016136f9565b925050608086013567ffffffffffffffff811115613d0c57613d0b6132ad565b5b613d18888289016136f9565b9150509295509295909350565b6000602082019050613d3a600083018461357b565b92915050565b60006060820190508181036000830152613d5a8186613497565b90508181036020830152613d6e8185613497565b9050613d7d6040830184613315565b949350505050565b6000602082019050613d9a60008301846134fc565b92915050565b600080600060608486031215613db957613db86132a8565b5b600084013567ffffffffffffffff811115613dd757613dd66132ad565b5b613de3868287016136f9565b935050602084013567ffffffffffffffff811115613e0457613e036132ad565b5b613e10868287016136f9565b9250506040613e21868287016137c0565b9150509250925092565b600067ffffffffffffffff821115613e4657613e456135fc565b5b602082029050602081019050919050565b6000613e6a613e6584613e2b565b61365c565b90508083825260208201905060208402830185811115613e8d57613e8c6138a2565b5b835b81811015613ed457803567ffffffffffffffff811115613eb257613eb16135f2565b5b808601613ebf898261393e565b85526020850194505050602081019050613e8f565b5050509392505050565b600082601f830112613ef357613ef26135f2565b5b8135613f03848260208601613e57565b91505092915050565b60008060408385031215613f2357613f226132a8565b5b600083013567ffffffffffffffff811115613f4157613f406132ad565b5b613f4d85828601613ede565b925050602083013567ffffffffffffffff811115613f6e57613f6d6132ad565b5b613f7a858286016136f9565b9150509250929050565b600082825260208201905092915050565b6000613fa082613440565b613faa8185613f84565b9350613fba81856020860161345c565b613fc381613486565b840191505092915050565b613fd7816132b2565b82525050565b60006060830160008301518482036000860152613ffa8282613f95565b915050602083015184820360208601526140148282613f95565b91505060408301516140296040860182613fce565b508091505092915050565b6000604082019050818103600083015261404e8185613fdd565b905061405d6020830184613315565b9392505050565b61406d8161335f565b82525050565b61407c816134d0565b82525050565b600060a08301600083015161409a6000860182614064565b5060208301516140ad6020860182614073565b50604083015184820360408601526140c58282613f95565b915050606083015184820360608601526140df8282613f95565b915050608083015184820360808601526140f98282613f95565b9150508091505092915050565b600060208201905081810360008301526141208184614082565b905092915050565b7f4e6f742061206d656d6265720000000000000000000000000000000000000000600082015250565b600061415e600c8361344b565b915061416982614128565b602082019050919050565b6000602082019050818103600083015261418d81614151565b9050919050565b7f4e487b7100000000000000000000000000000000000000000000000000000000600052601160045260246000fd5b60006141ce826132b2565b91506141d9836132b2565b92508282019050808211156141f1576141f0614194565b5b92915050565b7f4e487b7100000000000000000000000000000000000000000000000000000000600052602260045260246000fd5b6000600282049050600182168061423e57607f821691505b602082108103614251576142506141f7565b5b50919050565b7f466f7262696464656e0000000000000000000000000000000000000000000000600082015250565b600061428d60098361344b565b915061429882614257565b602082019050919050565b600060208201905081810360008301526142bc81614280565b9050919050565b7f626f756e747920697320636c6f736564206f72206e6f74206578697374000000600082015250565b60006142f9601d8361344b565b9150614304826142c3565b602082019050919050565b60006020820190508181036000830152614328816142ec565b9050919050565b600061433a826132b2565b91507fffffffffffffffffffffffffffffffffffffffffffffffffffffffffffffffff820361436c5761436b614194565b5b600182019050919050565b7f426f756e747920616d6f756e74206d757374206265206772656174657220746860008201527f616e203000000000000000000000000000000000000000000000000000000000602082015250565b60006143d360248361344b565b91506143de82614377565b604082019050919050565b60006020820190508181036000830152614402816143c6565b9050919050565b60008190508160005260206000209050919050565b60006020601f8301049050919050565b600082821b905092915050565b60006008830261446b7fffffffffffffffffffffffffffffffffffffffffffffffffffffffffffffffff8261442e565b614475868361442e565b95508019841693508086168417925050509392505050565b6000819050919050565b60006144b26144ad6144a8846132b2565b61448d565b6132b2565b9050919050565b6000819050919050565b6144cc83614497565b6144e06144d8826144b9565b84845461443b565b825550505050565b600090565b6144f56144e8565b6145008184846144c3565b505050565b5b81811015614524576145196000826144ed565b600181019050614506565b5050565b601f8211156145695761453a81614409565b6145438461441e565b81016020851015614552578190505b61456661455e8561441e565b830182614505565b50505b505050565b600082821c905092915050565b600061458c6000198460080261456e565b1980831691505092915050565b60006145a5838361457b565b9150826002028217905092915050565b6145be82613440565b67ffffffffffffffff8111156145d7576145d66135fc565b5b6145e18254614226565b6145ec828285614528565b600060209050601f83116001811461461f576000841561460d578287015190505b6146178582614599565b86555061467f565b601f19841661462d86614409565b60005b8281101561465557848901518255600182019150602085019450602081019050614630565b86831015614672578489015161466e601f89168261457b565b8355505b6001600288020188555050505b505050505050565b600060608201905061469c6000830186613315565b81810360208301526146ae8185613497565b905081810360408301526146c28184613497565b9050949350505050565b7f6f6e6c7920697373756572206f7220636f6465206f776e657200000000000000600082015250565b600061470260198361344b565b915061470d826146cc565b602082019050919050565b60006020820190508181036000830152614731816146f5565b9050919050565b7f6e65656420746f20706172656e7420746f2074686973206272616e6368000000600082015250565b600061476e601d8361344b565b915061477982614738565b602082019050919050565b6000602082019050818103600083015261479d81614761565b9050919050565b7f4e487b7100000000000000000000000000000000000000000000000000000000600052603260045260246000fd5b7f6e656564206d6572676520746f206d61696e206272616e636800000000000000600082015250565b600061480960198361344b565b9150614814826147d3565b602082019050919050565b60006020820190508181036000830152614838816147fc565b9050919050565b7f636f6e7475626572206973206e6f742073616d6520746f20636f6d6d6974207060008201527f6172656e74000000000000000000000000000000000000000000000000000000602082015250565b600061489b60258361344b565b91506148a68261483f565b604082019050919050565b600060208201905081810360008301526148ca8161488e565b9050919050565b60006148dc826132b2565b91506148e7836132b2565b92508282026148f5816132b2565b9150828204841483151761490c5761490b614194565b5b5092915050565b600081905092915050565b600061492982613aea565b6149338185614913565b935061494381856020860161345c565b80840191505092915050565b600061495b828461491e565b915081905092915050565b7f666f7262696464656e0000000000000000000000000000000000000000000000600082015250565b600061499c60098361344b565b91506149a782614966565b602082019050919050565b600060208201905081810360008301526149cb8161498f565b9050919050565b7f4f6e6c7920626f756e7479206f776e65722063616e20636c6f736520626f756e60008201527f7479000000000000000000000000000000000000000000000000000000000000602082015250565b6000614a2e60228361344b565b9150614a39826149d2565b604082019050919050565b60006020820190508181036000830152614a5d81614a21565b9050919050565b7f426f756e747920697320636c6f73656400000000000000000000000000000000600082015250565b6000614a9a60108361344b565b9150614aa582614a64565b602082019050919050565b60006020820190508181036000830152614ac981614a8d565b9050919050565b7f706172656e7420636f6d6d6974206e6f74206578697374000000000000000000600082015250565b6000614b0660178361344b565b9150614b1182614ad0565b602082019050919050565b60006020820190508181036000830152614b3581614af9565b9050919050565b7f6e65656420746f20706172656e7420746f2074686973207265706f206272616e60008201527f6368000000000000000000000000000000000000000000000000000000000000602082015250565b6000614b9860228361344b565b9150614ba382614b3c565b604082019050919050565b60006020820190508181036000830152614bc781614b8b565b9050919050565b6000614bd9826132b2565b9150614be4836132b2565b9250828203905081811115614bfc57614bfb614194565b5b92915050565b60006040830160008301518482036000860152614c1f8282613f95565b9150506020830151614c346020860182614073565b508091505092915050565b60006020820190508181036000830152614c598184614c02565b905092915050565b6000614c6d828561491e565b9150614c79828461491e565b91508190509392505050565b6000614c91828661491e565b9150614c9d828561491e565b9150614ca9828461491e565b9150819050949350505050565b6000614cc2828761491e565b9150614cce828661491e565b9150614cda828561491e565b9150614ce6828461491e565b915081905095945050505050565b600082825260208201905092915050565b6000614d1082613aea565b614d1a8185614cf4565b9350614d2a81856020860161345c565b614d3381613486565b840191505092915050565b600081519050919050565b600082825260208201905092915050565b6000819050602082019050919050565b6000614d768383614073565b60208301905092915050565b6000602082019050919050565b6000614d9a82614d3e565b614da48185614d49565b9350614daf83614d5a565b8060005b83811015614de0578151614dc78882614d6a565b9750614dd283614d82565b925050600181019050614db3565b5085935050505092915050565b600060a083016000830151614e056000860182614073565b5060208301518482036020860152614e1d8282614d05565b9150506040830151614e326040860182614073565b5060608301518482036060860152614e4a8282614d8f565b91505060808301518482036080860152614e648282614d05565b9150508091505092915050565b7f7465737420636f6d6d6974000000000000000000000000000000000000000000600082015250565b6000614ea7600b8361344b565b9150614eb282614e71565b602082019050919050565b600060e0820190508181036000830152614ed78189614ded565b90508181036020830152614eeb8188613b06565b90508181036040830152614eff8187613b06565b90508181036060830152614f138186613b06565b90508181036080830152614f278185613b06565b905081810360a0830152614f3b8184613b06565b905081810360c0830152614f4e81614e9a565b9050979650505050505050565b7f636f6e7472696275746f7220697320746865207a65726f206164647265737300600082015250565b6000614f91601f8361344b565b9150614f9c82614f5b565b602082019050919050565b60006020820190508181036000830152614fc081614f84565b9050919050565b7f426f756e747920616d6f756e74206973207a65726f0000000000000000000000600082015250565b6000614ffd60158361344b565b915061500882614fc7565b602082019050919050565b6000602082019050818103600083015261502c81614ff0565b9050919050565b60006040820190506150486000830185613315565b6150556020830184613315565b939250505056fea2646970667358221220f87328eec836bd5dead88754ef80a8cbc931d6aa895bf8da259ab02c4889ad3364736f6c63430008120033",
  "linkReferences": {},
  "deployedLinkReferences": {}
}