{
  "_format": "hh-sol-artifact-1",
  "contractName": "Git",
  "sourceName": "contracts/core/Git.sol",
  "abi": [
    {
      "inputs": [],
      "stateMutability": "payable",
      "type": "constructor"
    },
    {
      "anonymous": false,
      "inputs": [
        {
          "indexed": false,
          "internalType": "uint256",
          "name": "bountyId",
          "type": "uint256"
        },
        {
          "indexed": true,
          "internalType": "address",
          "name": "contributer",
          "type": "address"
        },
        {
          "indexed": false,
          "internalType": "uint256",
          "name": "amount",
          "type": "uint256"
        }
      ],
      "name": "BountyGiven",
      "type": "event"
    },
    {
      "anonymous": false,
      "inputs": [
        {
          "indexed": true,
          "internalType": "address",
          "name": "contributer",
          "type": "address"
        },
        {
          "indexed": true,
          "internalType": "uint256",
          "name": "contributeID",
          "type": "uint256"
        },
        {
          "components": [
            {
              "internalType": "string",
              "name": "cid",
              "type": "string"
            },
            {
              "internalType": "bytes20",
              "name": "sha",
              "type": "bytes20"
            }
          ],
          "indexed": false,
          "internalType": "struct Git.Bundle",
          "name": "bundle",
          "type": "tuple"
        }
      ],
      "name": "contribute",
      "type": "event"
    },
    {
      "anonymous": false,
      "inputs": [
        {
          "indexed": true,
          "internalType": "uint256",
          "name": "bountyId",
          "type": "uint256"
        },
        {
          "indexed": true,
          "internalType": "address",
          "name": "bountyOwner",
          "type": "address"
        },
        {
          "indexed": false,
          "internalType": "uint256",
          "name": "bountyAmount",
          "type": "uint256"
        },
        {
          "indexed": false,
          "internalType": "string",
          "name": "title",
          "type": "string"
        },
        {
          "indexed": false,
          "internalType": "string",
          "name": "description",
          "type": "string"
        }
      ],
      "name": "createBountyEvent",
      "type": "event"
    },
    {
      "anonymous": false,
      "inputs": [
        {
          "indexed": true,
          "internalType": "address",
          "name": "contributer",
          "type": "address"
        },
        {
          "components": [
            {
              "internalType": "string",
              "name": "cid",
              "type": "string"
            },
            {
              "internalType": "bytes20",
              "name": "sha",
              "type": "bytes20"
            }
          ],
          "indexed": true,
          "internalType": "struct Git.Bundle",
          "name": "bundle",
          "type": "tuple"
        }
      ],
      "name": "merged",
      "type": "event"
    },
    {
      "anonymous": false,
      "inputs": [
        {
          "indexed": true,
          "internalType": "bytes20",
          "name": "sha",
          "type": "bytes20"
        },
        {
          "components": [
            {
              "internalType": "bytes20",
              "name": "thisHash",
              "type": "bytes20"
            },
            {
              "internalType": "bytes",
              "name": "wordCount",
              "type": "bytes"
            },
            {
              "internalType": "bytes20",
              "name": "tree",
              "type": "bytes20"
            },
            {
              "internalType": "bytes20[]",
              "name": "parents",
              "type": "bytes20[]"
            },
            {
              "internalType": "bytes",
              "name": "message",
              "type": "bytes"
            }
          ],
          "indexed": false,
          "internalType": "struct Git.Commit",
          "name": "commit",
          "type": "tuple"
        },
        {
          "indexed": false,
          "internalType": "bytes",
          "name": "wc",
          "type": "bytes"
        },
        {
          "indexed": false,
          "internalType": "bytes",
          "name": "t",
          "type": "bytes"
        },
        {
          "indexed": false,
          "internalType": "bytes",
          "name": "parent",
          "type": "bytes"
        },
        {
          "indexed": false,
          "internalType": "bytes",
          "name": "message",
          "type": "bytes"
        },
        {
          "indexed": false,
          "internalType": "bytes",
          "name": "data",
          "type": "bytes"
        },
        {
          "indexed": false,
          "internalType": "string",
          "name": "msg",
          "type": "string"
        }
      ],
      "name": "test",
      "type": "event"
    },
    {
      "inputs": [
        {
          "internalType": "uint256",
          "name": "",
          "type": "uint256"
        }
      ],
      "name": "bountyAmount",
      "outputs": [
        {
          "internalType": "uint256",
          "name": "",
          "type": "uint256"
        }
      ],
      "stateMutability": "view",
      "type": "function"
    },
    {
      "inputs": [
        {
          "internalType": "uint256",
          "name": "",
          "type": "uint256"
        }
      ],
      "name": "bountyContent",
      "outputs": [
        {
          "internalType": "string",
          "name": "title",
          "type": "string"
        },
        {
          "internalType": "string",
          "name": "description",
          "type": "string"
        },
        {
          "internalType": "uint256",
          "name": "openStatus",
          "type": "uint256"
        }
      ],
      "stateMutability": "view",
      "type": "function"
    },
    {
      "inputs": [],
      "name": "bountyCount",
      "outputs": [
        {
          "internalType": "uint256",
          "name": "",
          "type": "uint256"
        }
      ],
      "stateMutability": "view",
      "type": "function"
    },
    {
      "inputs": [
        {
          "internalType": "uint256",
          "name": "",
          "type": "uint256"
        }
      ],
      "name": "bountyOwner",
      "outputs": [
        {
          "internalType": "address",
          "name": "",
          "type": "address"
        }
      ],
      "stateMutability": "view",
      "type": "function"
    },
    {
      "inputs": [],
      "name": "bountyTotalAmount",
      "outputs": [
        {
          "internalType": "uint256",
          "name": "",
          "type": "uint256"
        }
      ],
      "stateMutability": "view",
      "type": "function"
    },
    {
      "inputs": [
        {
          "internalType": "bytes20",
          "name": "_bytes",
          "type": "bytes20"
        }
      ],
      "name": "bytes20ToHexStr",
      "outputs": [
        {
          "internalType": "bytes",
          "name": "",
          "type": "bytes"
        }
      ],
      "stateMutability": "pure",
      "type": "function"
    },
    {
      "inputs": [
        {
          "internalType": "bytes20",
          "name": "",
          "type": "bytes20"
        }
      ],
      "name": "cid",
      "outputs": [
        {
          "internalType": "string",
          "name": "",
          "type": "string"
        }
      ],
      "stateMutability": "view",
      "type": "function"
    },
    {
      "inputs": [
        {
          "internalType": "uint256",
          "name": "bountyId",
          "type": "uint256"
        }
      ],
      "name": "closeBounty",
      "outputs": [],
      "stateMutability": "nonpayable",
      "type": "function"
    },
    {
      "inputs": [],
      "name": "codeOwner",
      "outputs": [
        {
          "internalType": "address",
          "name": "",
          "type": "address"
        }
      ],
      "stateMutability": "view",
      "type": "function"
    },
    {
      "inputs": [
        {
          "internalType": "address",
          "name": "",
          "type": "address"
        }
      ],
      "name": "contributeCount",
      "outputs": [
        {
          "internalType": "uint256",
          "name": "",
          "type": "uint256"
        }
      ],
      "stateMutability": "view",
      "type": "function"
    },
    {
      "inputs": [
        {
          "internalType": "address",
          "name": "",
          "type": "address"
        },
        {
          "internalType": "uint256",
          "name": "",
          "type": "uint256"
        }
      ],
      "name": "contributer",
      "outputs": [
        {
          "internalType": "string",
          "name": "cid",
          "type": "string"
        },
        {
          "internalType": "bytes20",
          "name": "sha",
          "type": "bytes20"
        }
      ],
      "stateMutability": "view",
      "type": "function"
    },
    {
      "inputs": [
        {
          "internalType": "address",
          "name": "",
          "type": "address"
        },
        {
          "internalType": "uint256",
          "name": "",
          "type": "uint256"
        }
      ],
      "name": "contributorRequest",
      "outputs": [
        {
          "internalType": "address",
          "name": "contributer",
          "type": "address"
        },
        {
          "internalType": "uint256",
          "name": "contributeId",
          "type": "uint256"
        },
        {
          "internalType": "uint256",
          "name": "linkBounty",
          "type": "uint256"
        },
        {
          "internalType": "bytes20",
          "name": "commitHash",
          "type": "bytes20"
        }
      ],
      "stateMutability": "view",
      "type": "function"
    },
    {
      "inputs": [
        {
          "internalType": "string",
          "name": "title",
          "type": "string"
        },
        {
          "internalType": "string",
          "name": "description",
          "type": "string"
        }
      ],
      "name": "createBounty",
      "outputs": [],
      "stateMutability": "payable",
      "type": "function"
    },
    {
      "inputs": [],
      "name": "factory",
      "outputs": [
        {
          "internalType": "address",
          "name": "",
          "type": "address"
        }
      ],
      "stateMutability": "view",
      "type": "function"
    },
    {
      "inputs": [
        {
          "internalType": "uint256",
          "name": "bountyId",
          "type": "uint256"
        }
      ],
      "name": "getBounty",
      "outputs": [
        {
          "components": [
            {
              "internalType": "string",
              "name": "title",
              "type": "string"
            },
            {
              "internalType": "string",
              "name": "description",
              "type": "string"
            },
            {
              "internalType": "uint256",
              "name": "openStatus",
              "type": "uint256"
            }
          ],
          "internalType": "struct Bounty.BountyContent",
          "name": "",
          "type": "tuple"
        },
        {
          "internalType": "uint256",
          "name": "",
          "type": "uint256"
        }
      ],
      "stateMutability": "view",
      "type": "function"
    },
    {
      "inputs": [],
      "name": "getLatestPack",
      "outputs": [
        {
          "internalType": "bytes20",
          "name": "",
          "type": "bytes20"
        }
      ],
      "stateMutability": "view",
      "type": "function"
    },
    {
      "inputs": [],
      "name": "getRepoContent",
      "outputs": [
        {
          "components": [
            {
              "internalType": "address",
              "name": "codeOwner",
              "type": "address"
            },
            {
              "internalType": "bytes20",
              "name": "latestCommit",
              "type": "bytes20"
            },
            {
              "internalType": "string",
              "name": "name",
              "type": "string"
            },
            {
              "internalType": "string",
              "name": "description",
              "type": "string"
            },
            {
              "internalType": "string",
              "name": "defaultBranch",
              "type": "string"
            }
          ],
          "internalType": "struct Git.Repo",
          "name": "",
          "type": "tuple"
        }
      ],
      "stateMutability": "view",
      "type": "function"
    },
    {
      "inputs": [
        {
          "internalType": "address",
          "name": "_codeOwner",
          "type": "address"
        },
        {
          "internalType": "bytes20",
          "name": "_commitHash",
          "type": "bytes20"
        },
        {
          "internalType": "string",
          "name": "_name",
          "type": "string"
        },
        {
          "internalType": "string",
          "name": "_cid",
          "type": "string"
        },
        {
          "internalType": "string",
          "name": "_defaultBranch",
          "type": "string"
        }
      ],
      "name": "initialize",
      "outputs": [],
      "stateMutability": "nonpayable",
      "type": "function"
    },
    {
      "inputs": [
        {
          "internalType": "bytes20",
          "name": "",
          "type": "bytes20"
        }
      ],
      "name": "mainCommitExist",
      "outputs": [
        {
          "internalType": "bool",
          "name": "",
          "type": "bool"
        }
      ],
      "stateMutability": "view",
      "type": "function"
    },
    {
      "inputs": [
        {
          "components": [
            {
              "internalType": "bytes20",
              "name": "thisHash",
              "type": "bytes20"
            },
            {
              "internalType": "bytes",
              "name": "wordCount",
              "type": "bytes"
            },
            {
              "internalType": "bytes20",
              "name": "tree",
              "type": "bytes20"
            },
            {
              "internalType": "bytes20[]",
              "name": "parents",
              "type": "bytes20[]"
            },
            {
              "internalType": "bytes",
              "name": "message",
              "type": "bytes"
            }
          ],
          "internalType": "struct Git.Commit",
          "name": "commit",
          "type": "tuple"
        },
        {
          "internalType": "address",
          "name": "_contributer",
          "type": "address"
        },
        {
          "internalType": "uint256",
          "name": "contributeId",
          "type": "uint256"
        },
        {
          "internalType": "string",
          "name": "_cid",
          "type": "string"
        }
      ],
      "name": "merge",
      "outputs": [],
      "stateMutability": "nonpayable",
      "type": "function"
    },
    {
      "inputs": [
        {
          "components": [
            {
              "internalType": "bytes20",
              "name": "thisHash",
              "type": "bytes20"
            },
            {
              "internalType": "bytes",
              "name": "wordCount",
              "type": "bytes"
            },
            {
              "internalType": "bytes20",
              "name": "tree",
              "type": "bytes20"
            },
            {
              "internalType": "bytes20[]",
              "name": "parents",
              "type": "bytes20[]"
            },
            {
              "internalType": "bytes",
              "name": "message",
              "type": "bytes"
            }
          ],
          "internalType": "struct Git.Commit[]",
          "name": "commits",
          "type": "tuple[]"
        },
        {
          "internalType": "string",
          "name": "_cid",
          "type": "string"
        }
      ],
      "name": "push",
      "outputs": [],
      "stateMutability": "nonpayable",
      "type": "function"
    },
    {
      "inputs": [],
      "name": "repo",
      "outputs": [
        {
          "internalType": "address",
          "name": "codeOwner",
          "type": "address"
        },
        {
          "internalType": "bytes20",
          "name": "latestCommit",
          "type": "bytes20"
        },
        {
          "internalType": "string",
          "name": "name",
          "type": "string"
        },
        {
          "internalType": "string",
          "name": "description",
          "type": "string"
        },
        {
          "internalType": "string",
          "name": "defaultBranch",
          "type": "string"
        }
      ],
      "stateMutability": "view",
      "type": "function"
    },
    {
      "inputs": [],
      "name": "requestCount",
      "outputs": [
        {
          "internalType": "uint256",
          "name": "",
          "type": "uint256"
        }
      ],
      "stateMutability": "view",
      "type": "function"
    },
    {
      "inputs": [
        {
          "internalType": "uint256",
          "name": "",
          "type": "uint256"
        }
      ],
      "name": "requests",
      "outputs": [
        {
          "internalType": "address",
          "name": "contributer",
          "type": "address"
        },
        {
          "internalType": "uint256",
          "name": "contributeId",
          "type": "uint256"
        },
        {
          "internalType": "uint256",
          "name": "linkBounty",
          "type": "uint256"
        },
        {
          "internalType": "bytes20",
          "name": "commitHash",
          "type": "bytes20"
        }
      ],
      "stateMutability": "view",
      "type": "function"
    },
    {
      "inputs": [
        {
          "internalType": "uint256",
          "name": "contributeId",
          "type": "uint256"
        },
        {
          "internalType": "uint256",
          "name": "bountyId",
          "type": "uint256"
        }
      ],
      "name": "rewardRequest",
      "outputs": [],
      "stateMutability": "nonpayable",
      "type": "function"
    },
    {
      "inputs": [
        {
          "internalType": "string",
          "name": "_description",
          "type": "string"
        }
      ],
      "name": "setDescription",
      "outputs": [],
      "stateMutability": "nonpayable",
      "type": "function"
    }
  ],
  "bytecode": "0x60806040526000805560006001556000600c5533600560006101000a81548173ffffffffffffffffffffffffffffffffffffffff021916908373ffffffffffffffffffffffffffffffffffffffff1602179055506149a9806100626000396000f3fe6080604052600436106101815760003560e01c8063a5fa10f2116100d1578063c87dcb831161008a578063ee8c4bbf11610064578063ee8c4bbf146105b7578063f550ce86146105f5578063f58e35ff14610635578063f8ef09661461067257610181565b8063c87dcb8314610526578063d946dfe014610551578063ddbfddb21461058e57610181565b8063a5fa10f2146103f0578063b579d3681461042d578063b77505321461046a578063b988997f14610493578063c45a0155146104bc578063c6db721e146104e757610181565b80636d2008a51161013e57806381d12c581161011857806381d12c581461031e57806386f219e41461035e5780638b2507401461039c57806390c3f38f146103c757610181565b80636d2008a51461029c57806371343caa146102b857806380c83699146102e157610181565b806327dbe5eb146101865780633e362c96146101c3578063499f1d3a146101ee57806356ff3122146102175780635badbe4c1461024657806363b28c9214610271575b600080fd5b34801561019257600080fd5b506101ad60048036038101906101a89190612d81565b61069d565b6040516101ba9190612dbd565b60405180910390f35b3480156101cf57600080fd5b506101d86106b5565b6040516101e59190612dbd565b60405180910390f35b3480156101fa57600080fd5b5061021560048036038101906102109190612dd8565b6106bb565b005b34801561022357600080fd5b5061022c610a83565b60405161023d959493929190612f24565b60405180910390f35b34801561025257600080fd5b5061025b610c6c565b6040516102689190612dbd565b60405180910390f35b34801561027d57600080fd5b50610286610c72565b6040516102939190612f8c565b60405180910390f35b6102b660048036038101906102b191906130dc565b610c98565b005b3480156102c457600080fd5b506102df60048036038101906102da91906133ff565b610e4d565b005b3480156102ed57600080fd5b506103086004803603810190610303919061349e565b61123e565b6040516103159190613520565b60405180910390f35b34801561032a57600080fd5b5061034560048036038101906103409190612d81565b61145d565b6040516103559493929190613542565b60405180910390f35b34801561036a57600080fd5b5061038560048036038101906103809190613587565b6114ba565b6040516103939291906135c7565b60405180910390f35b3480156103a857600080fd5b506103b1611580565b6040516103be9190612dbd565b60405180910390f35b3480156103d357600080fd5b506103ee60048036038101906103e991906135f7565b611586565b005b3480156103fc57600080fd5b506104176004803603810190610412919061349e565b61162c565b6040516104249190613640565b60405180910390f35b34801561043957600080fd5b50610454600480360381019061044f9190613662565b6116cc565b6040516104619190612dbd565b60405180910390f35b34801561047657600080fd5b50610491600480360381019061048c919061368f565b6116e4565b005b34801561049f57600080fd5b506104ba60048036038101906104b59190612d81565b61189f565b005b3480156104c857600080fd5b506104d16119b8565b6040516104de9190612f8c565b60405180910390f35b3480156104f357600080fd5b5061050e60048036038101906105099190612d81565b6119de565b60405161051d9392919061375e565b60405180910390f35b34801561053257600080fd5b5061053b611b18565b60405161054891906137a3565b60405180910390f35b34801561055d57600080fd5b5061057860048036038101906105739190612d81565b611b32565b6040516105859190612f8c565b60405180910390f35b34801561059a57600080fd5b506105b560048036038101906105b0919061389f565b611b65565b005b3480156105c357600080fd5b506105de60048036038101906105d99190612d81565b611ebe565b6040516105ec9291906139c7565b60405180910390f35b34801561060157600080fd5b5061061c60048036038101906106179190613587565b612034565b60405161062c9493929190613542565b60405180910390f35b34801561064157600080fd5b5061065c6004803603810190610657919061349e565b61209e565b6040516106699190613a12565b60405180910390f35b34801561067e57600080fd5b506106876120be565b6040516106949190613acf565b60405180910390f35b60036020528060005260406000206000915090505481565b60005481565b6001600460008381526020019081526020016000206002015414610714576040517f08c379a000000000000000000000000000000000000000000000000000000000815260040161070b90613b3d565b60405180910390fd5b600760010160009054906101000a900460601b6bffffffffffffffffffffffff1916601060003373ffffffffffffffffffffffffffffffffffffffff1673ffffffffffffffffffffffffffffffffffffffff16815260200190815260200160002060006001600f60003373ffffffffffffffffffffffffffffffffffffffff1673ffffffffffffffffffffffffffffffffffffffff168152602001908152602001600020546107c39190613b8c565b815260200190815260200160002060010160009054906101000a900460601b6bffffffffffffffffffffffff191614610831576040517f08c379a000000000000000000000000000000000000000000000000000000000815260040161082890613c32565b60405180910390fd5b600060405180608001604052803373ffffffffffffffffffffffffffffffffffffffff168152602001848152602001838152602001601060003373ffffffffffffffffffffffffffffffffffffffff1673ffffffffffffffffffffffffffffffffffffffff168152602001908152602001600020600086815260200190815260200160002060010160009054906101000a900460601b6bffffffffffffffffffffffff1916815250905080601160003373ffffffffffffffffffffffffffffffffffffffff1673ffffffffffffffffffffffffffffffffffffffff168152602001908152602001600020600085815260200190815260200160002060008201518160000160006101000a81548173ffffffffffffffffffffffffffffffffffffffff021916908373ffffffffffffffffffffffffffffffffffffffff160217905550602082015181600101556040820151816002015560608201518160030160006101000a81548173ffffffffffffffffffffffffffffffffffffffff021916908360601c021790555090505080600d6000600c54815260200190815260200160002060008201518160000160006101000a81548173ffffffffffffffffffffffffffffffffffffffff021916908373ffffffffffffffffffffffffffffffffffffffff160217905550602082015181600101556040820151816002015560608201518160030160006101000a81548173ffffffffffffffffffffffffffffffffffffffff021916908360601c0217905550905050600c6000815480929190610a7990613c52565b9190505550505050565b60078060000160009054906101000a900473ffffffffffffffffffffffffffffffffffffffff16908060010160009054906101000a900460601b90806002018054610acd90613cc9565b80601f0160208091040260200160405190810160405280929190818152602001828054610af990613cc9565b8015610b465780601f10610b1b57610100808354040283529160200191610b46565b820191906000526020600020905b815481529060010190602001808311610b2957829003601f168201915b505050505090806003018054610b5b90613cc9565b80601f0160208091040260200160405190810160405280929190818152602001828054610b8790613cc9565b8015610bd45780601f10610ba957610100808354040283529160200191610bd4565b820191906000526020600020905b815481529060010190602001808311610bb757829003601f168201915b505050505090806004018054610be990613cc9565b80601f0160208091040260200160405190810160405280929190818152602001828054610c1590613cc9565b8015610c625780601f10610c3757610100808354040283529160200191610c62565b820191906000526020600020905b815481529060010190602001808311610c4557829003601f168201915b5050505050905085565b600c5481565b600660009054906101000a900473ffffffffffffffffffffffffffffffffffffffff1681565b60003403610cdb576040517f08c379a0000000000000000000000000000000000000000000000000000000008152600401610cd290613d6c565b60405180910390fd5b33600260008054815260200190815260200160002060006101000a81548173ffffffffffffffffffffffffffffffffffffffff021916908373ffffffffffffffffffffffffffffffffffffffff160217905550346003600080548152602001908152602001600020819055506040518060600160405280838152602001828152602001600181525060046000805481526020019081526020016000206000820151816000019081610d8c9190613f38565b506020820151816001019081610da29190613f38565b5060408201518160020155905050600080815480929190610dc290613c52565b919050555060036000805481526020019081526020016000205460016000828254610ded919061400a565b925050819055503373ffffffffffffffffffffffffffffffffffffffff166000547fea57c46a6e57ddb9af4c62ad771ca42aacde886527f79e093eb4991bae0b7fa6348585604051610e419392919061403e565b60405180910390a35050565b600660009054906101000a900473ffffffffffffffffffffffffffffffffffffffff1673ffffffffffffffffffffffffffffffffffffffff163373ffffffffffffffffffffffffffffffffffffffff1614610edd576040517f08c379a0000000000000000000000000000000000000000000000000000000008152600401610ed4906140cf565b60405180910390fd5b610ee684612319565b6bffffffffffffffffffffffff191684600001516bffffffffffffffffffffffff191614610f49576040517f08c379a0000000000000000000000000000000000000000000000000000000008152600401610f409061413b565b60405180910390fd5b600760010160009054906101000a900460601b6bffffffffffffffffffffffff19168460600151600081518110610f8357610f8261415b565b5b60200260200101516bffffffffffffffffffffffff191614610fda576040517f08c379a0000000000000000000000000000000000000000000000000000000008152600401610fd1906141d6565b60405180910390fd5b601060008473ffffffffffffffffffffffffffffffffffffffff1673ffffffffffffffffffffffffffffffffffffffff168152602001908152602001600020600083815260200190815260200160002060010160009054906101000a900460601b6bffffffffffffffffffffffff191684606001516001815181106110625761106161415b565b5b60200260200101516bffffffffffffffffffffffff1916146110b9576040517f08c379a00000000000000000000000000000000000000000000000000000000081526004016110b090614268565b60405180910390fd5b8360000151600760010160006101000a81548173ffffffffffffffffffffffffffffffffffffffff021916908360601c021790555060016012600086600001516bffffffffffffffffffffffff19166bffffffffffffffffffffffff1916815260200190815260200160002060006101000a81548160ff02191690831515021790555080600e600086600001516bffffffffffffffffffffffff19166bffffffffffffffffffffffff19168152602001908152602001600020908161117e9190613f38565b506000601160008573ffffffffffffffffffffffffffffffffffffffff1673ffffffffffffffffffffffffffffffffffffffff1681526020019081526020016000206000848152602001908152602001600020600201541461123857611237601160008573ffffffffffffffffffffffffffffffffffffffff1673ffffffffffffffffffffffffffffffffffffffff168152602001908152602001600020600084815260200190815260200160002060020154846125c5565b5b50505050565b606060006040518060400160405280601081526020017f303132333435363738396162636465660000000000000000000000000000000081525090506000602867ffffffffffffffff81111561129757611296612fb1565b5b6040519080825280601f01601f1916602001820160405280156112c95781602001600182028036833780820191505090505b50905060005b6014811015611433578260048683601481106112ee576112ed61415b565b5b1a60f81b7effffffffffffffffffffffffffffffffffffffffffffffffffffffffffffff1916901c60f81c60ff168151811061132d5761132c61415b565b5b602001015160f81c60f81b826002836113469190614288565b815181106113575761135661415b565b5b60200101907effffffffffffffffffffffffffffffffffffffffffffffffffffffffffffff1916908160001a90535082600f60f81b86836014811061139f5761139e61415b565b5b1a60f81b1660f81c60ff16815181106113bb576113ba61415b565b5b602001015160f81c60f81b826002836113d49190614288565b60016113e0919061400a565b815181106113f1576113f061415b565b5b60200101907effffffffffffffffffffffffffffffffffffffffffffffffffffffffffffff1916908160001a905350808061142b90613c52565b9150506112cf565b50806040516020016114459190614306565b60405160208183030381529060405292505050919050565b600d6020528060005260406000206000915090508060000160009054906101000a900473ffffffffffffffffffffffffffffffffffffffff16908060010154908060020154908060030160009054906101000a900460601b905084565b6010602052816000526040600020602052806000526040600020600091509150508060000180546114ea90613cc9565b80601f016020809104026020016040519081016040528092919081815260200182805461151690613cc9565b80156115635780601f1061153857610100808354040283529160200191611563565b820191906000526020600020905b81548152906001019060200180831161154657829003601f168201915b5050505050908060010160009054906101000a900460601b905082565b60015481565b600660009054906101000a900473ffffffffffffffffffffffffffffffffffffffff1673ffffffffffffffffffffffffffffffffffffffff163373ffffffffffffffffffffffffffffffffffffffff1614611616576040517f08c379a000000000000000000000000000000000000000000000000000000000815260040161160d906140cf565b60405180910390fd5b80600760030190816116289190613f38565b5050565b600e602052806000526040600020600091509050805461164b90613cc9565b80601f016020809104026020016040519081016040528092919081815260200182805461167790613cc9565b80156116c45780601f10611699576101008083540402835291602001916116c4565b820191906000526020600020905b8154815290600101906020018083116116a757829003601f168201915b505050505081565b600f6020528060005260406000206000915090505481565b600560009054906101000a900473ffffffffffffffffffffffffffffffffffffffff1673ffffffffffffffffffffffffffffffffffffffff163373ffffffffffffffffffffffffffffffffffffffff1614611774576040517f08c379a000000000000000000000000000000000000000000000000000000000815260040161176b906140cf565b60405180910390fd5b84600760000160006101000a81548173ffffffffffffffffffffffffffffffffffffffff021916908373ffffffffffffffffffffffffffffffffffffffff16021790555083600760010160006101000a81548173ffffffffffffffffffffffffffffffffffffffff021916908360601c021790555082600760020190816117fb9190613f38565b50806007600401908161180e9190613f38565b5081600e6000866bffffffffffffffffffffffff19166bffffffffffffffffffffffff19168152602001908152602001600020908161184d9190613f38565b50600160126000866bffffffffffffffffffffffff19166bffffffffffffffffffffffff1916815260200190815260200160002060006101000a81548160ff0219169083151502179055505050505050565b6002600082815260200190815260200160002060009054906101000a900473ffffffffffffffffffffffffffffffffffffffff1673ffffffffffffffffffffffffffffffffffffffff163373ffffffffffffffffffffffffffffffffffffffff1614611940576040517f08c379a00000000000000000000000000000000000000000000000000000000081526004016119379061438f565b60405180910390fd5b6001600460008381526020019081526020016000206002015414611999576040517f08c379a0000000000000000000000000000000000000000000000000000000008152600401611990906143fb565b60405180910390fd5b6000600460008381526020019081526020016000206002018190555050565b600560009054906101000a900473ffffffffffffffffffffffffffffffffffffffff1681565b6004602052806000526040600020600091509050806000018054611a0190613cc9565b80601f0160208091040260200160405190810160405280929190818152602001828054611a2d90613cc9565b8015611a7a5780601f10611a4f57610100808354040283529160200191611a7a565b820191906000526020600020905b815481529060010190602001808311611a5d57829003601f168201915b505050505090806001018054611a8f90613cc9565b80601f0160208091040260200160405190810160405280929190818152602001828054611abb90613cc9565b8015611b085780601f10611add57610100808354040283529160200191611b08565b820191906000526020600020905b815481529060010190602001808311611aeb57829003601f168201915b5050505050908060020154905083565b6000600760010160009054906101000a900460601b905090565b60026020528060005260406000206000915054906101000a900473ffffffffffffffffffffffffffffffffffffffff1681565b600115156012600084600081518110611b8157611b8061415b565b5b602002602001015160600151600081518110611ba057611b9f61415b565b5b60200260200101516bffffffffffffffffffffffff19166bffffffffffffffffffffffff1916815260200190815260200160002060009054906101000a900460ff16151514611c24576040517f08c379a0000000000000000000000000000000000000000000000000000000008152600401611c1b90614467565b60405180910390fd5b60005b8251811015611ce357611c53838281518110611c4657611c4561415b565b5b6020026020010151612319565b6bffffffffffffffffffffffff1916838281518110611c7557611c7461415b565b5b6020026020010151600001516bffffffffffffffffffffffff191614611cd0576040517f08c379a0000000000000000000000000000000000000000000000000000000008152600401611cc7906144f9565b60405180910390fd5b8080611cdb90613c52565b915050611c27565b50600060405180604001604052808381526020018460018651611d069190613b8c565b81518110611d1757611d1661415b565b5b6020026020010151600001516bffffffffffffffffffffffff191681525090506000600f60003373ffffffffffffffffffffffffffffffffffffffff1673ffffffffffffffffffffffffffffffffffffffff16815260200190815260200160002054905081601060003373ffffffffffffffffffffffffffffffffffffffff1673ffffffffffffffffffffffffffffffffffffffff16815260200190815260200160002060008381526020019081526020016000206000820151816000019081611de19190613f38565b5060208201518160010160006101000a81548173ffffffffffffffffffffffffffffffffffffffff021916908360601c0217905550905050600181611e26919061400a565b600f60003373ffffffffffffffffffffffffffffffffffffffff1673ffffffffffffffffffffffffffffffffffffffff16815260200190815260200160002081905550803373ffffffffffffffffffffffffffffffffffffffff167fcaf6ec1639cb299da0e0bb70cc2a7ecd67b5df8d91fd3ff455723ab950c8179e84604051611eb09190614556565b60405180910390a350505050565b611ec6612cc2565b600060046000848152602001908152602001600020600360008581526020019081526020016000205481604051806060016040529081600082018054611f0b90613cc9565b80601f0160208091040260200160405190810160405280929190818152602001828054611f3790613cc9565b8015611f845780601f10611f5957610100808354040283529160200191611f84565b820191906000526020600020905b815481529060010190602001808311611f6757829003601f168201915b50505050508152602001600182018054611f9d90613cc9565b80601f0160208091040260200160405190810160405280929190818152602001828054611fc990613cc9565b80156120165780601f10611feb57610100808354040283529160200191612016565b820191906000526020600020905b815481529060010190602001808311611ff957829003601f168201915b50505050508152602001600282015481525050915091509150915091565b6011602052816000526040600020602052806000526040600020600091509150508060000160009054906101000a900473ffffffffffffffffffffffffffffffffffffffff16908060010154908060020154908060030160009054906101000a900460601b905084565b60126020528060005260406000206000915054906101000a900460ff1681565b6120c6612ce3565b60076040518060a00160405290816000820160009054906101000a900473ffffffffffffffffffffffffffffffffffffffff1673ffffffffffffffffffffffffffffffffffffffff1673ffffffffffffffffffffffffffffffffffffffff1681526020016001820160009054906101000a900460601b6bffffffffffffffffffffffff19166bffffffffffffffffffffffff1916815260200160028201805461216e90613cc9565b80601f016020809104026020016040519081016040528092919081815260200182805461219a90613cc9565b80156121e75780601f106121bc576101008083540402835291602001916121e7565b820191906000526020600020905b8154815290600101906020018083116121ca57829003601f168201915b5050505050815260200160038201805461220090613cc9565b80601f016020809104026020016040519081016040528092919081815260200182805461222c90613cc9565b80156122795780601f1061224e57610100808354040283529160200191612279565b820191906000526020600020905b81548152906001019060200180831161225c57829003601f168201915b5050505050815260200160048201805461229290613cc9565b80601f01602080910402602001604051908101604052809291908181526020018280546122be90613cc9565b801561230b5780601f106122e05761010080835404028352916020019161230b565b820191906000526020600020905b8154815290600101906020018083116122ee57829003601f168201915b505050505081525050905090565b6000806040518060400160405280600781526020017f636f6d6d6974200000000000000000000000000000000000000000000000000081525083602001516040516020016123679190614306565b604051602081830303815290604052604051602001612387929190614578565b604051602081830303815290604052905060006040518060400160405280600581526020017f74726565200000000000000000000000000000000000000000000000000000008152506123dd856040015161123e565b6040518060400160405280600181526020017f0a000000000000000000000000000000000000000000000000000000000000008152506040516020016124259392919061459c565b6040516020818303038152906040529050600060405180602001604052806000815250905060005b85606001515181101561252557816040518060400160405280600781526020017f706172656e7420000000000000000000000000000000000000000000000000008152506124b8886060015184815181106124ab576124aa61415b565b5b602002602001015161123e565b6040518060400160405280600181526020017f0a0000000000000000000000000000000000000000000000000000000000000081525060405160200161250194939291906145cd565b6040516020818303038152906040529150808061251d90613c52565b91505061244d565b506000838383886080015160405160200161254394939291906145cd565b604051602081830303815290604052905061255d816127b3565b6bffffffffffffffffffffffff19167f9c608e5eff4308e47106ab495c748192feb1171b3f68b9e1ae3ede2c66c79fb6878686868b60800151876040516125a9969594939291906147d4565b60405180910390a26125ba816127b3565b945050505050919050565b600160046000848152602001908152602001600020600201541461261e576040517f08c379a0000000000000000000000000000000000000000000000000000000008152600401612615906143fb565b60405180910390fd5b600073ffffffffffffffffffffffffffffffffffffffff168173ffffffffffffffffffffffffffffffffffffffff160361268d576040517f08c379a0000000000000000000000000000000000000000000000000000000008152600401612684906148be565b60405180910390fd5b600060036000848152602001908152602001600020549050600081116126e8576040517f08c379a00000000000000000000000000000000000000000000000000000000081526004016126df9061492a565b60405180910390fd5b600060046000858152602001908152602001600020600201819055508173ffffffffffffffffffffffffffffffffffffffff166108fc60036000868152602001908152602001600020549081150290604051600060405180830381858888f1935050505015801561275d573d6000803e3d6000fd5b508173ffffffffffffffffffffffffffffffffffffffff167f6f2a92c4e9230e27c5995450a0ecb9db9ae19e5616d79cd7836ad822daee99fd84836040516127a692919061494a565b60405180910390a2505050565b60006040518251602084019350604067ffffffffffffffc0600183011601600982820310600181036127e6576040820191505b50776745230100efcdab890098badcfe001032547600c3d2e1f061283e565b6000838310156128375782820151905082840393506020841015612836576001846020036101000a03198082169150505b5b9392505050565b60005b82811015612c4257612854848289612805565b8552612864846020830189612805565b6020860152604081850310600181036128805760808286038701535b506040830381146001810361289f576008850260208701511760208701525b5060405b608081101561292b5760408103860151603882038701511860208203870151600c830388015118187c010000000100000001000000010000000100000001000000010000000163800000008204167ffffffffefffffffefffffffefffffffefffffffefffffffefffffffefffffffe6002830216179050808288015250600c810190506128a3565b5060805b6101408110156129b857608081038601516070820387015118604082038701516018830388015118187c030000000300000003000000030000000300000003000000030000000363400000008204167ffffffffcfffffffcfffffffcfffffffcfffffffcfffffffcfffffffcfffffffc600483021617905080828801525060188101905061292f565b508160008060005b6050811015612c145760148104600081146129f25760018114612a3c5760028114612a795760038114612adc57612b15565b6501000000000085046a01000000000000000000008604189350836f01000000000000000000000000000000860416935083650100000000008604189350635a8279999250612b15565b6a010000000000000000000085046f01000000000000000000000000000000860418935083650100000000008604189350636ed9eba19250612b15565b6a010000000000000000000085046f01000000000000000000000000000000860417935083650100000000008604169350836a010000000000000000000086046f01000000000000000000000000000000870416179350638f1bbcdc9250612b15565b6a010000000000000000000085046f0100000000000000000000000000000086041893508365010000000000860418935063ca62c1d692505b50601f770800000000000000000000000000000000000000000000008504168063ffffffe073080000000000000000000000000000000000000087041617905080840190508063ffffffff86160190508083019050807c0100000000000000000000000000000000000000000000000000000000600484028c0151040190507401000000000000000000000000000000000000000081026501000000000086041794506a0100000000000000000000633fffffff6a040000000000000000000087041663c00000006604000000000000880416170277ffffffff00ffffffff000000000000ffffffff00ffffffff8616179450506001810190506129c0565b5077ffffffff00ffffffff00ffffffff00ffffffff00ffffffff838601169450505050604081019050612841565b506c0100000000000000000000000063ffffffff821667ffffffff000000006101008404166bffffffff0000000000000000620100008504166fffffffff000000000000000000000000630100000086041673ffffffff000000000000000000000000000000006401000000008704161717171702945050505050919050565b60405180606001604052806060815260200160608152602001600081525090565b6040518060a00160405280600073ffffffffffffffffffffffffffffffffffffffff16815260200160006bffffffffffffffffffffffff191681526020016060815260200160608152602001606081525090565b6000604051905090565b600080fd5b600080fd5b6000819050919050565b612d5e81612d4b565b8114612d6957600080fd5b50565b600081359050612d7b81612d55565b92915050565b600060208284031215612d9757612d96612d41565b5b6000612da584828501612d6c565b91505092915050565b612db781612d4b565b82525050565b6000602082019050612dd26000830184612dae565b92915050565b60008060408385031215612def57612dee612d41565b5b6000612dfd85828601612d6c565b9250506020612e0e85828601612d6c565b9150509250929050565b600073ffffffffffffffffffffffffffffffffffffffff82169050919050565b6000612e4382612e18565b9050919050565b612e5381612e38565b82525050565b60007fffffffffffffffffffffffffffffffffffffffff00000000000000000000000082169050919050565b612e8e81612e59565b82525050565b600081519050919050565b600082825260208201905092915050565b60005b83811015612ece578082015181840152602081019050612eb3565b60008484015250505050565b6000601f19601f8301169050919050565b6000612ef682612e94565b612f008185612e9f565b9350612f10818560208601612eb0565b612f1981612eda565b840191505092915050565b600060a082019050612f396000830188612e4a565b612f466020830187612e85565b8181036040830152612f588186612eeb565b90508181036060830152612f6c8185612eeb565b90508181036080830152612f808184612eeb565b90509695505050505050565b6000602082019050612fa16000830184612e4a565b92915050565b600080fd5b600080fd5b7f4e487b7100000000000000000000000000000000000000000000000000000000600052604160045260246000fd5b612fe982612eda565b810181811067ffffffffffffffff8211171561300857613007612fb1565b5b80604052505050565b600061301b612d37565b90506130278282612fe0565b919050565b600067ffffffffffffffff82111561304757613046612fb1565b5b61305082612eda565b9050602081019050919050565b82818337600083830152505050565b600061307f61307a8461302c565b613011565b90508281526020810184848401111561309b5761309a612fac565b5b6130a684828561305d565b509392505050565b600082601f8301126130c3576130c2612fa7565b5b81356130d384826020860161306c565b91505092915050565b600080604083850312156130f3576130f2612d41565b5b600083013567ffffffffffffffff81111561311157613110612d46565b5b61311d858286016130ae565b925050602083013567ffffffffffffffff81111561313e5761313d612d46565b5b61314a858286016130ae565b9150509250929050565b600080fd5b600080fd5b61316781612e59565b811461317257600080fd5b50565b6000813590506131848161315e565b92915050565b600067ffffffffffffffff8211156131a5576131a4612fb1565b5b6131ae82612eda565b9050602081019050919050565b60006131ce6131c98461318a565b613011565b9050828152602081018484840111156131ea576131e9612fac565b5b6131f584828561305d565b509392505050565b600082601f83011261321257613211612fa7565b5b81356132228482602086016131bb565b91505092915050565b600067ffffffffffffffff82111561324657613245612fb1565b5b602082029050602081019050919050565b600080fd5b600061326f61326a8461322b565b613011565b9050808382526020820190506020840283018581111561329257613291613257565b5b835b818110156132bb57806132a78882613175565b845260208401935050602081019050613294565b5050509392505050565b600082601f8301126132da576132d9612fa7565b5b81356132ea84826020860161325c565b91505092915050565b600060a0828403121561330957613308613154565b5b61331360a0613011565b9050600061332384828501613175565b600083015250602082013567ffffffffffffffff81111561334757613346613159565b5b613353848285016131fd565b602083015250604061336784828501613175565b604083015250606082013567ffffffffffffffff81111561338b5761338a613159565b5b613397848285016132c5565b606083015250608082013567ffffffffffffffff8111156133bb576133ba613159565b5b6133c7848285016131fd565b60808301525092915050565b6133dc81612e38565b81146133e757600080fd5b50565b6000813590506133f9816133d3565b92915050565b6000806000806080858703121561341957613418612d41565b5b600085013567ffffffffffffffff81111561343757613436612d46565b5b613443878288016132f3565b9450506020613454878288016133ea565b935050604061346587828801612d6c565b925050606085013567ffffffffffffffff81111561348657613485612d46565b5b613492878288016130ae565b91505092959194509250565b6000602082840312156134b4576134b3612d41565b5b60006134c284828501613175565b91505092915050565b600081519050919050565b600082825260208201905092915050565b60006134f2826134cb565b6134fc81856134d6565b935061350c818560208601612eb0565b61351581612eda565b840191505092915050565b6000602082019050818103600083015261353a81846134e7565b905092915050565b60006080820190506135576000830187612e4a565b6135646020830186612dae565b6135716040830185612dae565b61357e6060830184612e85565b95945050505050565b6000806040838503121561359e5761359d612d41565b5b60006135ac858286016133ea565b92505060206135bd85828601612d6c565b9150509250929050565b600060408201905081810360008301526135e18185612eeb565b90506135f06020830184612e85565b9392505050565b60006020828403121561360d5761360c612d41565b5b600082013567ffffffffffffffff81111561362b5761362a612d46565b5b613637848285016130ae565b91505092915050565b6000602082019050818103600083015261365a8184612eeb565b905092915050565b60006020828403121561367857613677612d41565b5b6000613686848285016133ea565b91505092915050565b600080600080600060a086880312156136ab576136aa612d41565b5b60006136b9888289016133ea565b95505060206136ca88828901613175565b945050604086013567ffffffffffffffff8111156136eb576136ea612d46565b5b6136f7888289016130ae565b935050606086013567ffffffffffffffff81111561371857613717612d46565b5b613724888289016130ae565b925050608086013567ffffffffffffffff81111561374557613744612d46565b5b613751888289016130ae565b9150509295509295909350565b600060608201905081810360008301526137788186612eeb565b9050818103602083015261378c8185612eeb565b905061379b6040830184612dae565b949350505050565b60006020820190506137b86000830184612e85565b92915050565b600067ffffffffffffffff8211156137d9576137d8612fb1565b5b602082029050602081019050919050565b60006137fd6137f8846137be565b613011565b905080838252602082019050602084028301858111156138205761381f613257565b5b835b8181101561386757803567ffffffffffffffff81111561384557613844612fa7565b5b80860161385289826132f3565b85526020850194505050602081019050613822565b5050509392505050565b600082601f83011261388657613885612fa7565b5b81356138968482602086016137ea565b91505092915050565b600080604083850312156138b6576138b5612d41565b5b600083013567ffffffffffffffff8111156138d4576138d3612d46565b5b6138e085828601613871565b925050602083013567ffffffffffffffff81111561390157613900612d46565b5b61390d858286016130ae565b9150509250929050565b600082825260208201905092915050565b600061393382612e94565b61393d8185613917565b935061394d818560208601612eb0565b61395681612eda565b840191505092915050565b61396a81612d4b565b82525050565b6000606083016000830151848203600086015261398d8282613928565b915050602083015184820360208601526139a78282613928565b91505060408301516139bc6040860182613961565b508091505092915050565b600060408201905081810360008301526139e18185613970565b90506139f06020830184612dae565b9392505050565b60008115159050919050565b613a0c816139f7565b82525050565b6000602082019050613a276000830184613a03565b92915050565b613a3681612e38565b82525050565b613a4581612e59565b82525050565b600060a083016000830151613a636000860182613a2d565b506020830151613a766020860182613a3c565b5060408301518482036040860152613a8e8282613928565b91505060608301518482036060860152613aa88282613928565b91505060808301518482036080860152613ac28282613928565b9150508091505092915050565b60006020820190508181036000830152613ae98184613a4b565b905092915050565b7f626f756e747920697320636c6f736564206f72206e6f74206578697374000000600082015250565b6000613b27601d83612e9f565b9150613b3282613af1565b602082019050919050565b60006020820190508181036000830152613b5681613b1a565b9050919050565b7f4e487b7100000000000000000000000000000000000000000000000000000000600052601160045260246000fd5b6000613b9782612d4b565b9150613ba283612d4b565b9250828203905081811115613bba57613bb9613b5d565b5b92915050565b7f6e65656420746f20636f6e7472696275746520746f2074686973207265706f2060008201527f6272616e63680000000000000000000000000000000000000000000000000000602082015250565b6000613c1c602683612e9f565b9150613c2782613bc0565b604082019050919050565b60006020820190508181036000830152613c4b81613c0f565b9050919050565b6000613c5d82612d4b565b91507fffffffffffffffffffffffffffffffffffffffffffffffffffffffffffffffff8203613c8f57613c8e613b5d565b5b600182019050919050565b7f4e487b7100000000000000000000000000000000000000000000000000000000600052602260045260246000fd5b60006002820490506001821680613ce157607f821691505b602082108103613cf457613cf3613c9a565b5b50919050565b7f426f756e747920616d6f756e74206d757374206265206772656174657220746860008201527f616e203000000000000000000000000000000000000000000000000000000000602082015250565b6000613d56602483612e9f565b9150613d6182613cfa565b604082019050919050565b60006020820190508181036000830152613d8581613d49565b9050919050565b60008190508160005260206000209050919050565b60006020601f8301049050919050565b600082821b905092915050565b600060088302613dee7fffffffffffffffffffffffffffffffffffffffffffffffffffffffffffffffff82613db1565b613df88683613db1565b95508019841693508086168417925050509392505050565b6000819050919050565b6000613e35613e30613e2b84612d4b565b613e10565b612d4b565b9050919050565b6000819050919050565b613e4f83613e1a565b613e63613e5b82613e3c565b848454613dbe565b825550505050565b600090565b613e78613e6b565b613e83818484613e46565b505050565b5b81811015613ea757613e9c600082613e70565b600181019050613e89565b5050565b601f821115613eec57613ebd81613d8c565b613ec684613da1565b81016020851015613ed5578190505b613ee9613ee185613da1565b830182613e88565b50505b505050565b600082821c905092915050565b6000613f0f60001984600802613ef1565b1980831691505092915050565b6000613f288383613efe565b9150826002028217905092915050565b613f4182612e94565b67ffffffffffffffff811115613f5a57613f59612fb1565b5b613f648254613cc9565b613f6f828285613eab565b600060209050601f831160018114613fa25760008415613f90578287015190505b613f9a8582613f1c565b865550614002565b601f198416613fb086613d8c565b60005b82811015613fd857848901518255600182019150602085019450602081019050613fb3565b86831015613ff55784890151613ff1601f891682613efe565b8355505b6001600288020188555050505b505050505050565b600061401582612d4b565b915061402083612d4b565b925082820190508082111561403857614037613b5d565b5b92915050565b60006060820190506140536000830186612dae565b81810360208301526140658185612eeb565b905081810360408301526140798184612eeb565b9050949350505050565b7f666f7262696464656e0000000000000000000000000000000000000000000000600082015250565b60006140b9600983612e9f565b91506140c482614083565b602082019050919050565b600060208201905081810360008301526140e8816140ac565b9050919050565b7f6e65656420746f20706172656e7420746f2074686973206272616e6368000000600082015250565b6000614125601d83612e9f565b9150614130826140ef565b602082019050919050565b6000602082019050818103600083015261415481614118565b9050919050565b7f4e487b7100000000000000000000000000000000000000000000000000000000600052603260045260246000fd5b7f6e656564206d6572676520746f206d61696e206272616e636800000000000000600082015250565b60006141c0601983612e9f565b91506141cb8261418a565b602082019050919050565b600060208201905081810360008301526141ef816141b3565b9050919050565b7f636f6e7475626572206973206e6f742073616d6520746f20636f6d6d6974207060008201527f6172656e74000000000000000000000000000000000000000000000000000000602082015250565b6000614252602583612e9f565b915061425d826141f6565b604082019050919050565b6000602082019050818103600083015261428181614245565b9050919050565b600061429382612d4b565b915061429e83612d4b565b92508282026142ac81612d4b565b915082820484148315176142c3576142c2613b5d565b5b5092915050565b600081905092915050565b60006142e0826134cb565b6142ea81856142ca565b93506142fa818560208601612eb0565b80840191505092915050565b600061431282846142d5565b915081905092915050565b7f4f6e6c7920626f756e7479206f776e65722063616e20636c6f736520626f756e60008201527f7479000000000000000000000000000000000000000000000000000000000000602082015250565b6000614379602283612e9f565b91506143848261431d565b604082019050919050565b600060208201905081810360008301526143a88161436c565b9050919050565b7f426f756e747920697320636c6f73656400000000000000000000000000000000600082015250565b60006143e5601083612e9f565b91506143f0826143af565b602082019050919050565b60006020820190508181036000830152614414816143d8565b9050919050565b7f706172656e7420636f6d6d6974206e6f74206578697374000000000000000000600082015250565b6000614451601783612e9f565b915061445c8261441b565b602082019050919050565b6000602082019050818103600083015261448081614444565b9050919050565b7f6e65656420746f20706172656e7420746f2074686973207265706f206272616e60008201527f6368000000000000000000000000000000000000000000000000000000000000602082015250565b60006144e3602283612e9f565b91506144ee82614487565b604082019050919050565b60006020820190508181036000830152614512816144d6565b9050919050565b600060408301600083015184820360008601526145368282613928565b915050602083015161454b6020860182613a3c565b508091505092915050565b600060208201905081810360008301526145708184614519565b905092915050565b600061458482856142d5565b915061459082846142d5565b91508190509392505050565b60006145a882866142d5565b91506145b482856142d5565b91506145c082846142d5565b9150819050949350505050565b60006145d982876142d5565b91506145e582866142d5565b91506145f182856142d5565b91506145fd82846142d5565b915081905095945050505050565b600082825260208201905092915050565b6000614627826134cb565b614631818561460b565b9350614641818560208601612eb0565b61464a81612eda565b840191505092915050565b600081519050919050565b600082825260208201905092915050565b6000819050602082019050919050565b600061468d8383613a3c565b60208301905092915050565b6000602082019050919050565b60006146b182614655565b6146bb8185614660565b93506146c683614671565b8060005b838110156146f75781516146de8882614681565b97506146e983614699565b9250506001810190506146ca565b5085935050505092915050565b600060a08301600083015161471c6000860182613a3c565b5060208301518482036020860152614734828261461c565b91505060408301516147496040860182613a3c565b506060830151848203606086015261476182826146a6565b9150506080830151848203608086015261477b828261461c565b9150508091505092915050565b7f7465737420636f6d6d6974000000000000000000000000000000000000000000600082015250565b60006147be600b83612e9f565b91506147c982614788565b602082019050919050565b600060e08201905081810360008301526147ee8189614704565b9050818103602083015261480281886134e7565b9050818103604083015261481681876134e7565b9050818103606083015261482a81866134e7565b9050818103608083015261483e81856134e7565b905081810360a083015261485281846134e7565b905081810360c0830152614865816147b1565b9050979650505050505050565b7f436f6e747269627574657220697320746865207a65726f206164647265737300600082015250565b60006148a8601f83612e9f565b91506148b382614872565b602082019050919050565b600060208201905081810360008301526148d78161489b565b9050919050565b7f426f756e747920616d6f756e74206973207a65726f0000000000000000000000600082015250565b6000614914601583612e9f565b915061491f826148de565b602082019050919050565b6000602082019050818103600083015261494381614907565b9050919050565b600060408201905061495f6000830185612dae565b61496c6020830184612dae565b939250505056fea2646970667358221220d665b718f19b5d3d6188f79782433c6f2d55c3900fcf39ca83aba270125865f164736f6c63430008120033",
  "linkReferences": {},
  "deployedLinkReferences": {}
}