{
  "_format": "hh-sol-artifact-1",
  "contractName": "Git",
  "sourceName": "contracts/core/Git.sol",
  "abi": [
    {
      "inputs": [],
      "stateMutability": "payable",
      "type": "constructor"
    },
    {
      "anonymous": false,
      "inputs": [
        {
          "indexed": false,
          "internalType": "uint256",
          "name": "bountyId",
          "type": "uint256"
        },
        {
          "indexed": true,
          "internalType": "address",
          "name": "contributer",
          "type": "address"
        },
        {
          "indexed": false,
          "internalType": "uint256",
          "name": "amount",
          "type": "uint256"
        }
      ],
      "name": "BountyGiven",
      "type": "event"
    },
    {
      "anonymous": false,
      "inputs": [
        {
          "indexed": true,
          "internalType": "address",
          "name": "contributer",
          "type": "address"
        },
        {
          "indexed": true,
          "internalType": "bytes20",
          "name": "sha",
          "type": "bytes20"
        }
      ],
      "name": "contribute",
      "type": "event"
    },
    {
      "anonymous": false,
      "inputs": [
        {
          "indexed": true,
          "internalType": "uint256",
          "name": "bountyId",
          "type": "uint256"
        },
        {
          "indexed": true,
          "internalType": "address",
          "name": "bountyOwner",
          "type": "address"
        },
        {
          "indexed": false,
          "internalType": "uint256",
          "name": "bountyAmount",
          "type": "uint256"
        },
        {
          "indexed": false,
          "internalType": "string",
          "name": "title",
          "type": "string"
        },
        {
          "indexed": false,
          "internalType": "string",
          "name": "description",
          "type": "string"
        }
      ],
      "name": "createBountyEvent",
      "type": "event"
    },
    {
      "anonymous": false,
      "inputs": [
        {
          "indexed": true,
          "internalType": "address",
          "name": "contributer",
          "type": "address"
        },
        {
          "indexed": true,
          "internalType": "bytes20",
          "name": "sha",
          "type": "bytes20"
        }
      ],
      "name": "merged",
      "type": "event"
    },
    {
      "anonymous": false,
      "inputs": [
        {
          "indexed": true,
          "internalType": "bytes20",
          "name": "sha",
          "type": "bytes20"
        },
        {
          "components": [
            {
              "internalType": "bytes20",
              "name": "thisHash",
              "type": "bytes20"
            },
            {
              "internalType": "bytes",
              "name": "wordCount",
              "type": "bytes"
            },
            {
              "internalType": "bytes20",
              "name": "tree",
              "type": "bytes20"
            },
            {
              "internalType": "bytes20[]",
              "name": "parents",
              "type": "bytes20[]"
            },
            {
              "internalType": "bytes",
              "name": "message",
              "type": "bytes"
            }
          ],
          "indexed": false,
          "internalType": "struct Git.Commit",
          "name": "commit",
          "type": "tuple"
        },
        {
          "indexed": false,
          "internalType": "bytes",
          "name": "wc",
          "type": "bytes"
        },
        {
          "indexed": false,
          "internalType": "bytes",
          "name": "t",
          "type": "bytes"
        },
        {
          "indexed": false,
          "internalType": "bytes",
          "name": "parent",
          "type": "bytes"
        },
        {
          "indexed": false,
          "internalType": "bytes",
          "name": "message",
          "type": "bytes"
        },
        {
          "indexed": false,
          "internalType": "bytes",
          "name": "data",
          "type": "bytes"
        },
        {
          "indexed": false,
          "internalType": "string",
          "name": "msg",
          "type": "string"
        }
      ],
      "name": "test",
      "type": "event"
    },
    {
      "inputs": [
        {
          "internalType": "uint256",
          "name": "",
          "type": "uint256"
        }
      ],
      "name": "bountyAmount",
      "outputs": [
        {
          "internalType": "uint256",
          "name": "",
          "type": "uint256"
        }
      ],
      "stateMutability": "view",
      "type": "function"
    },
    {
      "inputs": [
        {
          "internalType": "uint256",
          "name": "",
          "type": "uint256"
        }
      ],
      "name": "bountyContent",
      "outputs": [
        {
          "internalType": "string",
          "name": "title",
          "type": "string"
        },
        {
          "internalType": "string",
          "name": "description",
          "type": "string"
        },
        {
          "internalType": "uint256",
          "name": "openStatus",
          "type": "uint256"
        }
      ],
      "stateMutability": "view",
      "type": "function"
    },
    {
      "inputs": [],
      "name": "bountyCount",
      "outputs": [
        {
          "internalType": "uint256",
          "name": "",
          "type": "uint256"
        }
      ],
      "stateMutability": "view",
      "type": "function"
    },
    {
      "inputs": [
        {
          "internalType": "uint256",
          "name": "",
          "type": "uint256"
        }
      ],
      "name": "bountyOwner",
      "outputs": [
        {
          "internalType": "address",
          "name": "",
          "type": "address"
        }
      ],
      "stateMutability": "view",
      "type": "function"
    },
    {
      "inputs": [],
      "name": "bountyTotalAmount",
      "outputs": [
        {
          "internalType": "uint256",
          "name": "",
          "type": "uint256"
        }
      ],
      "stateMutability": "view",
      "type": "function"
    },
    {
      "inputs": [
        {
          "internalType": "bytes20",
          "name": "_bytes",
          "type": "bytes20"
        }
      ],
      "name": "bytes20ToHexStr",
      "outputs": [
        {
          "internalType": "bytes",
          "name": "",
          "type": "bytes"
        }
      ],
      "stateMutability": "pure",
      "type": "function"
    },
    {
      "inputs": [
        {
          "internalType": "bytes20",
          "name": "",
          "type": "bytes20"
        }
      ],
      "name": "cid",
      "outputs": [
        {
          "internalType": "string",
          "name": "",
          "type": "string"
        }
      ],
      "stateMutability": "view",
      "type": "function"
    },
    {
      "inputs": [
        {
          "internalType": "uint256",
          "name": "bountyId",
          "type": "uint256"
        }
      ],
      "name": "closeBounty",
      "outputs": [],
      "stateMutability": "nonpayable",
      "type": "function"
    },
    {
      "inputs": [],
      "name": "codeOwner",
      "outputs": [
        {
          "internalType": "address",
          "name": "",
          "type": "address"
        }
      ],
      "stateMutability": "view",
      "type": "function"
    },
    {
      "inputs": [
        {
          "internalType": "address",
          "name": "",
          "type": "address"
        }
      ],
      "name": "contributeCount",
      "outputs": [
        {
          "internalType": "uint256",
          "name": "",
          "type": "uint256"
        }
      ],
      "stateMutability": "view",
      "type": "function"
    },
    {
      "inputs": [
        {
          "internalType": "address",
          "name": "",
          "type": "address"
        },
        {
          "internalType": "uint256",
          "name": "",
          "type": "uint256"
        }
      ],
      "name": "contributer",
      "outputs": [
        {
          "internalType": "bytes20",
          "name": "",
          "type": "bytes20"
        }
      ],
      "stateMutability": "view",
      "type": "function"
    },
    {
      "inputs": [
        {
          "internalType": "string",
          "name": "title",
          "type": "string"
        },
        {
          "internalType": "string",
          "name": "description",
          "type": "string"
        }
      ],
      "name": "createBounty",
      "outputs": [],
      "stateMutability": "payable",
      "type": "function"
    },
    {
      "inputs": [],
      "name": "factory",
      "outputs": [
        {
          "internalType": "address",
          "name": "",
          "type": "address"
        }
      ],
      "stateMutability": "view",
      "type": "function"
    },
    {
      "inputs": [
        {
          "internalType": "uint256",
          "name": "bountyId",
          "type": "uint256"
        }
      ],
      "name": "getBounty",
      "outputs": [
        {
          "components": [
            {
              "internalType": "string",
              "name": "title",
              "type": "string"
            },
            {
              "internalType": "string",
              "name": "description",
              "type": "string"
            },
            {
              "internalType": "uint256",
              "name": "openStatus",
              "type": "uint256"
            }
          ],
          "internalType": "struct Bounty.BountyContent",
          "name": "",
          "type": "tuple"
        },
        {
          "internalType": "uint256",
          "name": "",
          "type": "uint256"
        }
      ],
      "stateMutability": "view",
      "type": "function"
    },
    {
      "inputs": [],
      "name": "getLatestPack",
      "outputs": [
        {
          "internalType": "bytes20",
          "name": "",
          "type": "bytes20"
        }
      ],
      "stateMutability": "view",
      "type": "function"
    },
    {
      "inputs": [
        {
          "internalType": "address",
          "name": "_codeOwner",
          "type": "address"
        },
        {
          "internalType": "bytes20",
          "name": "_commitHash",
          "type": "bytes20"
        },
        {
          "internalType": "string",
          "name": "_cid",
          "type": "string"
        }
      ],
      "name": "initialize",
      "outputs": [],
      "stateMutability": "nonpayable",
      "type": "function"
    },
    {
      "inputs": [],
      "name": "latestCommit",
      "outputs": [
        {
          "internalType": "bytes20",
          "name": "",
          "type": "bytes20"
        }
      ],
      "stateMutability": "view",
      "type": "function"
    },
    {
      "inputs": [
        {
          "internalType": "bytes20",
          "name": "",
          "type": "bytes20"
        }
      ],
      "name": "mainCommitExist",
      "outputs": [
        {
          "internalType": "bool",
          "name": "",
          "type": "bool"
        }
      ],
      "stateMutability": "view",
      "type": "function"
    },
    {
      "inputs": [
        {
          "components": [
            {
              "internalType": "bytes20",
              "name": "thisHash",
              "type": "bytes20"
            },
            {
              "internalType": "bytes",
              "name": "wordCount",
              "type": "bytes"
            },
            {
              "internalType": "bytes20",
              "name": "tree",
              "type": "bytes20"
            },
            {
              "internalType": "bytes20[]",
              "name": "parents",
              "type": "bytes20[]"
            },
            {
              "internalType": "bytes",
              "name": "message",
              "type": "bytes"
            }
          ],
          "internalType": "struct Git.Commit[]",
          "name": "commits",
          "type": "tuple[]"
        },
        {
          "internalType": "string",
          "name": "_cid",
          "type": "string"
        }
      ],
      "name": "push",
      "outputs": [],
      "stateMutability": "nonpayable",
      "type": "function"
    },
    {
      "inputs": [
        {
          "internalType": "bytes",
          "name": "data",
          "type": "bytes"
        },
        {
          "components": [
            {
              "internalType": "bytes20",
              "name": "thisHash",
              "type": "bytes20"
            },
            {
              "internalType": "bytes",
              "name": "wordCount",
              "type": "bytes"
            },
            {
              "internalType": "bytes20",
              "name": "tree",
              "type": "bytes20"
            },
            {
              "internalType": "bytes20[]",
              "name": "parents",
              "type": "bytes20[]"
            },
            {
              "internalType": "bytes",
              "name": "message",
              "type": "bytes"
            }
          ],
          "internalType": "struct Git.Commit",
          "name": "commit",
          "type": "tuple"
        }
      ],
      "name": "quick",
      "outputs": [
        {
          "internalType": "bytes20",
          "name": "",
          "type": "bytes20"
        }
      ],
      "stateMutability": "nonpayable",
      "type": "function"
    },
    {
      "inputs": [],
      "name": "requestCount",
      "outputs": [
        {
          "internalType": "uint256",
          "name": "",
          "type": "uint256"
        }
      ],
      "stateMutability": "view",
      "type": "function"
    },
    {
      "inputs": [
        {
          "internalType": "uint256",
          "name": "",
          "type": "uint256"
        }
      ],
      "name": "requests",
      "outputs": [
        {
          "internalType": "address",
          "name": "contributer",
          "type": "address"
        },
        {
          "internalType": "uint256",
          "name": "linkBounty",
          "type": "uint256"
        },
        {
          "internalType": "bytes20",
          "name": "commitHash",
          "type": "bytes20"
        },
        {
          "internalType": "string",
          "name": "bundleUrl",
          "type": "string"
        }
      ],
      "stateMutability": "view",
      "type": "function"
    },
    {
      "inputs": [
        {
          "internalType": "uint256",
          "name": "bountyId",
          "type": "uint256"
        },
        {
          "internalType": "string",
          "name": "bundleUrl",
          "type": "string"
        }
      ],
      "name": "rewardRequest",
      "outputs": [],
      "stateMutability": "nonpayable",
      "type": "function"
    },
    {
      "inputs": [
        {
          "components": [
            {
              "internalType": "bytes20",
              "name": "thisHash",
              "type": "bytes20"
            },
            {
              "internalType": "bytes",
              "name": "wordCount",
              "type": "bytes"
            },
            {
              "internalType": "bytes20",
              "name": "tree",
              "type": "bytes20"
            },
            {
              "internalType": "bytes20[]",
              "name": "parents",
              "type": "bytes20[]"
            },
            {
              "internalType": "bytes",
              "name": "message",
              "type": "bytes"
            }
          ],
          "internalType": "struct Git.Commit",
          "name": "commit",
          "type": "tuple"
        }
      ],
      "name": "testpush",
      "outputs": [],
      "stateMutability": "nonpayable",
      "type": "function"
    }
  ],
  "bytecode": "0x6080604052600080556000600155600060085533600560006101000a81548173ffffffffffffffffffffffffffffffffffffffff021916908373ffffffffffffffffffffffffffffffffffffffff160217905550613837806100626000396000f3fe60806040526004361061014b5760003560e01c8063b6afbc57116100b6578063d29353371161006f578063d2935337146104d8578063d946dfe014610501578063ddbfddb21461053e578063df01f08814610567578063ee8c4bbf14610590578063f58e35ff146105ce5761014b565b8063b6afbc57146103b2578063b988997f146103ef578063c45a015514610418578063c6db721e14610443578063c87dcb8314610482578063ce0ac2d6146104ad5761014b565b806381d12c581161010857806381d12c581461026757806386f219e4146102a75780638b250740146102e4578063a114f4e91461030f578063a5fa10f214610338578063b579d368146103755761014b565b806327dbe5eb146101505780633e362c961461018d5780635badbe4c146101b857806363b28c92146101e35780636d2008a51461020e57806380c836991461022a575b600080fd5b34801561015c57600080fd5b506101776004803603810190610172919061208a565b61060b565b60405161018491906120c6565b60405180910390f35b34801561019957600080fd5b506101a2610623565b6040516101af91906120c6565b60405180910390f35b3480156101c457600080fd5b506101cd610629565b6040516101da91906120c6565b60405180910390f35b3480156101ef57600080fd5b506101f861062f565b6040516102059190612122565b60405180910390f35b61022860048036038101906102239190612283565b610655565b005b34801561023657600080fd5b50610251600480360381019061024c9190612353565b61080a565b60405161025e91906123ff565b60405180910390f35b34801561027357600080fd5b5061028e6004803603810190610289919061208a565b610a29565b60405161029e9493929190612485565b60405180910390f35b3480156102b357600080fd5b506102ce60048036038101906102c991906124fd565b610b0e565b6040516102db919061253d565b60405180910390f35b3480156102f057600080fd5b506102f9610b3d565b60405161030691906120c6565b60405180910390f35b34801561031b57600080fd5b5061033660048036038101906103319190612558565b610b43565b005b34801561034457600080fd5b5061035f600480360381019061035a9190612353565b610e70565b60405161036c91906125b4565b60405180910390f35b34801561038157600080fd5b5061039c600480360381019061039791906125d6565b610f10565b6040516103a991906120c6565b60405180910390f35b3480156103be57600080fd5b506103d960048036038101906103d49190612856565b610f28565b6040516103e6919061253d565b60405180910390f35b3480156103fb57600080fd5b506104166004803603810190610411919061208a565b610f3b565b005b34801561042457600080fd5b5061042d611054565b60405161043a9190612122565b60405180910390f35b34801561044f57600080fd5b5061046a6004803603810190610465919061208a565b61107a565b604051610479939291906128ce565b60405180910390f35b34801561048e57600080fd5b506104976111b4565b6040516104a4919061253d565b60405180910390f35b3480156104b957600080fd5b506104c26111cb565b6040516104cf919061253d565b60405180910390f35b3480156104e457600080fd5b506104ff60048036038101906104fa9190612913565b6111de565b005b34801561050d57600080fd5b506105286004803603810190610523919061208a565b6111eb565b6040516105359190612122565b60405180910390f35b34801561054a57600080fd5b5061056560048036038101906105609190612a3d565b61121e565b005b34801561057357600080fd5b5061058e60048036038101906105899190612ab5565b61149c565b005b34801561059c57600080fd5b506105b760048036038101906105b2919061208a565b611629565b6040516105c5929190612bd4565b60405180910390f35b3480156105da57600080fd5b506105f560048036038101906105f09190612353565b61179f565b6040516106029190612c1f565b60405180910390f35b60036020528060005260406000206000915090505481565b60005481565b60085481565b600660009054906101000a900473ffffffffffffffffffffffffffffffffffffffff1681565b60003403610698576040517f08c379a000000000000000000000000000000000000000000000000000000000815260040161068f90612cac565b60405180910390fd5b33600260008054815260200190815260200160002060006101000a81548173ffffffffffffffffffffffffffffffffffffffff021916908373ffffffffffffffffffffffffffffffffffffffff1602179055503460036000805481526020019081526020016000208190555060405180606001604052808381526020018281526020016001815250600460008054815260200190815260200160002060008201518160000190816107499190612ed8565b50602082015181600101908161075f9190612ed8565b506040820151816002015590505060008081548092919061077f90612fd9565b9190505550600360008054815260200190815260200160002054600160008282546107aa9190613021565b925050819055503373ffffffffffffffffffffffffffffffffffffffff166000547fea57c46a6e57ddb9af4c62ad771ca42aacde886527f79e093eb4991bae0b7fa63485856040516107fe93929190613055565b60405180910390a35050565b606060006040518060400160405280601081526020017f303132333435363738396162636465660000000000000000000000000000000081525090506000602867ffffffffffffffff81111561086357610862612158565b5b6040519080825280601f01601f1916602001820160405280156108955781602001600182028036833780820191505090505b50905060005b60148110156109ff578260048683601481106108ba576108b961309a565b5b1a60f81b7effffffffffffffffffffffffffffffffffffffffffffffffffffffffffffff1916901c60f81c60ff16815181106108f9576108f861309a565b5b602001015160f81c60f81b8260028361091291906130c9565b815181106109235761092261309a565b5b60200101907effffffffffffffffffffffffffffffffffffffffffffffffffffffffffffff1916908160001a90535082600f60f81b86836014811061096b5761096a61309a565b5b1a60f81b1660f81c60ff16815181106109875761098661309a565b5b602001015160f81c60f81b826002836109a091906130c9565b60016109ac9190613021565b815181106109bd576109bc61309a565b5b60200101907effffffffffffffffffffffffffffffffffffffffffffffffffffffffffffff1916908160001a90535080806109f790612fd9565b91505061089b565b5080604051602001610a119190613147565b60405160208183030381529060405292505050919050565b60096020528060005260406000206000915090508060000160009054906101000a900473ffffffffffffffffffffffffffffffffffffffff16908060010154908060020160009054906101000a900460601b90806003018054610a8b90612cfb565b80601f0160208091040260200160405190810160405280929190818152602001828054610ab790612cfb565b8015610b045780601f10610ad957610100808354040283529160200191610b04565b820191906000526020600020905b815481529060010190602001808311610ae757829003601f168201915b5050505050905084565b600c6020528160005260406000206020528060005260406000206000915091509054906101000a900460601b81565b60015481565b6001600460008481526020019081526020016000206002015414610b9c576040517f08c379a0000000000000000000000000000000000000000000000000000000008152600401610b93906131aa565b60405180910390fd5b600760009054906101000a900460601b6bffffffffffffffffffffffff1916600c60003373ffffffffffffffffffffffffffffffffffffffff1673ffffffffffffffffffffffffffffffffffffffff16815260200190815260200160002060006001600b60003373ffffffffffffffffffffffffffffffffffffffff1673ffffffffffffffffffffffffffffffffffffffff16815260200190815260200160002054610c4891906131ca565b815260200190815260200160002060009054906101000a900460601b6bffffffffffffffffffffffff191614610cb3576040517f08c379a0000000000000000000000000000000000000000000000000000000008152600401610caa90613270565b60405180910390fd5b6000600b60003373ffffffffffffffffffffffffffffffffffffffff1673ffffffffffffffffffffffffffffffffffffffff168152602001908152602001600020549050600060405180608001604052803373ffffffffffffffffffffffffffffffffffffffff168152602001858152602001600c60003373ffffffffffffffffffffffffffffffffffffffff1673ffffffffffffffffffffffffffffffffffffffff168152602001908152602001600020600085815260200190815260200160002060009054906101000a900460601b6bffffffffffffffffffffffff191681526020018481525090508060096000600854815260200190815260200160002060008201518160000160006101000a81548173ffffffffffffffffffffffffffffffffffffffff021916908373ffffffffffffffffffffffffffffffffffffffff1602179055506020820151816001015560408201518160020160006101000a81548173ffffffffffffffffffffffffffffffffffffffff021916908360601c02179055506060820151816003019081610e4e9190612ed8565b5090505060086000815480929190610e6590612fd9565b919050555050505050565b600a6020528060005260406000206000915090508054610e8f90612cfb565b80601f0160208091040260200160405190810160405280929190818152602001828054610ebb90612cfb565b8015610f085780601f10610edd57610100808354040283529160200191610f08565b820191906000526020600020905b815481529060010190602001808311610eeb57829003601f168201915b505050505081565b600b6020528060005260406000206000915090505481565b6000610f33836117bf565b905092915050565b6002600082815260200190815260200160002060009054906101000a900473ffffffffffffffffffffffffffffffffffffffff1673ffffffffffffffffffffffffffffffffffffffff163373ffffffffffffffffffffffffffffffffffffffff1614610fdc576040517f08c379a0000000000000000000000000000000000000000000000000000000008152600401610fd390613302565b60405180910390fd5b6001600460008381526020019081526020016000206002015414611035576040517f08c379a000000000000000000000000000000000000000000000000000000000815260040161102c9061336e565b60405180910390fd5b6000600460008381526020019081526020016000206002018190555050565b600560009054906101000a900473ffffffffffffffffffffffffffffffffffffffff1681565b600460205280600052604060002060009150905080600001805461109d90612cfb565b80601f01602080910402602001604051908101604052809291908181526020018280546110c990612cfb565b80156111165780601f106110eb57610100808354040283529160200191611116565b820191906000526020600020905b8154815290600101906020018083116110f957829003601f168201915b50505050509080600101805461112b90612cfb565b80601f016020809104026020016040519081016040528092919081815260200182805461115790612cfb565b80156111a45780601f10611179576101008083540402835291602001916111a4565b820191906000526020600020905b81548152906001019060200180831161118757829003601f168201915b5050505050908060020154905083565b6000600760009054906101000a900460601b905090565b600760009054906101000a900460601b81565b6111e781611cce565b5050565b60026020528060005260406000206000915054906101000a900473ffffffffffffffffffffffffffffffffffffffff1681565b60005b82518110156112dd5761124d8382815181106112405761123f61309a565b5b6020026020010151611cce565b6bffffffffffffffffffffffff191683828151811061126f5761126e61309a565b5b6020026020010151600001516bffffffffffffffffffffffff1916146112ca576040517f08c379a00000000000000000000000000000000000000000000000000000000081526004016112c190613400565b60405180910390fd5b80806112d590612fd9565b915050611221565b506000600b60003373ffffffffffffffffffffffffffffffffffffffff1673ffffffffffffffffffffffffffffffffffffffff168152602001908152602001600020549050826001845161133191906131ca565b815181106113425761134161309a565b5b602002602001015160000151600c60003373ffffffffffffffffffffffffffffffffffffffff1673ffffffffffffffffffffffffffffffffffffffff168152602001908152602001600020600083815260200190815260200160002060006101000a81548173ffffffffffffffffffffffffffffffffffffffff021916908360601c02179055506001816113d69190613021565b600b60003373ffffffffffffffffffffffffffffffffffffffff1673ffffffffffffffffffffffffffffffffffffffff16815260200190815260200160002081905550826001845161142891906131ca565b815181106114395761143861309a565b5b6020026020010151600001516bffffffffffffffffffffffff19163373ffffffffffffffffffffffffffffffffffffffff167f2dfcc2998c64c5aba4d30fb42e425122a20393051eedcf4f3750c123159d310260405160405180910390a3505050565b600560009054906101000a900473ffffffffffffffffffffffffffffffffffffffff1673ffffffffffffffffffffffffffffffffffffffff163373ffffffffffffffffffffffffffffffffffffffff161461152c576040517f08c379a00000000000000000000000000000000000000000000000000000000081526004016115239061346c565b60405180910390fd5b82600660006101000a81548173ffffffffffffffffffffffffffffffffffffffff021916908373ffffffffffffffffffffffffffffffffffffffff16021790555081600760006101000a81548173ffffffffffffffffffffffffffffffffffffffff021916908360601c021790555080600a6000846bffffffffffffffffffffffff19166bffffffffffffffffffffffff1916815260200190815260200160002090816115d99190612ed8565b506001600d6000846bffffffffffffffffffffffff19166bffffffffffffffffffffffff1916815260200190815260200160002060006101000a81548160ff021916908315150217905550505050565b61163161201f565b60006004600084815260200190815260200160002060036000858152602001908152602001600020548160405180606001604052908160008201805461167690612cfb565b80601f01602080910402602001604051908101604052809291908181526020018280546116a290612cfb565b80156116ef5780601f106116c4576101008083540402835291602001916116ef565b820191906000526020600020905b8154815290600101906020018083116116d257829003601f168201915b5050505050815260200160018201805461170890612cfb565b80601f016020809104026020016040519081016040528092919081815260200182805461173490612cfb565b80156117815780601f1061175657610100808354040283529160200191611781565b820191906000526020600020905b81548152906001019060200180831161176457829003601f168201915b50505050508152602001600282015481525050915091509150915091565b600d6020528060005260406000206000915054906101000a900460ff1681565b60006040518251602084019350604067ffffffffffffffc0600183011601600982820310600181036117f2576040820191505b50776745230100efcdab890098badcfe001032547600c3d2e1f061184a565b6000838310156118435782820151905082840393506020841015611842576001846020036101000a03198082169150505b5b9392505050565b60005b82811015611c4e57611860848289611811565b8552611870846020830189611811565b60208601526040818503106001810361188c5760808286038701535b50604083038114600181036118ab576008850260208701511760208701525b5060405b60808110156119375760408103860151603882038701511860208203870151600c830388015118187c010000000100000001000000010000000100000001000000010000000163800000008204167ffffffffefffffffefffffffefffffffefffffffefffffffefffffffefffffffe6002830216179050808288015250600c810190506118af565b5060805b6101408110156119c457608081038601516070820387015118604082038701516018830388015118187c030000000300000003000000030000000300000003000000030000000363400000008204167ffffffffcfffffffcfffffffcfffffffcfffffffcfffffffcfffffffcfffffffc600483021617905080828801525060188101905061193b565b508160008060005b6050811015611c205760148104600081146119fe5760018114611a485760028114611a855760038114611ae857611b21565b6501000000000085046a01000000000000000000008604189350836f01000000000000000000000000000000860416935083650100000000008604189350635a8279999250611b21565b6a010000000000000000000085046f01000000000000000000000000000000860418935083650100000000008604189350636ed9eba19250611b21565b6a010000000000000000000085046f01000000000000000000000000000000860417935083650100000000008604169350836a010000000000000000000086046f01000000000000000000000000000000870416179350638f1bbcdc9250611b21565b6a010000000000000000000085046f0100000000000000000000000000000086041893508365010000000000860418935063ca62c1d692505b50601f770800000000000000000000000000000000000000000000008504168063ffffffe073080000000000000000000000000000000000000087041617905080840190508063ffffffff86160190508083019050807c0100000000000000000000000000000000000000000000000000000000600484028c0151040190507401000000000000000000000000000000000000000081026501000000000086041794506a0100000000000000000000633fffffff6a040000000000000000000087041663c00000006604000000000000880416170277ffffffff00ffffffff000000000000ffffffff00ffffffff8616179450506001810190506119cc565b5077ffffffff00ffffffff00ffffffff00ffffffff00ffffffff83860116945050505060408101905061184d565b506c0100000000000000000000000063ffffffff821667ffffffff000000006101008404166bffffffff0000000000000000620100008504166fffffffff000000000000000000000000630100000086041673ffffffff000000000000000000000000000000006401000000008704161717171702945050505050919050565b600060011515600d60008460600151600081518110611cf057611cef61309a565b5b60200260200101516bffffffffffffffffffffffff19166bffffffffffffffffffffffff1916815260200190815260200160002060009054906101000a900460ff16151514611d74576040517f08c379a0000000000000000000000000000000000000000000000000000000008152600401611d6b906134d8565b60405180910390fd5b60006040518060400160405280600781526020017f636f6d6d697420000000000000000000000000000000000000000000000000008152508360200151604051602001611dc19190613147565b604051602081830303815290604052604051602001611de19291906134f8565b604051602081830303815290604052905060006040518060400160405280600581526020017f7472656520000000000000000000000000000000000000000000000000000000815250611e37856040015161080a565b6040518060400160405280600181526020017f0a00000000000000000000000000000000000000000000000000000000000000815250604051602001611e7f9392919061351c565b6040516020818303038152906040529050600060405180602001604052806000815250905060005b856060015151811015611f7f57816040518060400160405280600781526020017f706172656e742000000000000000000000000000000000000000000000000000815250611f1288606001518481518110611f0557611f0461309a565b5b602002602001015161080a565b6040518060400160405280600181526020017f0a00000000000000000000000000000000000000000000000000000000000000815250604051602001611f5b949392919061354d565b60405160208183030381529060405291508080611f7790612fd9565b915050611ea7565b5060008383838860800151604051602001611f9d949392919061354d565b6040516020818303038152906040529050611fb7816117bf565b6bffffffffffffffffffffffff19167f9c608e5eff4308e47106ab495c748192feb1171b3f68b9e1ae3ede2c66c79fb6878686868b608001518760405161200396959493929190613763565b60405180910390a2612014816117bf565b945050505050919050565b60405180606001604052806060815260200160608152602001600081525090565b6000604051905090565b600080fd5b600080fd5b6000819050919050565b61206781612054565b811461207257600080fd5b50565b6000813590506120848161205e565b92915050565b6000602082840312156120a05761209f61204a565b5b60006120ae84828501612075565b91505092915050565b6120c081612054565b82525050565b60006020820190506120db60008301846120b7565b92915050565b600073ffffffffffffffffffffffffffffffffffffffff82169050919050565b600061210c826120e1565b9050919050565b61211c81612101565b82525050565b60006020820190506121376000830184612113565b92915050565b600080fd5b600080fd5b6000601f19601f8301169050919050565b7f4e487b7100000000000000000000000000000000000000000000000000000000600052604160045260246000fd5b61219082612147565b810181811067ffffffffffffffff821117156121af576121ae612158565b5b80604052505050565b60006121c2612040565b90506121ce8282612187565b919050565b600067ffffffffffffffff8211156121ee576121ed612158565b5b6121f782612147565b9050602081019050919050565b82818337600083830152505050565b6000612226612221846121d3565b6121b8565b90508281526020810184848401111561224257612241612142565b5b61224d848285612204565b509392505050565b600082601f83011261226a5761226961213d565b5b813561227a848260208601612213565b91505092915050565b6000806040838503121561229a5761229961204a565b5b600083013567ffffffffffffffff8111156122b8576122b761204f565b5b6122c485828601612255565b925050602083013567ffffffffffffffff8111156122e5576122e461204f565b5b6122f185828601612255565b9150509250929050565b60007fffffffffffffffffffffffffffffffffffffffff00000000000000000000000082169050919050565b612330816122fb565b811461233b57600080fd5b50565b60008135905061234d81612327565b92915050565b6000602082840312156123695761236861204a565b5b60006123778482850161233e565b91505092915050565b600081519050919050565b600082825260208201905092915050565b60005b838110156123ba57808201518184015260208101905061239f565b60008484015250505050565b60006123d182612380565b6123db818561238b565b93506123eb81856020860161239c565b6123f481612147565b840191505092915050565b6000602082019050818103600083015261241981846123c6565b905092915050565b61242a816122fb565b82525050565b600081519050919050565b600082825260208201905092915050565b600061245782612430565b612461818561243b565b935061247181856020860161239c565b61247a81612147565b840191505092915050565b600060808201905061249a6000830187612113565b6124a760208301866120b7565b6124b46040830185612421565b81810360608301526124c6818461244c565b905095945050505050565b6124da81612101565b81146124e557600080fd5b50565b6000813590506124f7816124d1565b92915050565b600080604083850312156125145761251361204a565b5b6000612522858286016124e8565b925050602061253385828601612075565b9150509250929050565b60006020820190506125526000830184612421565b92915050565b6000806040838503121561256f5761256e61204a565b5b600061257d85828601612075565b925050602083013567ffffffffffffffff81111561259e5761259d61204f565b5b6125aa85828601612255565b9150509250929050565b600060208201905081810360008301526125ce818461244c565b905092915050565b6000602082840312156125ec576125eb61204a565b5b60006125fa848285016124e8565b91505092915050565b600067ffffffffffffffff82111561261e5761261d612158565b5b61262782612147565b9050602081019050919050565b600061264761264284612603565b6121b8565b90508281526020810184848401111561266357612662612142565b5b61266e848285612204565b509392505050565b600082601f83011261268b5761268a61213d565b5b813561269b848260208601612634565b91505092915050565b600080fd5b600080fd5b600067ffffffffffffffff8211156126c9576126c8612158565b5b602082029050602081019050919050565b600080fd5b60006126f26126ed846126ae565b6121b8565b90508083825260208201905060208402830185811115612715576127146126da565b5b835b8181101561273e578061272a888261233e565b845260208401935050602081019050612717565b5050509392505050565b600082601f83011261275d5761275c61213d565b5b813561276d8482602086016126df565b91505092915050565b600060a0828403121561278c5761278b6126a4565b5b61279660a06121b8565b905060006127a68482850161233e565b600083015250602082013567ffffffffffffffff8111156127ca576127c96126a9565b5b6127d684828501612676565b60208301525060406127ea8482850161233e565b604083015250606082013567ffffffffffffffff81111561280e5761280d6126a9565b5b61281a84828501612748565b606083015250608082013567ffffffffffffffff81111561283e5761283d6126a9565b5b61284a84828501612676565b60808301525092915050565b6000806040838503121561286d5761286c61204a565b5b600083013567ffffffffffffffff81111561288b5761288a61204f565b5b61289785828601612676565b925050602083013567ffffffffffffffff8111156128b8576128b761204f565b5b6128c485828601612776565b9150509250929050565b600060608201905081810360008301526128e8818661244c565b905081810360208301526128fc818561244c565b905061290b60408301846120b7565b949350505050565b6000602082840312156129295761292861204a565b5b600082013567ffffffffffffffff8111156129475761294661204f565b5b61295384828501612776565b91505092915050565b600067ffffffffffffffff82111561297757612976612158565b5b602082029050602081019050919050565b600061299b6129968461295c565b6121b8565b905080838252602082019050602084028301858111156129be576129bd6126da565b5b835b81811015612a0557803567ffffffffffffffff8111156129e3576129e261213d565b5b8086016129f08982612776565b855260208501945050506020810190506129c0565b5050509392505050565b600082601f830112612a2457612a2361213d565b5b8135612a34848260208601612988565b91505092915050565b60008060408385031215612a5457612a5361204a565b5b600083013567ffffffffffffffff811115612a7257612a7161204f565b5b612a7e85828601612a0f565b925050602083013567ffffffffffffffff811115612a9f57612a9e61204f565b5b612aab85828601612255565b9150509250929050565b600080600060608486031215612ace57612acd61204a565b5b6000612adc868287016124e8565b9350506020612aed8682870161233e565b925050604084013567ffffffffffffffff811115612b0e57612b0d61204f565b5b612b1a86828701612255565b9150509250925092565b600082825260208201905092915050565b6000612b4082612430565b612b4a8185612b24565b9350612b5a81856020860161239c565b612b6381612147565b840191505092915050565b612b7781612054565b82525050565b60006060830160008301518482036000860152612b9a8282612b35565b91505060208301518482036020860152612bb48282612b35565b9150506040830151612bc96040860182612b6e565b508091505092915050565b60006040820190508181036000830152612bee8185612b7d565b9050612bfd60208301846120b7565b9392505050565b60008115159050919050565b612c1981612c04565b82525050565b6000602082019050612c346000830184612c10565b92915050565b7f426f756e747920616d6f756e74206d757374206265206772656174657220746860008201527f616e203000000000000000000000000000000000000000000000000000000000602082015250565b6000612c9660248361243b565b9150612ca182612c3a565b604082019050919050565b60006020820190508181036000830152612cc581612c89565b9050919050565b7f4e487b7100000000000000000000000000000000000000000000000000000000600052602260045260246000fd5b60006002820490506001821680612d1357607f821691505b602082108103612d2657612d25612ccc565b5b50919050565b60008190508160005260206000209050919050565b60006020601f8301049050919050565b600082821b905092915050565b600060088302612d8e7fffffffffffffffffffffffffffffffffffffffffffffffffffffffffffffffff82612d51565b612d988683612d51565b95508019841693508086168417925050509392505050565b6000819050919050565b6000612dd5612dd0612dcb84612054565b612db0565b612054565b9050919050565b6000819050919050565b612def83612dba565b612e03612dfb82612ddc565b848454612d5e565b825550505050565b600090565b612e18612e0b565b612e23818484612de6565b505050565b5b81811015612e4757612e3c600082612e10565b600181019050612e29565b5050565b601f821115612e8c57612e5d81612d2c565b612e6684612d41565b81016020851015612e75578190505b612e89612e8185612d41565b830182612e28565b50505b505050565b600082821c905092915050565b6000612eaf60001984600802612e91565b1980831691505092915050565b6000612ec88383612e9e565b9150826002028217905092915050565b612ee182612430565b67ffffffffffffffff811115612efa57612ef9612158565b5b612f048254612cfb565b612f0f828285612e4b565b600060209050601f831160018114612f425760008415612f30578287015190505b612f3a8582612ebc565b865550612fa2565b601f198416612f5086612d2c565b60005b82811015612f7857848901518255600182019150602085019450602081019050612f53565b86831015612f955784890151612f91601f891682612e9e565b8355505b6001600288020188555050505b505050505050565b7f4e487b7100000000000000000000000000000000000000000000000000000000600052601160045260246000fd5b6000612fe482612054565b91507fffffffffffffffffffffffffffffffffffffffffffffffffffffffffffffffff820361301657613015612faa565b5b600182019050919050565b600061302c82612054565b915061303783612054565b925082820190508082111561304f5761304e612faa565b5b92915050565b600060608201905061306a60008301866120b7565b818103602083015261307c818561244c565b90508181036040830152613090818461244c565b9050949350505050565b7f4e487b7100000000000000000000000000000000000000000000000000000000600052603260045260246000fd5b60006130d482612054565b91506130df83612054565b92508282026130ed81612054565b9150828204841483151761310457613103612faa565b5b5092915050565b600081905092915050565b600061312182612380565b61312b818561310b565b935061313b81856020860161239c565b80840191505092915050565b60006131538284613116565b915081905092915050565b7f626f756e747920697320636c6f736564206f72206e6f74206578697374000000600082015250565b6000613194601d8361243b565b915061319f8261315e565b602082019050919050565b600060208201905081810360008301526131c381613187565b9050919050565b60006131d582612054565b91506131e083612054565b92508282039050818111156131f8576131f7612faa565b5b92915050565b7f6e65656420746f20636f6e7472696275746520746f2074686973207265706f2060008201527f6272616e63680000000000000000000000000000000000000000000000000000602082015250565b600061325a60268361243b565b9150613265826131fe565b604082019050919050565b600060208201905081810360008301526132898161324d565b9050919050565b7f4f6e6c7920626f756e7479206f776e65722063616e20636c6f736520626f756e60008201527f7479000000000000000000000000000000000000000000000000000000000000602082015250565b60006132ec60228361243b565b91506132f782613290565b604082019050919050565b6000602082019050818103600083015261331b816132df565b9050919050565b7f426f756e747920697320636c6f73656400000000000000000000000000000000600082015250565b600061335860108361243b565b915061336382613322565b602082019050919050565b600060208201905081810360008301526133878161334b565b9050919050565b7f6e65656420746f20706172656e7420746f2074686973207265706f206272616e60008201527f6368000000000000000000000000000000000000000000000000000000000000602082015250565b60006133ea60228361243b565b91506133f58261338e565b604082019050919050565b60006020820190508181036000830152613419816133dd565b9050919050565b7f666f7262696464656e0000000000000000000000000000000000000000000000600082015250565b600061345660098361243b565b915061346182613420565b602082019050919050565b6000602082019050818103600083015261348581613449565b9050919050565b7f706172656e7420636f6d6d6974206e6f74206578697374000000000000000000600082015250565b60006134c260178361243b565b91506134cd8261348c565b602082019050919050565b600060208201905081810360008301526134f1816134b5565b9050919050565b60006135048285613116565b91506135108284613116565b91508190509392505050565b60006135288286613116565b91506135348285613116565b91506135408284613116565b9150819050949350505050565b60006135598287613116565b91506135658286613116565b91506135718285613116565b915061357d8284613116565b915081905095945050505050565b613594816122fb565b82525050565b600082825260208201905092915050565b60006135b682612380565b6135c0818561359a565b93506135d081856020860161239c565b6135d981612147565b840191505092915050565b600081519050919050565b600082825260208201905092915050565b6000819050602082019050919050565b600061361c838361358b565b60208301905092915050565b6000602082019050919050565b6000613640826135e4565b61364a81856135ef565b935061365583613600565b8060005b8381101561368657815161366d8882613610565b975061367883613628565b925050600181019050613659565b5085935050505092915050565b600060a0830160008301516136ab600086018261358b565b50602083015184820360208601526136c382826135ab565b91505060408301516136d8604086018261358b565b50606083015184820360608601526136f08282613635565b9150506080830151848203608086015261370a82826135ab565b9150508091505092915050565b7f7465737420636f6d6d6974000000000000000000000000000000000000000000600082015250565b600061374d600b8361243b565b915061375882613717565b602082019050919050565b600060e082019050818103600083015261377d8189613693565b9050818103602083015261379181886123c6565b905081810360408301526137a581876123c6565b905081810360608301526137b981866123c6565b905081810360808301526137cd81856123c6565b905081810360a08301526137e181846123c6565b905081810360c08301526137f481613740565b905097965050505050505056fea2646970667358221220007fcff022e84aeddccf2c6b984f6530941c4beafb9610c6835b9ad2b7e4fe8564736f6c63430008120033",
  "linkReferences": {},
  "deployedLinkReferences": {}
}