{
  "_format": "hh-sol-artifact-1",
  "contractName": "GitFactory",
  "sourceName": "contracts/GitFactory.sol",
  "abi": [
    {
      "anonymous": false,
      "inputs": [
        {
          "indexed": true,
          "internalType": "address",
          "name": "repo",
          "type": "address"
        },
        {
          "indexed": true,
          "internalType": "address",
          "name": "owner",
          "type": "address"
        }
      ],
      "name": "deployedAddress",
      "type": "event"
    },
    {
      "inputs": [
        {
          "internalType": "bytes20",
          "name": "commitHash",
          "type": "bytes20"
        },
        {
          "internalType": "string",
          "name": "cid",
          "type": "string"
        }
      ],
      "name": "getRepoAddress",
      "outputs": [
        {
          "internalType": "address",
          "name": "",
          "type": "address"
        }
      ],
      "stateMutability": "nonpayable",
      "type": "function"
    }
  ],
  "bytecode": "0x608060405234801561001057600080fd5b50613445806100206000396000f3fe608060405234801561001057600080fd5b506004361061002b5760003560e01c8063bf0aedf114610030575b600080fd5b61004a60048036038101906100459190610320565b610060565b60405161005791906103bd565b60405180910390f35b60008060405161006f90610161565b604051809103906000f08015801561008b573d6000803e3d6000fd5b5090508073ffffffffffffffffffffffffffffffffffffffff1663df01f0883386866040518463ffffffff1660e01b81526004016100cb93929190610466565b600060405180830381600087803b1580156100e557600080fd5b505af11580156100f9573d6000803e3d6000fd5b505050503373ffffffffffffffffffffffffffffffffffffffff168173ffffffffffffffffffffffffffffffffffffffff167ff8e1ba48b949657413a7adc19d8cda4d91d97cf10cf9bbf6851a261e113bafc960405160405180910390a38091505092915050565b612f6b806104a583390190565b6000604051905090565b600080fd5b600080fd5b60007fffffffffffffffffffffffffffffffffffffffff00000000000000000000000082169050919050565b6101b781610182565b81146101c257600080fd5b50565b6000813590506101d4816101ae565b92915050565b600080fd5b600080fd5b6000601f19601f8301169050919050565b7f4e487b7100000000000000000000000000000000000000000000000000000000600052604160045260246000fd5b61022d826101e4565b810181811067ffffffffffffffff8211171561024c5761024b6101f5565b5b80604052505050565b600061025f61016e565b905061026b8282610224565b919050565b600067ffffffffffffffff82111561028b5761028a6101f5565b5b610294826101e4565b9050602081019050919050565b82818337600083830152505050565b60006102c36102be84610270565b610255565b9050828152602081018484840111156102df576102de6101df565b5b6102ea8482856102a1565b509392505050565b600082601f830112610307576103066101da565b5b81356103178482602086016102b0565b91505092915050565b6000806040838503121561033757610336610178565b5b6000610345858286016101c5565b925050602083013567ffffffffffffffff8111156103665761036561017d565b5b610372858286016102f2565b9150509250929050565b600073ffffffffffffffffffffffffffffffffffffffff82169050919050565b60006103a78261037c565b9050919050565b6103b78161039c565b82525050565b60006020820190506103d260008301846103ae565b92915050565b6103e181610182565b82525050565b600081519050919050565b600082825260208201905092915050565b60005b83811015610421578082015181840152602081019050610406565b60008484015250505050565b6000610438826103e7565b61044281856103f2565b9350610452818560208601610403565b61045b816101e4565b840191505092915050565b600060608201905061047b60008301866103ae565b61048860208301856103d8565b818103604083015261049a818461042d565b905094935050505056fe608060405260008055600060075533600460006101000a81548173ffffffffffffffffffffffffffffffffffffffff021916908373ffffffffffffffffffffffffffffffffffffffff160217905550612f0e8061005d6000396000f3fe6080604052600436106101145760003560e01c8063b579d368116100a0578063ce0ac2d611610064578063ce0ac2d6146103d1578063d70cc93b146103fc578063d946dfe014610425578063df01f08814610462578063ee8c4bbf1461048b57610114565b8063b579d368146102d6578063b988997f14610313578063c45a01551461033c578063c6db721e14610367578063c87dcb83146103a657610114565b806363b28c92116100e757806363b28c92146101d55780636d2008a51461020057806381d12c581461021c57806386f219e41461025c578063a5fa10f21461029957610114565b806327dbe5eb146101195780633e1328db146101565780633e362c961461017f5780635badbe4c146101aa575b600080fd5b34801561012557600080fd5b50610140600480360381019061013b9190611af4565b6104c9565b60405161014d9190611b30565b60405180910390f35b34801561016257600080fd5b5061017d60048036038101906101789190611dab565b6104e1565b005b34801561018b57600080fd5b5061019461060d565b6040516101a19190611b30565b60405180910390f35b3480156101b657600080fd5b506101bf610613565b6040516101cc9190611b30565b60405180910390f35b3480156101e157600080fd5b506101ea610619565b6040516101f79190611e5b565b60405180910390f35b61021a60048036038101906102159190611f17565b61063f565b005b34801561022857600080fd5b50610243600480360381019061023e9190611af4565b6107c7565b604051610253949392919061201d565b60405180910390f35b34801561026857600080fd5b50610283600480360381019061027e9190612095565b6108ac565b60405161029091906120d5565b60405180910390f35b3480156102a557600080fd5b506102c060048036038101906102bb91906120f0565b6108db565b6040516102cd919061211d565b60405180910390f35b3480156102e257600080fd5b506102fd60048036038101906102f8919061213f565b61097b565b60405161030a9190611b30565b60405180910390f35b34801561031f57600080fd5b5061033a60048036038101906103359190611af4565b610993565b005b34801561034857600080fd5b50610351610aac565b60405161035e9190611e5b565b60405180910390f35b34801561037357600080fd5b5061038e60048036038101906103899190611af4565b610ad2565b60405161039d9392919061216c565b60405180910390f35b3480156103b257600080fd5b506103bb610c0c565b6040516103c891906120d5565b60405180910390f35b3480156103dd57600080fd5b506103e6610c23565b6040516103f391906120d5565b60405180910390f35b34801561040857600080fd5b50610423600480360381019061041e919061235a565b610c36565b005b34801561043157600080fd5b5061044c60048036038101906104479190611af4565b610e21565b6040516104599190611e5b565b60405180910390f35b34801561046e57600080fd5b5061048960048036038101906104849190612415565b610e54565b005b34801561049757600080fd5b506104b260048036038101906104ad9190611af4565b610f97565b6040516104c0929190612534565b60405180910390f35b60026020528060005260406000206000915090505481565b600560009054906101000a900473ffffffffffffffffffffffffffffffffffffffff1673ffffffffffffffffffffffffffffffffffffffff163373ffffffffffffffffffffffffffffffffffffffff1614610571576040517f08c379a0000000000000000000000000000000000000000000000000000000008152600401610568906125b0565b60405180910390fd5b61057b838261110d565b6bffffffffffffffffffffffff1916826bffffffffffffffffffffffff1916146105da576040517f08c379a00000000000000000000000000000000000000000000000000000000081526004016105d19061261c565b60405180910390fd5b81600660006101000a81548173ffffffffffffffffffffffffffffffffffffffff021916908360601c0217905550505050565b60005481565b60075481565b600560009054906101000a900473ffffffffffffffffffffffffffffffffffffffff1681565b60003403610682576040517f08c379a0000000000000000000000000000000000000000000000000000000008152600401610679906126ae565b60405180910390fd5b33600160008054815260200190815260200160002060006101000a81548173ffffffffffffffffffffffffffffffffffffffff021916908373ffffffffffffffffffffffffffffffffffffffff16021790555034600260008054815260200190815260200160002081905550604051806060016040528083815260200182815260200160018152506003600080548152602001908152602001600020600082015181600001908161073391906128da565b50602082015181600101908161074991906128da565b5060408201518160020155905050600080815480929190610769906129db565b91905055503373ffffffffffffffffffffffffffffffffffffffff166000547fea57c46a6e57ddb9af4c62ad771ca42aacde886527f79e093eb4991bae0b7fa63485856040516107bb93929190612a23565b60405180910390a35050565b60086020528060005260406000206000915090508060000160009054906101000a900473ffffffffffffffffffffffffffffffffffffffff16908060010154908060020160009054906101000a900460601b90806003018054610829906126fd565b80601f0160208091040260200160405190810160405280929190818152602001828054610855906126fd565b80156108a25780601f10610877576101008083540402835291602001916108a2565b820191906000526020600020905b81548152906001019060200180831161088557829003601f168201915b5050505050905084565b600b6020528160005260406000206020528060005260406000206000915091509054906101000a900460601b81565b600960205280600052604060002060009150905080546108fa906126fd565b80601f0160208091040260200160405190810160405280929190818152602001828054610926906126fd565b80156109735780601f1061094857610100808354040283529160200191610973565b820191906000526020600020905b81548152906001019060200180831161095657829003601f168201915b505050505081565b600a6020528060005260406000206000915090505481565b6001600082815260200190815260200160002060009054906101000a900473ffffffffffffffffffffffffffffffffffffffff1673ffffffffffffffffffffffffffffffffffffffff163373ffffffffffffffffffffffffffffffffffffffff1614610a34576040517f08c379a0000000000000000000000000000000000000000000000000000000008152600401610a2b90612ada565b60405180910390fd5b6001600360008381526020019081526020016000206002015414610a8d576040517f08c379a0000000000000000000000000000000000000000000000000000000008152600401610a8490612b46565b60405180910390fd5b6000600360008381526020019081526020016000206002018190555050565b600460009054906101000a900473ffffffffffffffffffffffffffffffffffffffff1681565b6003602052806000526040600020600091509050806000018054610af5906126fd565b80601f0160208091040260200160405190810160405280929190818152602001828054610b21906126fd565b8015610b6e5780601f10610b4357610100808354040283529160200191610b6e565b820191906000526020600020905b815481529060010190602001808311610b5157829003601f168201915b505050505090806001018054610b83906126fd565b80601f0160208091040260200160405190810160405280929190818152602001828054610baf906126fd565b8015610bfc5780601f10610bd157610100808354040283529160200191610bfc565b820191906000526020600020905b815481529060010190602001808311610bdf57829003601f168201915b5050505050908060020154905083565b6000600660009054906101000a900460601b905090565b600660009054906101000a900460601b81565b8251825114610c7a576040517f08c379a0000000000000000000000000000000000000000000000000000000008152600401610c7190612bd8565b60405180910390fd5b6001600360008681526020019081526020016000206002015414610cd3576040517f08c379a0000000000000000000000000000000000000000000000000000000008152600401610cca90612c44565b60405180910390fd5b610cdd8383611243565b600060405180608001604052803373ffffffffffffffffffffffffffffffffffffffff1681526020018681526020018460018651610d1b9190612c64565b81518110610d2c57610d2b612c98565b5b60200260200101516bffffffffffffffffffffffff191681526020018381525090508060086000600754815260200190815260200160002060008201518160000160006101000a81548173ffffffffffffffffffffffffffffffffffffffff021916908373ffffffffffffffffffffffffffffffffffffffff1602179055506020820151816001015560408201518160020160006101000a81548173ffffffffffffffffffffffffffffffffffffffff021916908360601c02179055506060820151816003019081610dfe91906128da565b5090505060076000815480929190610e15906129db565b91905055505050505050565b60016020528060005260406000206000915054906101000a900473ffffffffffffffffffffffffffffffffffffffff1681565b600460009054906101000a900473ffffffffffffffffffffffffffffffffffffffff1673ffffffffffffffffffffffffffffffffffffffff163373ffffffffffffffffffffffffffffffffffffffff1614610ee4576040517f08c379a0000000000000000000000000000000000000000000000000000000008152600401610edb906125b0565b60405180910390fd5b82600560006101000a81548173ffffffffffffffffffffffffffffffffffffffff021916908373ffffffffffffffffffffffffffffffffffffffff16021790555081600660006101000a81548173ffffffffffffffffffffffffffffffffffffffff021916908360601c02179055508060096000846bffffffffffffffffffffffff19166bffffffffffffffffffffffff191681526020019081526020016000209081610f9191906128da565b50505050565b610f9f611a89565b600060036000848152602001908152602001600020600260008581526020019081526020016000205481604051806060016040529081600082018054610fe4906126fd565b80601f0160208091040260200160405190810160405280929190818152602001828054611010906126fd565b801561105d5780601f106110325761010080835404028352916020019161105d565b820191906000526020600020905b81548152906001019060200180831161104057829003601f168201915b50505050508152602001600182018054611076906126fd565b80601f01602080910402602001604051908101604052809291908181526020018280546110a2906126fd565b80156110ef5780601f106110c4576101008083540402835291602001916110ef565b820191906000526020600020905b8154815290600101906020018083116110d257829003601f168201915b50505050508152602001600282015481525050915091509150915091565b600080836000015184602001516040518060400160405280600681526020017f706172656e740000000000000000000000000000000000000000000000000000815250600660009054906101000a900460601b6040518060400160405280600181526020017f0a000000000000000000000000000000000000000000000000000000000000008152506040518060400160405280600681526020017f706172656e740000000000000000000000000000000000000000000000000000815250886040518060400160405280600181526020017f0a000000000000000000000000000000000000000000000000000000000000008152508b6040015160405160200161122099989796959493929190612d2f565b604051602081830303815290604052905061123a816114b5565b91505092915050565b60005b82518110156112fe5761127283828151811061126557611264612c98565b5b60200260200101516119c4565b6bffffffffffffffffffffffff191682828151811061129457611293612c98565b5b60200260200101516bffffffffffffffffffffffff1916146112eb576040517f08c379a00000000000000000000000000000000000000000000000000000000081526004016112e290612e28565b60405180910390fd5b80806112f6906129db565b915050611246565b506000600a60003373ffffffffffffffffffffffffffffffffffffffff1673ffffffffffffffffffffffffffffffffffffffff16815260200190815260200160002054905081600183516113529190612c64565b8151811061136357611362612c98565b5b6020026020010151600b60003373ffffffffffffffffffffffffffffffffffffffff1673ffffffffffffffffffffffffffffffffffffffff168152602001908152602001600020600083815260200190815260200160002060006101000a81548173ffffffffffffffffffffffffffffffffffffffff021916908360601c02179055506001816113f39190612e48565b600a60003373ffffffffffffffffffffffffffffffffffffffff1673ffffffffffffffffffffffffffffffffffffffff1681526020019081526020016000208190555081600183516114459190612c64565b8151811061145657611455612c98565b5b60200260200101516bffffffffffffffffffffffff19163373ffffffffffffffffffffffffffffffffffffffff167f2dfcc2998c64c5aba4d30fb42e425122a20393051eedcf4f3750c123159d310260405160405180910390a3505050565b60006040518251602084019350604067ffffffffffffffc0600183011601600982820310600181036114e8576040820191505b50776745230100efcdab890098badcfe001032547600c3d2e1f0611540565b6000838310156115395782820151905082840393506020841015611538576001846020036101000a03198082169150505b5b9392505050565b60005b8281101561194457611556848289611507565b8552611566846020830189611507565b6020860152604081850310600181036115825760808286038701535b50604083038114600181036115a1576008850260208701511760208701525b5060405b608081101561162d5760408103860151603882038701511860208203870151600c830388015118187c010000000100000001000000010000000100000001000000010000000163800000008204167ffffffffefffffffefffffffefffffffefffffffefffffffefffffffefffffffe6002830216179050808288015250600c810190506115a5565b5060805b6101408110156116ba57608081038601516070820387015118604082038701516018830388015118187c030000000300000003000000030000000300000003000000030000000363400000008204167ffffffffcfffffffcfffffffcfffffffcfffffffcfffffffcfffffffcfffffffc6004830216179050808288015250601881019050611631565b508160008060005b60508110156119165760148104600081146116f4576001811461173e576002811461177b57600381146117de57611817565b6501000000000085046a01000000000000000000008604189350836f01000000000000000000000000000000860416935083650100000000008604189350635a8279999250611817565b6a010000000000000000000085046f01000000000000000000000000000000860418935083650100000000008604189350636ed9eba19250611817565b6a010000000000000000000085046f01000000000000000000000000000000860417935083650100000000008604169350836a010000000000000000000086046f01000000000000000000000000000000870416179350638f1bbcdc9250611817565b6a010000000000000000000085046f0100000000000000000000000000000086041893508365010000000000860418935063ca62c1d692505b50601f770800000000000000000000000000000000000000000000008504168063ffffffe073080000000000000000000000000000000000000087041617905080840190508063ffffffff86160190508083019050807c0100000000000000000000000000000000000000000000000000000000600484028c0151040190507401000000000000000000000000000000000000000081026501000000000086041794506a0100000000000000000000633fffffff6a040000000000000000000087041663c00000006604000000000000880416170277ffffffff00ffffffff000000000000ffffffff00ffffffff8616179450506001810190506116c2565b5077ffffffff00ffffffff00ffffffff00ffffffff00ffffffff838601169450505050604081019050611543565b506c0100000000000000000000000063ffffffff821667ffffffff000000006101008404166bffffffff0000000000000000620100008504166fffffffff000000000000000000000000630100000086041673ffffffff000000000000000000000000000000006401000000008704161717171702945050505050919050565b600080826000015183602001516040518060400160405280600681526020017f706172656e740000000000000000000000000000000000000000000000000000815250600660009054906101000a900460601b6040518060400160405280600181526020017f0a000000000000000000000000000000000000000000000000000000000000008152508760400151604051602001611a6796959493929190612e7c565b6040516020818303038152906040529050611a81816114b5565b915050919050565b60405180606001604052806060815260200160608152602001600081525090565b6000604051905090565b600080fd5b600080fd5b6000819050919050565b611ad181611abe565b8114611adc57600080fd5b50565b600081359050611aee81611ac8565b92915050565b600060208284031215611b0a57611b09611ab4565b5b6000611b1884828501611adf565b91505092915050565b611b2a81611abe565b82525050565b6000602082019050611b456000830184611b21565b92915050565b600080fd5b6000601f19601f8301169050919050565b7f4e487b7100000000000000000000000000000000000000000000000000000000600052604160045260246000fd5b611b9982611b50565b810181811067ffffffffffffffff82111715611bb857611bb7611b61565b5b80604052505050565b6000611bcb611aaa565b9050611bd78282611b90565b919050565b600080fd5b600080fd5b600080fd5b600067ffffffffffffffff821115611c0657611c05611b61565b5b611c0f82611b50565b9050602081019050919050565b82818337600083830152505050565b6000611c3e611c3984611beb565b611bc1565b905082815260208101848484011115611c5a57611c59611be6565b5b611c65848285611c1c565b509392505050565b600082601f830112611c8257611c81611be1565b5b8135611c92848260208601611c2b565b91505092915050565b600060608284031215611cb157611cb0611b4b565b5b611cbb6060611bc1565b9050600082013567ffffffffffffffff811115611cdb57611cda611bdc565b5b611ce784828501611c6d565b600083015250602082013567ffffffffffffffff811115611d0b57611d0a611bdc565b5b611d1784828501611c6d565b602083015250604082013567ffffffffffffffff811115611d3b57611d3a611bdc565b5b611d4784828501611c6d565b60408301525092915050565b60007fffffffffffffffffffffffffffffffffffffffff00000000000000000000000082169050919050565b611d8881611d53565b8114611d9357600080fd5b50565b600081359050611da581611d7f565b92915050565b600080600060608486031215611dc457611dc3611ab4565b5b600084013567ffffffffffffffff811115611de257611de1611ab9565b5b611dee86828701611c9b565b9350506020611dff86828701611d96565b9250506040611e1086828701611d96565b9150509250925092565b600073ffffffffffffffffffffffffffffffffffffffff82169050919050565b6000611e4582611e1a565b9050919050565b611e5581611e3a565b82525050565b6000602082019050611e706000830184611e4c565b92915050565b600067ffffffffffffffff821115611e9157611e90611b61565b5b611e9a82611b50565b9050602081019050919050565b6000611eba611eb584611e76565b611bc1565b905082815260208101848484011115611ed657611ed5611be6565b5b611ee1848285611c1c565b509392505050565b600082601f830112611efe57611efd611be1565b5b8135611f0e848260208601611ea7565b91505092915050565b60008060408385031215611f2e57611f2d611ab4565b5b600083013567ffffffffffffffff811115611f4c57611f4b611ab9565b5b611f5885828601611ee9565b925050602083013567ffffffffffffffff811115611f7957611f78611ab9565b5b611f8585828601611ee9565b9150509250929050565b611f9881611d53565b82525050565b600081519050919050565b600082825260208201905092915050565b60005b83811015611fd8578082015181840152602081019050611fbd565b60008484015250505050565b6000611fef82611f9e565b611ff98185611fa9565b9350612009818560208601611fba565b61201281611b50565b840191505092915050565b60006080820190506120326000830187611e4c565b61203f6020830186611b21565b61204c6040830185611f8f565b818103606083015261205e8184611fe4565b905095945050505050565b61207281611e3a565b811461207d57600080fd5b50565b60008135905061208f81612069565b92915050565b600080604083850312156120ac576120ab611ab4565b5b60006120ba85828601612080565b92505060206120cb85828601611adf565b9150509250929050565b60006020820190506120ea6000830184611f8f565b92915050565b60006020828403121561210657612105611ab4565b5b600061211484828501611d96565b91505092915050565b600060208201905081810360008301526121378184611fe4565b905092915050565b60006020828403121561215557612154611ab4565b5b600061216384828501612080565b91505092915050565b600060608201905081810360008301526121868186611fe4565b9050818103602083015261219a8185611fe4565b90506121a96040830184611b21565b949350505050565b600067ffffffffffffffff8211156121cc576121cb611b61565b5b602082029050602081019050919050565b600080fd5b60006121f56121f0846121b1565b611bc1565b90508083825260208201905060208402830185811115612218576122176121dd565b5b835b8181101561225f57803567ffffffffffffffff81111561223d5761223c611be1565b5b80860161224a8982611c9b565b8552602085019450505060208101905061221a565b5050509392505050565b600082601f83011261227e5761227d611be1565b5b813561228e8482602086016121e2565b91505092915050565b600067ffffffffffffffff8211156122b2576122b1611b61565b5b602082029050602081019050919050565b60006122d66122d184612297565b611bc1565b905080838252602082019050602084028301858111156122f9576122f86121dd565b5b835b81811015612322578061230e8882611d96565b8452602084019350506020810190506122fb565b5050509392505050565b600082601f83011261234157612340611be1565b5b81356123518482602086016122c3565b91505092915050565b6000806000806080858703121561237457612373611ab4565b5b600061238287828801611adf565b945050602085013567ffffffffffffffff8111156123a3576123a2611ab9565b5b6123af87828801612269565b935050604085013567ffffffffffffffff8111156123d0576123cf611ab9565b5b6123dc8782880161232c565b925050606085013567ffffffffffffffff8111156123fd576123fc611ab9565b5b61240987828801611ee9565b91505092959194509250565b60008060006060848603121561242e5761242d611ab4565b5b600061243c86828701612080565b935050602061244d86828701611d96565b925050604084013567ffffffffffffffff81111561246e5761246d611ab9565b5b61247a86828701611ee9565b9150509250925092565b600082825260208201905092915050565b60006124a082611f9e565b6124aa8185612484565b93506124ba818560208601611fba565b6124c381611b50565b840191505092915050565b6124d781611abe565b82525050565b600060608301600083015184820360008601526124fa8282612495565b915050602083015184820360208601526125148282612495565b915050604083015161252960408601826124ce565b508091505092915050565b6000604082019050818103600083015261254e81856124dd565b905061255d6020830184611b21565b9392505050565b7f666f7262696464656e0000000000000000000000000000000000000000000000600082015250565b600061259a600983611fa9565b91506125a582612564565b602082019050919050565b600060208201905081810360008301526125c98161258d565b9050919050565b7f6e65656420746f20706172656e7420746f2074686973206272616e6368000000600082015250565b6000612606601d83611fa9565b9150612611826125d0565b602082019050919050565b60006020820190508181036000830152612635816125f9565b9050919050565b7f426f756e747920616d6f756e74206d757374206265206772656174657220746860008201527f616e203000000000000000000000000000000000000000000000000000000000602082015250565b6000612698602483611fa9565b91506126a38261263c565b604082019050919050565b600060208201905081810360008301526126c78161268b565b9050919050565b7f4e487b7100000000000000000000000000000000000000000000000000000000600052602260045260246000fd5b6000600282049050600182168061271557607f821691505b602082108103612728576127276126ce565b5b50919050565b60008190508160005260206000209050919050565b60006020601f8301049050919050565b600082821b905092915050565b6000600883026127907fffffffffffffffffffffffffffffffffffffffffffffffffffffffffffffffff82612753565b61279a8683612753565b95508019841693508086168417925050509392505050565b6000819050919050565b60006127d76127d26127cd84611abe565b6127b2565b611abe565b9050919050565b6000819050919050565b6127f1836127bc565b6128056127fd826127de565b848454612760565b825550505050565b600090565b61281a61280d565b6128258184846127e8565b505050565b5b818110156128495761283e600082612812565b60018101905061282b565b5050565b601f82111561288e5761285f8161272e565b61286884612743565b81016020851015612877578190505b61288b61288385612743565b83018261282a565b50505b505050565b600082821c905092915050565b60006128b160001984600802612893565b1980831691505092915050565b60006128ca83836128a0565b9150826002028217905092915050565b6128e382611f9e565b67ffffffffffffffff8111156128fc576128fb611b61565b5b61290682546126fd565b61291182828561284d565b600060209050601f8311600181146129445760008415612932578287015190505b61293c85826128be565b8655506129a4565b601f1984166129528661272e565b60005b8281101561297a57848901518255600182019150602085019450602081019050612955565b868310156129975784890151612993601f8916826128a0565b8355505b6001600288020188555050505b505050505050565b7f4e487b7100000000000000000000000000000000000000000000000000000000600052601160045260246000fd5b60006129e682611abe565b91507fffffffffffffffffffffffffffffffffffffffffffffffffffffffffffffffff8203612a1857612a176129ac565b5b600182019050919050565b6000606082019050612a386000830186611b21565b8181036020830152612a4a8185611fe4565b90508181036040830152612a5e8184611fe4565b9050949350505050565b7f4f6e6c7920626f756e7479206f776e65722063616e20636c6f736520626f756e60008201527f7479000000000000000000000000000000000000000000000000000000000000602082015250565b6000612ac4602283611fa9565b9150612acf82612a68565b604082019050919050565b60006020820190508181036000830152612af381612ab7565b9050919050565b7f426f756e747920697320636c6f73656400000000000000000000000000000000600082015250565b6000612b30601083611fa9565b9150612b3b82612afa565b602082019050919050565b60006020820190508181036000830152612b5f81612b23565b9050919050565b7f636f6d6d6974206c656e67746820636f756e74206d757374206265206571756160008201527f6c20746f206e6577486173686573206c656e6774680000000000000000000000602082015250565b6000612bc2603583611fa9565b9150612bcd82612b66565b604082019050919050565b60006020820190508181036000830152612bf181612bb5565b9050919050565b7f626f756e747920697320636c6f736564206f72206e6f74206578697374000000600082015250565b6000612c2e601d83611fa9565b9150612c3982612bf8565b602082019050919050565b60006020820190508181036000830152612c5d81612c21565b9050919050565b6000612c6f82611abe565b9150612c7a83611abe565b9250828203905081811115612c9257612c916129ac565b5b92915050565b7f4e487b7100000000000000000000000000000000000000000000000000000000600052603260045260246000fd5b600081519050919050565b600081905092915050565b6000612ce882612cc7565b612cf28185612cd2565b9350612d02818560208601611fba565b80840191505092915050565b6000819050919050565b612d29612d2482611d53565b612d0e565b82525050565b6000612d3b828c612cdd565b9150612d47828b612cdd565b9150612d53828a612cdd565b9150612d5f8289612d18565b601482019150612d6f8288612cdd565b9150612d7b8287612cdd565b9150612d878286612d18565b601482019150612d978285612cdd565b9150612da38284612cdd565b91508190509a9950505050505050505050565b7f6e65656420746f20706172656e7420746f2074686973207265706f206272616e60008201527f6368000000000000000000000000000000000000000000000000000000000000602082015250565b6000612e12602283611fa9565b9150612e1d82612db6565b604082019050919050565b60006020820190508181036000830152612e4181612e05565b9050919050565b6000612e5382611abe565b9150612e5e83611abe565b9250828201905080821115612e7657612e756129ac565b5b92915050565b6000612e888289612cdd565b9150612e948288612cdd565b9150612ea08287612cdd565b9150612eac8286612d18565b601482019150612ebc8285612cdd565b9150612ec88284612cdd565b915081905097965050505050505056fea2646970667358221220a1ce782d4c23b6555975897a28f144e2cc9cd7573abc340f823ba9dd1c85c15064736f6c63430008120033a264697066735822122047d765980d903bf1a8f81efde75f568a8bc3901c5fd46fab968e20a8098170e064736f6c63430008120033",
  "linkReferences": {},
  "deployedLinkReferences": {}
}